{
  "_format": "hh-sol-artifact-1",
  "contractName": "CashierContractV1",
  "sourceName": "contracts/CashierContract.sol",
  "abi": [
    {
      "anonymous": false,
      "inputs": [
        {
          "indexed": false,
          "internalType": "address",
          "name": "previousAdmin",
          "type": "address"
        },
        {
          "indexed": false,
          "internalType": "address",
          "name": "newAdmin",
          "type": "address"
        }
      ],
      "name": "AdminChanged",
      "type": "event"
    },
    {
      "anonymous": false,
      "inputs": [
        {
          "indexed": true,
          "internalType": "address",
          "name": "beacon",
          "type": "address"
        }
      ],
      "name": "BeaconUpgraded",
      "type": "event"
    },
    {
      "anonymous": false,
      "inputs": [
        {
          "indexed": true,
          "internalType": "address",
          "name": "from",
          "type": "address"
        },
        {
          "indexed": false,
          "internalType": "uint256",
          "name": "value",
          "type": "uint256"
        }
      ],
      "name": "Deposit",
      "type": "event"
    },
    {
      "anonymous": false,
      "inputs": [
        {
          "indexed": true,
          "internalType": "address",
          "name": "previousOwner",
          "type": "address"
        },
        {
          "indexed": true,
          "internalType": "address",
          "name": "newOwner",
          "type": "address"
        }
      ],
      "name": "OwnershipTransferred",
      "type": "event"
    },
    {
      "anonymous": false,
      "inputs": [
        {
          "indexed": true,
          "internalType": "address",
          "name": "from",
          "type": "address"
        },
        {
          "indexed": true,
          "internalType": "address",
          "name": "to",
          "type": "address"
        },
        {
          "indexed": false,
          "internalType": "uint256",
          "name": "value",
          "type": "uint256"
        }
      ],
      "name": "TransferCashier",
      "type": "event"
    },
    {
      "anonymous": false,
      "inputs": [
        {
          "indexed": true,
          "internalType": "address",
          "name": "implementation",
          "type": "address"
        }
      ],
      "name": "Upgraded",
      "type": "event"
    },
    {
      "anonymous": false,
      "inputs": [
        {
          "indexed": true,
          "internalType": "address",
          "name": "from",
          "type": "address"
        },
        {
          "indexed": false,
          "internalType": "uint256",
          "name": "value",
          "type": "uint256"
        }
      ],
      "name": "Withdraw",
      "type": "event"
    },
    {
      "inputs": [],
      "name": "initialize",
      "outputs": [],
      "stateMutability": "nonpayable",
      "type": "function"
    },
    {
      "inputs": [],
      "name": "owner",
      "outputs": [
        {
          "internalType": "address",
          "name": "",
          "type": "address"
        }
      ],
      "stateMutability": "view",
      "type": "function"
    },
    {
      "inputs": [],
      "name": "renounceOwnership",
      "outputs": [],
      "stateMutability": "nonpayable",
      "type": "function"
    },
    {
      "inputs": [
        {
          "internalType": "address",
          "name": "newOwner",
          "type": "address"
        }
      ],
      "name": "transferOwnership",
      "outputs": [],
      "stateMutability": "nonpayable",
      "type": "function"
    },
    {
      "inputs": [
        {
          "internalType": "address",
          "name": "newImplementation",
          "type": "address"
        }
      ],
      "name": "upgradeTo",
      "outputs": [],
      "stateMutability": "nonpayable",
      "type": "function"
    },
    {
      "inputs": [
        {
          "internalType": "address",
          "name": "newImplementation",
          "type": "address"
        },
        {
          "internalType": "bytes",
          "name": "data",
          "type": "bytes"
        }
      ],
      "name": "upgradeToAndCall",
      "outputs": [],
      "stateMutability": "payable",
      "type": "function"
    }
  ],
  "bytecode": "0x608060405234801561001057600080fd5b50611293806100206000396000f3fe6080604052600436106100555760003560e01c80633659cfe61461005a5780634f1ef28614610083578063715018a61461009f5780638129fc1c146100b65780638da5cb5b146100cd578063f2fde38b146100f8575b600080fd5b34801561006657600080fd5b50610081600480360381019061007c9190610c22565b610121565b005b61009d60048036038101906100989190610c4b565b610148565b005b3480156100ab57600080fd5b506100b4610161565b005b3480156100c257600080fd5b506100cb6101e9565b005b3480156100d957600080fd5b506100e26102d2565b6040516100ef9190610e01565b60405180910390f35b34801561010457600080fd5b5061011f600480360381019061011a9190610c22565b6102fc565b005b61012a816103f4565b61014581604051806020016040528060008152506000610473565b50565b610151826103f4565b61015d82826001610473565b5050565b610169610644565b73ffffffffffffffffffffffffffffffffffffffff166101876102d2565b73ffffffffffffffffffffffffffffffffffffffff16146101dd576040517f08c379a00000000000000000000000000000000000000000000000000000000081526004016101d490610ebe565b60405180910390fd5b6101e7600061064c565b565b600060019054906101000a900460ff168061020f575060008054906101000a900460ff16155b61024e576040517f08c379a000000000000000000000000000000000000000000000000000000000815260040161024590610e7e565b60405180910390fd5b60008060019054906101000a900460ff16159050801561029e576001600060016101000a81548160ff02191690831515021790555060016000806101000a81548160ff0219169083151502179055505b6102a6610712565b6102ae6107eb565b80156102cf5760008060016101000a81548160ff0219169083151502179055505b50565b6000609760009054906101000a900473ffffffffffffffffffffffffffffffffffffffff16905090565b610304610644565b73ffffffffffffffffffffffffffffffffffffffff166103226102d2565b73ffffffffffffffffffffffffffffffffffffffff1614610378576040517f08c379a000000000000000000000000000000000000000000000000000000000815260040161036f90610ebe565b60405180910390fd5b600073ffffffffffffffffffffffffffffffffffffffff168173ffffffffffffffffffffffffffffffffffffffff1614156103e8576040517f08c379a00000000000000000000000000000000000000000000000000000000081526004016103df90610e5e565b60405180910390fd5b6103f18161064c565b50565b6103fc610644565b73ffffffffffffffffffffffffffffffffffffffff1661041a6102d2565b73ffffffffffffffffffffffffffffffffffffffff1614610470576040517f08c379a000000000000000000000000000000000000000000000000000000000815260040161046790610ebe565b60405180910390fd5b50565b600061047d6108d4565b90506104888461092b565b6000835111806104955750815b156104a6576104a484846109e4565b505b60006104d47f4910fdfa16fed3260ed0e7147f7cc6da11a60208b5b9406d12a635614ffd914360001b610ac8565b90508060000160009054906101000a900460ff1661063d5760018160000160006101000a81548160ff0219169083151502179055506105a0858360405160240161051e9190610e01565b6040516020818303038152906040527f3659cfe6000000000000000000000000000000000000000000000000000000007bffffffffffffffffffffffffffffffffffffffffffffffffffffffff19166020820180517bffffffffffffffffffffffffffffffffffffffffffffffffffffffff83818316178352505050506109e4565b5060008160000160006101000a81548160ff0219169083151502179055506105c66108d4565b73ffffffffffffffffffffffffffffffffffffffff168273ffffffffffffffffffffffffffffffffffffffff1614610633576040517f08c379a000000000000000000000000000000000000000000000000000000000815260040161062a90610e3e565b60405180910390fd5b61063c85610ad2565b5b5050505050565b600033905090565b6000609760009054906101000a900473ffffffffffffffffffffffffffffffffffffffff16905081609760006101000a81548173ffffffffffffffffffffffffffffffffffffffff021916908373ffffffffffffffffffffffffffffffffffffffff1602179055508173ffffffffffffffffffffffffffffffffffffffff168173ffffffffffffffffffffffffffffffffffffffff167f8be0079c531659141344cd1fd0a4f28419497f9722a3daafe3b4186f6b6457e060405160405180910390a35050565b600060019054906101000a900460ff1680610738575060008054906101000a900460ff16155b610777576040517f08c379a000000000000000000000000000000000000000000000000000000000815260040161076e90610e7e565b60405180910390fd5b60008060019054906101000a900460ff1615905080156107c7576001600060016101000a81548160ff02191690831515021790555060016000806101000a81548160ff0219169083151502179055505b80156107e85760008060016101000a81548160ff0219169083151502179055505b50565b600060019054906101000a900460ff1680610811575060008054906101000a900460ff16155b610850576040517f08c379a000000000000000000000000000000000000000000000000000000000815260040161084790610e7e565b60405180910390fd5b60008060019054906101000a900460ff1615905080156108a0576001600060016101000a81548160ff02191690831515021790555060016000806101000a81548160ff0219169083151502179055505b6108b06108ab610644565b61064c565b80156108d15760008060016101000a81548160ff0219169083151502179055505b50565b60006109027f360894a13ba1a3210667c828492db98dca3e2076cc3735a920a3ca505d382bbc60001b610b21565b60000160009054906101000a900473ffffffffffffffffffffffffffffffffffffffff16905090565b61093481610b2b565b610973576040517f08c379a000000000000000000000000000000000000000000000000000000000815260040161096a90610e9e565b60405180910390fd5b806109a07f360894a13ba1a3210667c828492db98dca3e2076cc3735a920a3ca505d382bbc60001b610b21565b60000160006101000a81548173ffffffffffffffffffffffffffffffffffffffff021916908373ffffffffffffffffffffffffffffffffffffffff16021790555050565b60606109ef83610b2b565b610a2e576040517f08c379a0000000000000000000000000000000000000000000000000000000008152600401610a2590610ede565b60405180910390fd5b6000808473ffffffffffffffffffffffffffffffffffffffff1684604051610a569190610dea565b600060405180830381855af49150503d8060008114610a91576040519150601f19603f3d011682016040523d82523d6000602084013e610a96565b606091505b5091509150610abe828260405180606001604052806027815260200161123760279139610b3e565b9250505092915050565b6000819050919050565b610adb8161092b565b8073ffffffffffffffffffffffffffffffffffffffff167fbc7cd75a20ee27fd9adebab32041f755214dbc6bffa90cc0225b39da2e5c2d3b60405160405180910390a250565b6000819050919050565b600080823b905060008111915050919050565b60608315610b4e57829050610b9e565b600083511115610b615782518084602001fd5b816040517f08c379a0000000000000000000000000000000000000000000000000000000008152600401610b959190610e1c565b60405180910390fd5b9392505050565b6000610bb8610bb384610f23565b610efe565b905082815260208101848484011115610bd057600080fd5b610bdb848285610fb8565b509392505050565b600081359050610bf28161121f565b92915050565b600082601f830112610c0957600080fd5b8135610c19848260208601610ba5565b91505092915050565b600060208284031215610c3457600080fd5b6000610c4284828501610be3565b91505092915050565b60008060408385031215610c5e57600080fd5b6000610c6c85828601610be3565b925050602083013567ffffffffffffffff811115610c8957600080fd5b610c9585828601610bf8565b9150509250929050565b610ca881610f86565b82525050565b6000610cb982610f54565b610cc38185610f6a565b9350610cd3818560208601610fc7565b80840191505092915050565b6000610cea82610f5f565b610cf48185610f75565b9350610d04818560208601610fc7565b610d0d8161105a565b840191505092915050565b6000610d25602f83610f75565b9150610d308261106b565b604082019050919050565b6000610d48602683610f75565b9150610d53826110ba565b604082019050919050565b6000610d6b602e83610f75565b9150610d7682611109565b604082019050919050565b6000610d8e602d83610f75565b9150610d9982611158565b604082019050919050565b6000610db1602083610f75565b9150610dbc826111a7565b602082019050919050565b6000610dd4602683610f75565b9150610ddf826111d0565b604082019050919050565b6000610df68284610cae565b915081905092915050565b6000602082019050610e166000830184610c9f565b92915050565b60006020820190508181036000830152610e368184610cdf565b905092915050565b60006020820190508181036000830152610e5781610d18565b9050919050565b60006020820190508181036000830152610e7781610d3b565b9050919050565b60006020820190508181036000830152610e9781610d5e565b9050919050565b60006020820190508181036000830152610eb781610d81565b9050919050565b60006020820190508181036000830152610ed781610da4565b9050919050565b60006020820190508181036000830152610ef781610dc7565b9050919050565b6000610f08610f19565b9050610f148282610ffa565b919050565b6000604051905090565b600067ffffffffffffffff821115610f3e57610f3d61102b565b5b610f478261105a565b9050602081019050919050565b600081519050919050565b600081519050919050565b600081905092915050565b600082825260208201905092915050565b6000610f9182610f98565b9050919050565b600073ffffffffffffffffffffffffffffffffffffffff82169050919050565b82818337600083830152505050565b60005b83811015610fe5578082015181840152602081019050610fca565b83811115610ff4576000848401525b50505050565b6110038261105a565b810181811067ffffffffffffffff821117156110225761102161102b565b5b80604052505050565b7f4e487b7100000000000000000000000000000000000000000000000000000000600052604160045260246000fd5b6000601f19601f8301169050919050565b7f45524331393637557067726164653a207570677261646520627265616b73206660008201527f7572746865722075706772616465730000000000000000000000000000000000602082015250565b7f4f776e61626c653a206e6577206f776e657220697320746865207a65726f206160008201527f6464726573730000000000000000000000000000000000000000000000000000602082015250565b7f496e697469616c697a61626c653a20636f6e747261637420697320616c72656160008201527f647920696e697469616c697a6564000000000000000000000000000000000000602082015250565b7f455243313936373a206e657720696d706c656d656e746174696f6e206973206e60008201527f6f74206120636f6e747261637400000000000000000000000000000000000000602082015250565b7f4f776e61626c653a2063616c6c6572206973206e6f7420746865206f776e6572600082015250565b7f416464726573733a2064656c65676174652063616c6c20746f206e6f6e2d636f60008201527f6e74726163740000000000000000000000000000000000000000000000000000602082015250565b61122881610f86565b811461123357600080fd5b5056fe416464726573733a206c6f772d6c6576656c2064656c65676174652063616c6c206661696c6564a2646970667358221220a40df6be677eb463987ccb96a560813b1584513143696341f8bfdf7f12c58ce464736f6c63430008040033",
  "linkReferences": {},
  "deployedLinkReferences": {}
}