{
  "_format": "hh-sol-artifact-1",
  "contractName": "CashierContractV2Old",
  "sourceName": "contracts/CashierContractv2-old.sol",
  "abi": [
    {
      "anonymous": false,
      "inputs": [
        {
          "indexed": false,
          "internalType": "address",
          "name": "previousAdmin",
          "type": "address"
        },
        {
          "indexed": false,
          "internalType": "address",
          "name": "newAdmin",
          "type": "address"
        }
      ],
      "name": "AdminChanged",
      "type": "event"
    },
    {
      "anonymous": false,
      "inputs": [
        {
          "indexed": true,
          "internalType": "address",
          "name": "beacon",
          "type": "address"
        }
      ],
      "name": "BeaconUpgraded",
      "type": "event"
    },
    {
      "anonymous": false,
      "inputs": [
        {
          "indexed": true,
          "internalType": "address",
          "name": "from",
          "type": "address"
        },
        {
          "indexed": false,
          "internalType": "uint256",
          "name": "value",
          "type": "uint256"
        }
      ],
      "name": "Deposit",
      "type": "event"
    },
    {
      "anonymous": false,
      "inputs": [
        {
          "indexed": false,
          "internalType": "address",
          "name": "holder",
          "type": "address"
        },
        {
          "indexed": false,
          "internalType": "uint256",
          "name": "tokenId",
          "type": "uint256"
        },
        {
          "indexed": false,
          "internalType": "string",
          "name": "tokenURI",
          "type": "string"
        }
      ],
      "name": "NewTokenMinted",
      "type": "event"
    },
    {
      "anonymous": false,
      "inputs": [
        {
          "indexed": true,
          "internalType": "address",
          "name": "previousOwner",
          "type": "address"
        },
        {
          "indexed": true,
          "internalType": "address",
          "name": "newOwner",
          "type": "address"
        }
      ],
      "name": "OwnershipTransferred",
      "type": "event"
    },
    {
      "anonymous": false,
      "inputs": [
        {
          "indexed": true,
          "internalType": "address",
          "name": "from",
          "type": "address"
        },
        {
          "indexed": true,
          "internalType": "address",
          "name": "to",
          "type": "address"
        },
        {
          "indexed": false,
          "internalType": "uint256",
          "name": "value",
          "type": "uint256"
        }
      ],
      "name": "TransferCashier",
      "type": "event"
    },
    {
      "anonymous": false,
      "inputs": [
        {
          "indexed": true,
          "internalType": "address",
          "name": "implementation",
          "type": "address"
        }
      ],
      "name": "Upgraded",
      "type": "event"
    },
    {
      "anonymous": false,
      "inputs": [
        {
          "indexed": true,
          "internalType": "address",
          "name": "from",
          "type": "address"
        },
        {
          "indexed": false,
          "internalType": "uint256",
          "name": "value",
          "type": "uint256"
        }
      ],
      "name": "Withdraw",
      "type": "event"
    },
    {
      "inputs": [],
      "name": "_trust_contract",
      "outputs": [
        {
          "internalType": "address",
          "name": "",
          "type": "address"
        }
      ],
      "stateMutability": "view",
      "type": "function"
    },
    {
      "inputs": [
        {
          "internalType": "address",
          "name": "acc",
          "type": "address"
        }
      ],
      "name": "balanceOf",
      "outputs": [
        {
          "internalType": "uint256",
          "name": "",
          "type": "uint256"
        }
      ],
      "stateMutability": "view",
      "type": "function"
    },
    {
      "inputs": [],
      "name": "deposit",
      "outputs": [],
      "stateMutability": "payable",
      "type": "function"
    },
    {
      "inputs": [],
      "name": "initialize",
      "outputs": [],
      "stateMutability": "nonpayable",
      "type": "function"
    },
    {
      "inputs": [],
      "name": "owner",
      "outputs": [
        {
          "internalType": "address",
          "name": "",
          "type": "address"
        }
      ],
      "stateMutability": "view",
      "type": "function"
    },
    {
      "inputs": [
        {
          "internalType": "address",
          "name": "nftOwner",
          "type": "address"
        },
        {
          "internalType": "bytes",
          "name": "nftSettings",
          "type": "bytes"
        },
        {
          "internalType": "bytes",
          "name": "nftSettingsSigned",
          "type": "bytes"
        },
        {
          "internalType": "bytes",
          "name": "attestationData",
          "type": "bytes"
        },
        {
          "internalType": "bytes",
          "name": "attestationDataSigned",
          "type": "bytes"
        }
      ],
      "name": "purchase",
      "outputs": [],
      "stateMutability": "nonpayable",
      "type": "function"
    },
    {
      "inputs": [
        {
          "internalType": "bytes32",
          "name": "ethSignedMessageHash",
          "type": "bytes32"
        },
        {
          "internalType": "bytes",
          "name": "signature",
          "type": "bytes"
        }
      ],
      "name": "recoverSigner",
      "outputs": [
        {
          "internalType": "address",
          "name": "",
          "type": "address"
        }
      ],
      "stateMutability": "pure",
      "type": "function"
    },
    {
      "inputs": [],
      "name": "renounceOwnership",
      "outputs": [],
      "stateMutability": "nonpayable",
      "type": "function"
    },
    {
      "inputs": [
        {
          "internalType": "address",
          "name": "tt_contract",
          "type": "address"
        }
      ],
      "name": "setTrustTokenAddress",
      "outputs": [],
      "stateMutability": "nonpayable",
      "type": "function"
    },
    {
      "inputs": [
        {
          "internalType": "bytes",
          "name": "attestationData",
          "type": "bytes"
        },
        {
          "internalType": "bytes",
          "name": "attestationDataSigned",
          "type": "bytes"
        }
      ],
      "name": "splitAttestationData",
      "outputs": [
        {
          "internalType": "bool",
          "name": "",
          "type": "bool"
        }
      ],
      "stateMutability": "pure",
      "type": "function"
    },
    {
      "inputs": [
        {
          "internalType": "bytes",
          "name": "nftSettings",
          "type": "bytes"
        },
        {
          "internalType": "bytes",
          "name": "nftSettingsSigned",
          "type": "bytes"
        }
      ],
      "name": "splitNftSettings",
      "outputs": [
        {
          "internalType": "address",
          "name": "provider",
          "type": "address"
        },
        {
          "internalType": "uint256",
          "name": "nftPrice",
          "type": "uint256"
        }
      ],
      "stateMutability": "view",
      "type": "function"
    },
    {
      "inputs": [
        {
          "internalType": "bytes",
          "name": "sig",
          "type": "bytes"
        }
      ],
      "name": "splitSignature",
      "outputs": [
        {
          "internalType": "uint8",
          "name": "v",
          "type": "uint8"
        },
        {
          "internalType": "bytes32",
          "name": "r",
          "type": "bytes32"
        },
        {
          "internalType": "bytes32",
          "name": "s",
          "type": "bytes32"
        }
      ],
      "stateMutability": "pure",
      "type": "function"
    },
    {
      "inputs": [
        {
          "internalType": "address",
          "name": "recipient",
          "type": "address"
        },
        {
          "internalType": "uint256",
          "name": "amount",
          "type": "uint256"
        }
      ],
      "name": "transfer",
      "outputs": [],
      "stateMutability": "nonpayable",
      "type": "function"
    },
    {
      "inputs": [
        {
          "internalType": "address",
          "name": "newOwner",
          "type": "address"
        }
      ],
      "name": "transferOwnership",
      "outputs": [],
      "stateMutability": "nonpayable",
      "type": "function"
    },
    {
      "inputs": [
        {
          "internalType": "address",
          "name": "newImplementation",
          "type": "address"
        }
      ],
      "name": "upgradeTo",
      "outputs": [],
      "stateMutability": "nonpayable",
      "type": "function"
    },
    {
      "inputs": [
        {
          "internalType": "address",
          "name": "newImplementation",
          "type": "address"
        },
        {
          "internalType": "bytes",
          "name": "data",
          "type": "bytes"
        }
      ],
      "name": "upgradeToAndCall",
      "outputs": [],
      "stateMutability": "payable",
      "type": "function"
    },
    {
      "inputs": [
        {
          "internalType": "address",
          "name": "signer",
          "type": "address"
        },
        {
          "internalType": "bytes32",
          "name": "hash_key_array",
          "type": "bytes32"
        },
        {
          "internalType": "string",
          "name": "token_uri",
          "type": "string"
        },
        {
          "internalType": "bytes32",
          "name": "hashed_data",
          "type": "bytes32"
        },
        {
          "internalType": "bytes2",
          "name": "nft_type",
          "type": "bytes2"
        },
        {
          "internalType": "bytes",
          "name": "signature",
          "type": "bytes"
        }
      ],
      "name": "verifyAttestationData",
      "outputs": [
        {
          "internalType": "bool",
          "name": "",
          "type": "bool"
        }
      ],
      "stateMutability": "pure",
      "type": "function"
    },
    {
      "inputs": [
        {
          "internalType": "bytes",
          "name": "attestationData",
          "type": "bytes"
        },
        {
          "internalType": "bytes",
          "name": "signature",
          "type": "bytes"
        },
        {
          "internalType": "address",
          "name": "signer",
          "type": "address"
        }
      ],
      "name": "verifyEncodedAttestationData",
      "outputs": [
        {
          "internalType": "bool",
          "name": "",
          "type": "bool"
        }
      ],
      "stateMutability": "pure",
      "type": "function"
    },
    {
      "inputs": [
        {
          "internalType": "bytes",
          "name": "nftSettings",
          "type": "bytes"
        },
        {
          "internalType": "bytes",
          "name": "nftSettingsSigned",
          "type": "bytes"
        },
        {
          "internalType": "address",
          "name": "provider",
          "type": "address"
        }
      ],
      "name": "verifyEncodedNftSettings",
      "outputs": [
        {
          "internalType": "bool",
          "name": "",
          "type": "bool"
        }
      ],
      "stateMutability": "pure",
      "type": "function"
    },
    {
      "inputs": [
        {
          "internalType": "bytes2",
          "name": "nft_type",
          "type": "bytes2"
        },
        {
          "internalType": "bool",
          "name": "nft_perpetuity",
          "type": "bool"
        },
        {
          "internalType": "uint256",
          "name": "nft_price",
          "type": "uint256"
        },
        {
          "internalType": "uint256",
          "name": "nft_expiration",
          "type": "uint256"
        },
        {
          "internalType": "address",
          "name": "nft_provider",
          "type": "address"
        },
        {
          "internalType": "bytes",
          "name": "signature",
          "type": "bytes"
        }
      ],
      "name": "verifyNFTSettings",
      "outputs": [
        {
          "internalType": "bool",
          "name": "",
          "type": "bool"
        }
      ],
      "stateMutability": "pure",
      "type": "function"
    },
    {
      "inputs": [
        {
          "internalType": "uint256",
          "name": "amount",
          "type": "uint256"
        }
      ],
      "name": "withdraw",
      "outputs": [],
      "stateMutability": "payable",
      "type": "function"
    },
    {
      "stateMutability": "payable",
      "type": "receive"
    }
  ],
  "bytecode": "0x608060405234801561001057600080fd5b506133e1806100206000396000f3fe60806040526004361061012e5760003560e01c806397aba7f9116100ab578063cf1fd4bf1161006f578063cf1fd4bf146103e9578063d0e30db014610426578063d7a4b78614610430578063f2f3646d14610459578063f2fde38b14610496578063ffd182bd146104bf5761013d565b806397aba7f9146102ca578063a680b42e14610307578063a7bb580314610344578063a9059cbb14610383578063bf908177146103ac5761013d565b80636d1f8c34116100f25780636d1f8c341461020b57806370a0823114610234578063715018a6146102715780638129fc1c146102885780638da5cb5b1461029f5761013d565b806306b499f1146101425780632e1a7d4d1461017f5780633659cfe61461019b5780634f1ef286146101c457806368aa37fc146101e05761013d565b3661013d5761013b6104fd565b005b600080fd5b34801561014e57600080fd5b5061016960048036038101906101649190611fe5565b6106a2565b60405161017691906129cc565b60405180910390f35b61019960048036038101906101949190612426565b610745565b005b3480156101a757600080fd5b506101c260048036038101906101bd9190611eb6565b6108a9565b005b6101de60048036038101906101d9919061209e565b6108d0565b005b3480156101ec57600080fd5b506101f56108e9565b6040516102029190612905565b60405180910390f35b34801561021757600080fd5b50610232600480360381019061022d9190611eb6565b61090f565b005b34801561024057600080fd5b5061025b60048036038101906102569190611eb6565b610953565b6040516102689190612bee565b60405180910390f35b34801561027d57600080fd5b5061028661099c565b005b34801561029457600080fd5b5061029d610a24565b005b3480156102ab57600080fd5b506102b4610b0d565b6040516102c19190612905565b60405180910390f35b3480156102d657600080fd5b506102f160048036038101906102ec91906122a6565b610b37565b6040516102fe9190612905565b60405180910390f35b34801561031357600080fd5b5061032e600480360381019061032991906123a7565b610ba6565b60405161033b91906129cc565b60405180910390f35b34801561035057600080fd5b5061036b600480360381019061036691906122fa565b610c21565b60405161037a93929190612c09565b60405180910390f35b34801561038f57600080fd5b506103aa60048036038101906103a591906121c9565b610c89565b005b3480156103b857600080fd5b506103d360048036038101906103ce9190612205565b610c9f565b6040516103e091906129cc565b60405180910390f35b3480156103f557600080fd5b50610410600480360381019061040b919061233b565b610d44565b60405161041d91906129cc565b60405180910390f35b61042e6104fd565b005b34801561043c57600080fd5b50610457600480360381019061045291906120f2565b610d7d565b005b34801561046557600080fd5b50610480600480360381019061047b91906123a7565b610ef4565b60405161048d91906129cc565b60405180910390f35b3480156104a257600080fd5b506104bd60048036038101906104b89190611eb6565b610f6f565b005b3480156104cb57600080fd5b506104e660048036038101906104e1919061233b565b611067565b6040516104f4929190612965565b60405180910390f35b60006105136064346111b990919063ffffffff16565b90506105678160c960003073ffffffffffffffffffffffffffffffffffffffff1673ffffffffffffffffffffffffffffffffffffffff168152602001908152602001600020546111cf90919063ffffffff16565b60c960003073ffffffffffffffffffffffffffffffffffffffff1673ffffffffffffffffffffffffffffffffffffffff1681526020019081526020016000208190555061060e6105c082346111e590919063ffffffff16565b60c960003373ffffffffffffffffffffffffffffffffffffffff1673ffffffffffffffffffffffffffffffffffffffff168152602001908152602001600020546111cf90919063ffffffff16565b60c960003373ffffffffffffffffffffffffffffffffffffffff1673ffffffffffffffffffffffffffffffffffffffff168152602001908152602001600020819055503373ffffffffffffffffffffffffffffffffffffffff167fe1fffcc4923d04b559f4d29a8bfc6cda04eb5b0d3c460751c2402c5c5cc9109c346040516106979190612bee565b60405180910390a250565b600080868686866040516020016106bc949392919061287e565b6040516020818303038152906040528051906020012090506000816040516020016106e791906128df565b6040516020818303038152906040528051906020012090508873ffffffffffffffffffffffffffffffffffffffff166107208286610b37565b73ffffffffffffffffffffffffffffffffffffffff1614925050509695505050505050565b6107ce816040518060400160405280601081526020017f6e6f7420656e6f7567682066756e64730000000000000000000000000000000081525060c960003373ffffffffffffffffffffffffffffffffffffffff1673ffffffffffffffffffffffffffffffffffffffff168152602001908152602001600020546111fb9092919063ffffffff16565b60c960003373ffffffffffffffffffffffffffffffffffffffff1673ffffffffffffffffffffffffffffffffffffffff168152602001908152602001600020819055503373ffffffffffffffffffffffffffffffffffffffff166108fc829081150290604051600060405180830381858888f19350505050158015610857573d6000803e3d6000fd5b503373ffffffffffffffffffffffffffffffffffffffff167f884edad9ce6fa2440d8a54cc123490eb96d2768479d49ff9c7366125a94243648260405161089e9190612bee565b60405180910390a250565b6108b281611250565b6108cd816040518060200160405280600081525060006112cf565b50565b6108d982611250565b6108e5828260016112cf565b5050565b60ca60009054906101000a900473ffffffffffffffffffffffffffffffffffffffff1681565b8060ca60006101000a81548173ffffffffffffffffffffffffffffffffffffffff021916908373ffffffffffffffffffffffffffffffffffffffff16021790555050565b600060c960008373ffffffffffffffffffffffffffffffffffffffff1673ffffffffffffffffffffffffffffffffffffffff168152602001908152602001600020549050919050565b6109a46114a0565b73ffffffffffffffffffffffffffffffffffffffff166109c2610b0d565b73ffffffffffffffffffffffffffffffffffffffff1614610a18576040517f08c379a0000000000000000000000000000000000000000000000000000000008152600401610a0f90612b6e565b60405180910390fd5b610a2260006114a8565b565b600060019054906101000a900460ff1680610a4a575060008054906101000a900460ff16155b610a89576040517f08c379a0000000000000000000000000000000000000000000000000000000008152600401610a8090612b0e565b60405180910390fd5b60008060019054906101000a900460ff161590508015610ad9576001600060016101000a81548160ff02191690831515021790555060016000806101000a81548160ff0219169083151502179055505b610ae161156e565b610ae9611647565b8015610b0a5760008060016101000a81548160ff0219169083151502179055505b50565b6000609760009054906101000a900473ffffffffffffffffffffffffffffffffffffffff16905090565b600080600080610b4685610c21565b92509250925060018684848460405160008152602001604052604051610b6f94939291906129e7565b6020604051602081039080840390855afa158015610b91573d6000803e3d6000fd5b50505060206040510351935050505092915050565b60008084805190602001209050600081604051602001610bc691906128df565b6040516020818303038152906040528051906020012090508373ffffffffffffffffffffffffffffffffffffffff16610bff8287610b37565b73ffffffffffffffffffffffffffffffffffffffff1614925050509392505050565b60008060006041845114610c6a576040517f08c379a0000000000000000000000000000000000000000000000000000000008152600401610c6190612bae565b60405180910390fd5b6020840151915060408401519050606084015160001a92509193909250565b610c9b610c946114a0565b8383611730565b5050565b6000808787878787604051602001610cbb95949392919061281f565b604051602081830303815290604052805190602001209050600081604051602001610ce691906128df565b6040516020818303038152906040528051906020012090508473ffffffffffffffffffffffffffffffffffffffff16610d1f8286610b37565b73ffffffffffffffffffffffffffffffffffffffff1614925050509695505050505050565b60008083806020019051810190610d5b9190611f56565b9091925090915090505080915050610d74848483610ef4565b91505092915050565b600080610d8a8686611067565b8092508193505050610d9c8484610d44565b610ddb576040517f08c379a0000000000000000000000000000000000000000000000000000000008152600401610dd290612aee565b60405180910390fd5b610de6338383611730565b600060ca60009054906101000a900473ffffffffffffffffffffffffffffffffffffffff169050600060608273ffffffffffffffffffffffffffffffffffffffff16633e08290b8b8b8a6040518463ffffffff1660e01b8152600401610e4e93929190612920565b600060405180830381600087803b158015610e6857600080fd5b505af1158015610e7c573d6000803e3d6000fd5b505050506040513d6000823e3d601f19601f82011682018060405250810190610ea5919061244f565b80925081935050507f2d24f75bda933872c0f42ae2dac2587c338242ee6773228d6d07669a832067d08a8383604051610ee09392919061298e565b60405180910390a150505050505050505050565b60008084805190602001209050600081604051602001610f1491906128df565b6040516020818303038152906040528051906020012090508373ffffffffffffffffffffffffffffffffffffffff16610f4d8287610b37565b73ffffffffffffffffffffffffffffffffffffffff1614925050509392505050565b610f776114a0565b73ffffffffffffffffffffffffffffffffffffffff16610f95610b0d565b73ffffffffffffffffffffffffffffffffffffffff1614610feb576040517f08c379a0000000000000000000000000000000000000000000000000000000008152600401610fe290612b6e565b60405180910390fd5b600073ffffffffffffffffffffffffffffffffffffffff168173ffffffffffffffffffffffffffffffffffffffff16141561105b576040517f08c379a000000000000000000000000000000000000000000000000000000000815260040161105290612ace565b60405180910390fd5b611064816114a8565b50565b6000806000806000806000888060200190518101906110869190611edf565b80955081965082975083985084995050505050504281116110dc576040517f08c379a00000000000000000000000000000000000000000000000000000000081526004016110d390612bce565b60405180910390fd5b8260c960003373ffffffffffffffffffffffffffffffffffffffff1673ffffffffffffffffffffffffffffffffffffffff168152602001908152602001600020541161115d576040517f08c379a000000000000000000000000000000000000000000000000000000000815260040161115490612a4e565b60405180910390fd5b611168898987610ba6565b6111a7576040517f08c379a000000000000000000000000000000000000000000000000000000000815260040161119e90612a8e565b60405180910390fd5b84839650965050505050509250929050565b600081836111c79190612d6b565b905092915050565b600081836111dd9190612d15565b905092915050565b600081836111f39190612d9c565b905092915050565b6000838311158290611243576040517f08c379a000000000000000000000000000000000000000000000000000000000815260040161123a9190612a2c565b60405180910390fd5b5082840390509392505050565b6112586114a0565b73ffffffffffffffffffffffffffffffffffffffff16611276610b0d565b73ffffffffffffffffffffffffffffffffffffffff16146112cc576040517f08c379a00000000000000000000000000000000000000000000000000000000081526004016112c390612b6e565b60405180910390fd5b50565b60006112d96119db565b90506112e484611a32565b6000835111806112f15750815b15611302576113008484611aeb565b505b60006113307f4910fdfa16fed3260ed0e7147f7cc6da11a60208b5b9406d12a635614ffd914360001b611bcf565b90508060000160009054906101000a900460ff166114995760018160000160006101000a81548160ff0219169083151502179055506113fc858360405160240161137a9190612905565b6040516020818303038152906040527f3659cfe6000000000000000000000000000000000000000000000000000000007bffffffffffffffffffffffffffffffffffffffffffffffffffffffff19166020820180517bffffffffffffffffffffffffffffffffffffffffffffffffffffffff8381831617835250505050611aeb565b5060008160000160006101000a81548160ff0219169083151502179055506114226119db565b73ffffffffffffffffffffffffffffffffffffffff168273ffffffffffffffffffffffffffffffffffffffff161461148f576040517f08c379a000000000000000000000000000000000000000000000000000000000815260040161148690612aae565b60405180910390fd5b61149885611bd9565b5b5050505050565b600033905090565b6000609760009054906101000a900473ffffffffffffffffffffffffffffffffffffffff16905081609760006101000a81548173ffffffffffffffffffffffffffffffffffffffff021916908373ffffffffffffffffffffffffffffffffffffffff1602179055508173ffffffffffffffffffffffffffffffffffffffff168173ffffffffffffffffffffffffffffffffffffffff167f8be0079c531659141344cd1fd0a4f28419497f9722a3daafe3b4186f6b6457e060405160405180910390a35050565b600060019054906101000a900460ff1680611594575060008054906101000a900460ff16155b6115d3576040517f08c379a00000000000000000000000000000000000000000000000000000000081526004016115ca90612b0e565b60405180910390fd5b60008060019054906101000a900460ff161590508015611623576001600060016101000a81548160ff02191690831515021790555060016000806101000a81548160ff0219169083151502179055505b80156116445760008060016101000a81548160ff0219169083151502179055505b50565b600060019054906101000a900460ff168061166d575060008054906101000a900460ff16155b6116ac576040517f08c379a00000000000000000000000000000000000000000000000000000000081526004016116a390612b0e565b60405180910390fd5b60008060019054906101000a900460ff1615905080156116fc576001600060016101000a81548160ff02191690831515021790555060016000806101000a81548160ff0219169083151502179055505b61170c6117076114a0565b6114a8565b801561172d5760008060016101000a81548160ff0219169083151502179055505b50565b600073ffffffffffffffffffffffffffffffffffffffff168373ffffffffffffffffffffffffffffffffffffffff1614156117a0576040517f08c379a000000000000000000000000000000000000000000000000000000000815260040161179790612a6e565b60405180910390fd5b600073ffffffffffffffffffffffffffffffffffffffff168273ffffffffffffffffffffffffffffffffffffffff161415611810576040517f08c379a000000000000000000000000000000000000000000000000000000000815260040161180790612b2e565b60405180910390fd5b611899816040518060400160405280601f81526020017f7472616e7366657220616d6f756e7420657863656564732062616c616e63650081525060c960008773ffffffffffffffffffffffffffffffffffffffff1673ffffffffffffffffffffffffffffffffffffffff168152602001908152602001600020546111fb9092919063ffffffff16565b60c960008573ffffffffffffffffffffffffffffffffffffffff1673ffffffffffffffffffffffffffffffffffffffff1681526020019081526020016000208190555061192e8160c960008573ffffffffffffffffffffffffffffffffffffffff1673ffffffffffffffffffffffffffffffffffffffff168152602001908152602001600020546111cf90919063ffffffff16565b60c960008473ffffffffffffffffffffffffffffffffffffffff1673ffffffffffffffffffffffffffffffffffffffff168152602001908152602001600020819055508173ffffffffffffffffffffffffffffffffffffffff168373ffffffffffffffffffffffffffffffffffffffff167f17bfc199658ee2e42b8e7cac3d9caff24e78dfd915fcfa0c640ad043e37ab278836040516119ce9190612bee565b60405180910390a3505050565b6000611a097f360894a13ba1a3210667c828492db98dca3e2076cc3735a920a3ca505d382bbc60001b611c28565b60000160009054906101000a900473ffffffffffffffffffffffffffffffffffffffff16905090565b611a3b81611c32565b611a7a576040517f08c379a0000000000000000000000000000000000000000000000000000000008152600401611a7190612b4e565b60405180910390fd5b80611aa77f360894a13ba1a3210667c828492db98dca3e2076cc3735a920a3ca505d382bbc60001b611c28565b60000160006101000a81548173ffffffffffffffffffffffffffffffffffffffff021916908373ffffffffffffffffffffffffffffffffffffffff16021790555050565b6060611af683611c32565b611b35576040517f08c379a0000000000000000000000000000000000000000000000000000000008152600401611b2c90612b8e565b60405180910390fd5b6000808473ffffffffffffffffffffffffffffffffffffffff1684604051611b5d91906128c8565b600060405180830381855af49150503d8060008114611b98576040519150601f19603f3d011682016040523d82523d6000602084013e611b9d565b606091505b5091509150611bc5828260405180606001604052806027815260200161338560279139611c45565b9250505092915050565b6000819050919050565b611be281611a32565b8073ffffffffffffffffffffffffffffffffffffffff167fbc7cd75a20ee27fd9adebab32041f755214dbc6bffa90cc0225b39da2e5c2d3b60405160405180910390a250565b6000819050919050565b600080823b905060008111915050919050565b60608315611c5557829050611ca5565b600083511115611c685782518084602001fd5b816040517f08c379a0000000000000000000000000000000000000000000000000000000008152600401611c9c9190612a2c565b60405180910390fd5b9392505050565b6000611cbf611cba84612c65565b612c40565b905082815260208101848484011115611cd757600080fd5b611ce2848285612e6d565b509392505050565b6000611cfd611cf884612c96565b612c40565b905082815260208101848484011115611d1557600080fd5b611d20848285612e6d565b509392505050565b6000611d3b611d3684612c96565b612c40565b905082815260208101848484011115611d5357600080fd5b611d5e848285612e7c565b509392505050565b600081359050611d75816132fa565b92915050565b600081519050611d8a81613311565b92915050565b600081359050611d9f81613328565b92915050565b600081519050611db481613328565b92915050565b600081359050611dc98161333f565b92915050565b600081519050611dde8161333f565b92915050565b600081359050611df381613356565b92915050565b600081519050611e0881613356565b92915050565b600082601f830112611e1f57600080fd5b8135611e2f848260208601611cac565b91505092915050565b600082601f830112611e4957600080fd5b8135611e59848260208601611cea565b91505092915050565b600082601f830112611e7357600080fd5b8151611e83848260208601611d28565b91505092915050565b600081359050611e9b8161336d565b92915050565b600081519050611eb08161336d565b92915050565b600060208284031215611ec857600080fd5b6000611ed684828501611d66565b91505092915050565b600080600080600060a08688031215611ef757600080fd5b6000611f0588828901611d7b565b9550506020611f1688828901611da5565b9450506040611f2788828901611ea1565b9350506060611f3888828901611dcf565b9250506080611f4988828901611ea1565b9150509295509295909350565b600080600080600060a08688031215611f6e57600080fd5b6000611f7c88828901611d7b565b9550506020611f8d88828901611df9565b945050604086015167ffffffffffffffff811115611faa57600080fd5b611fb688828901611e62565b9350506060611fc788828901611df9565b9250506080611fd888828901611dcf565b9150509295509295909350565b60008060008060008060c08789031215611ffe57600080fd5b600061200c89828a01611d66565b965050602061201d89828a01611de4565b955050604087013567ffffffffffffffff81111561203a57600080fd5b61204689828a01611e38565b945050606061205789828a01611de4565b935050608061206889828a01611dba565b92505060a087013567ffffffffffffffff81111561208557600080fd5b61209189828a01611e0e565b9150509295509295509295565b600080604083850312156120b157600080fd5b60006120bf85828601611d66565b925050602083013567ffffffffffffffff8111156120dc57600080fd5b6120e885828601611e0e565b9150509250929050565b600080600080600060a0868803121561210a57600080fd5b600061211888828901611d66565b955050602086013567ffffffffffffffff81111561213557600080fd5b61214188828901611e0e565b945050604086013567ffffffffffffffff81111561215e57600080fd5b61216a88828901611e0e565b935050606086013567ffffffffffffffff81111561218757600080fd5b61219388828901611e0e565b925050608086013567ffffffffffffffff8111156121b057600080fd5b6121bc88828901611e0e565b9150509295509295909350565b600080604083850312156121dc57600080fd5b60006121ea85828601611d66565b92505060206121fb85828601611e8c565b9150509250929050565b60008060008060008060c0878903121561221e57600080fd5b600061222c89828a01611dba565b965050602061223d89828a01611d90565b955050604061224e89828a01611e8c565b945050606061225f89828a01611e8c565b935050608061227089828a01611d66565b92505060a087013567ffffffffffffffff81111561228d57600080fd5b61229989828a01611e0e565b9150509295509295509295565b600080604083850312156122b957600080fd5b60006122c785828601611de4565b925050602083013567ffffffffffffffff8111156122e457600080fd5b6122f085828601611e0e565b9150509250929050565b60006020828403121561230c57600080fd5b600082013567ffffffffffffffff81111561232657600080fd5b61233284828501611e0e565b91505092915050565b6000806040838503121561234e57600080fd5b600083013567ffffffffffffffff81111561236857600080fd5b61237485828601611e0e565b925050602083013567ffffffffffffffff81111561239157600080fd5b61239d85828601611e0e565b9150509250929050565b6000806000606084860312156123bc57600080fd5b600084013567ffffffffffffffff8111156123d657600080fd5b6123e286828701611e0e565b935050602084013567ffffffffffffffff8111156123ff57600080fd5b61240b86828701611e0e565b925050604061241c86828701611d66565b9150509250925092565b60006020828403121561243857600080fd5b600061244684828501611e8c565b91505092915050565b6000806040838503121561246257600080fd5b600061247085828601611ea1565b925050602083015167ffffffffffffffff81111561248d57600080fd5b61249985828601611e62565b9150509250929050565b6124ac81612dd0565b82525050565b6124c36124be82612dd0565b612ee0565b82525050565b6124d281612df4565b82525050565b6124e96124e482612df4565b612ef2565b82525050565b6125006124fb82612e00565b612f04565b82525050565b61250f81612e2c565b82525050565b61252661252182612e2c565b612f0e565b82525050565b600061253782612cc7565b6125418185612cdd565b9350612551818560208601612e7c565b61255a81612fd3565b840191505092915050565b600061257082612cc7565b61257a8185612cee565b935061258a818560208601612e7c565b80840191505092915050565b60006125a182612cd2565b6125ab8185612cf9565b93506125bb818560208601612e7c565b6125c481612fd3565b840191505092915050565b60006125da82612cd2565b6125e48185612d0a565b93506125f4818560208601612e7c565b80840191505092915050565b600061260d602083612cf9565b915061261882612ffe565b602082019050919050565b6000612630601a83612cf9565b915061263b82613027565b602082019050919050565b6000612653601c83612d0a565b915061265e82613050565b601c82019050919050565b6000612676601083612cf9565b915061268182613079565b602082019050919050565b6000612699602f83612cf9565b91506126a4826130a2565b604082019050919050565b60006126bc602683612cf9565b91506126c7826130f1565b604082019050919050565b60006126df601483612cf9565b91506126ea82613140565b602082019050919050565b6000612702602e83612cf9565b915061270d82613169565b604082019050919050565b6000612725601883612cf9565b9150612730826131b8565b602082019050919050565b6000612748602d83612cf9565b9150612753826131e1565b604082019050919050565b600061276b602083612cf9565b915061277682613230565b602082019050919050565b600061278e602683612cf9565b915061279982613259565b604082019050919050565b60006127b1601883612cf9565b91506127bc826132a8565b602082019050919050565b60006127d4601483612cf9565b91506127df826132d1565b602082019050919050565b6127f381612e56565b82525050565b61280a61280582612e56565b612f2a565b82525050565b61281981612e60565b82525050565b600061282b82886124ef565b60028201915061283b82876124d8565b60018201915061284b82866127f9565b60208201915061285b82856127f9565b60208201915061286b82846124b2565b6014820191508190509695505050505050565b600061288a8287612515565b60208201915061289a82866125cf565b91506128a68285612515565b6020820191506128b682846124ef565b60028201915081905095945050505050565b60006128d48284612565565b915081905092915050565b60006128ea82612646565b91506128f68284612515565b60208201915081905092915050565b600060208201905061291a60008301846124a3565b92915050565b600060608201905061293560008301866124a3565b8181036020830152612947818561252c565b9050818103604083015261295b818461252c565b9050949350505050565b600060408201905061297a60008301856124a3565b61298760208301846127ea565b9392505050565b60006060820190506129a360008301866124a3565b6129b060208301856127ea565b81810360408301526129c28184612596565b9050949350505050565b60006020820190506129e160008301846124c9565b92915050565b60006080820190506129fc6000830187612506565b612a096020830186612810565b612a166040830185612506565b612a236060830184612506565b95945050505050565b60006020820190508181036000830152612a468184612596565b905092915050565b60006020820190508181036000830152612a6781612600565b9050919050565b60006020820190508181036000830152612a8781612623565b9050919050565b60006020820190508181036000830152612aa781612669565b9050919050565b60006020820190508181036000830152612ac78161268c565b9050919050565b60006020820190508181036000830152612ae7816126af565b9050919050565b60006020820190508181036000830152612b07816126d2565b9050919050565b60006020820190508181036000830152612b27816126f5565b9050919050565b60006020820190508181036000830152612b4781612718565b9050919050565b60006020820190508181036000830152612b678161273b565b9050919050565b60006020820190508181036000830152612b878161275e565b9050919050565b60006020820190508181036000830152612ba781612781565b9050919050565b60006020820190508181036000830152612bc7816127a4565b9050919050565b60006020820190508181036000830152612be7816127c7565b9050919050565b6000602082019050612c0360008301846127ea565b92915050565b6000606082019050612c1e6000830186612810565b612c2b6020830185612506565b612c386040830184612506565b949350505050565b6000612c4a612c5b565b9050612c568282612eaf565b919050565b6000604051905090565b600067ffffffffffffffff821115612c8057612c7f612fa4565b5b612c8982612fd3565b9050602081019050919050565b600067ffffffffffffffff821115612cb157612cb0612fa4565b5b612cba82612fd3565b9050602081019050919050565b600081519050919050565b600081519050919050565b600082825260208201905092915050565b600081905092915050565b600082825260208201905092915050565b600081905092915050565b6000612d2082612e56565b9150612d2b83612e56565b9250827fffffffffffffffffffffffffffffffffffffffffffffffffffffffffffffffff03821115612d6057612d5f612f46565b5b828201905092915050565b6000612d7682612e56565b9150612d8183612e56565b925082612d9157612d90612f75565b5b828204905092915050565b6000612da782612e56565b9150612db283612e56565b925082821015612dc557612dc4612f46565b5b828203905092915050565b6000612ddb82612e36565b9050919050565b6000612ded82612e36565b9050919050565b60008115159050919050565b60007fffff00000000000000000000000000000000000000000000000000000000000082169050919050565b6000819050919050565b600073ffffffffffffffffffffffffffffffffffffffff82169050919050565b6000819050919050565b600060ff82169050919050565b82818337600083830152505050565b60005b83811015612e9a578082015181840152602081019050612e7f565b83811115612ea9576000848401525b50505050565b612eb882612fd3565b810181811067ffffffffffffffff82111715612ed757612ed6612fa4565b5b80604052505050565b6000612eeb82612f18565b9050919050565b6000612efd82612f34565b9050919050565b6000819050919050565b6000819050919050565b6000612f2382612ff1565b9050919050565b6000819050919050565b6000612f3f82612fe4565b9050919050565b7f4e487b7100000000000000000000000000000000000000000000000000000000600052601160045260246000fd5b7f4e487b7100000000000000000000000000000000000000000000000000000000600052601260045260246000fd5b7f4e487b7100000000000000000000000000000000000000000000000000000000600052604160045260246000fd5b6000601f19601f8301169050919050565b60008160f81b9050919050565b60008160601b9050919050565b7f43616c6c657220646f65736e2774206861766520656e6f7567682066756e6473600082015250565b7f7472616e736665722066726f6d207a65726f2061646472657373000000000000600082015250565b7f19457468657265756d205369676e6564204d6573736167653a0a333200000000600082015250565b7f426164204e46542053657474696e677300000000000000000000000000000000600082015250565b7f45524331393637557067726164653a207570677261646520627265616b73206660008201527f7572746865722075706772616465730000000000000000000000000000000000602082015250565b7f4f776e61626c653a206e6577206f776e657220697320746865207a65726f206160008201527f6464726573730000000000000000000000000000000000000000000000000000602082015250565b7f426164204174746573746174696f6e2064617461000000000000000000000000600082015250565b7f496e697469616c697a61626c653a20636f6e747261637420697320616c72656160008201527f647920696e697469616c697a6564000000000000000000000000000000000000602082015250565b7f7472616e7366657220746f207a65726f20616464726573730000000000000000600082015250565b7f455243313936373a206e657720696d706c656d656e746174696f6e206973206e60008201527f6f74206120636f6e747261637400000000000000000000000000000000000000602082015250565b7f4f776e61626c653a2063616c6c6572206973206e6f7420746865206f776e6572600082015250565b7f416464726573733a2064656c65676174652063616c6c20746f206e6f6e2d636f60008201527f6e74726163740000000000000000000000000000000000000000000000000000602082015250565b7f696e76616c6964207369676e6174757265206c656e6774680000000000000000600082015250565b7f45787069726564204e46542053657474696e6773000000000000000000000000600082015250565b61330381612dd0565b811461330e57600080fd5b50565b61331a81612de2565b811461332557600080fd5b50565b61333181612df4565b811461333c57600080fd5b50565b61334881612e00565b811461335357600080fd5b50565b61335f81612e2c565b811461336a57600080fd5b50565b61337681612e56565b811461338157600080fd5b5056fe416464726573733a206c6f772d6c6576656c2064656c65676174652063616c6c206661696c6564a26469706673582212204b450a8204dc5eddd3fbcb962041d75954ec1d72492acbb4b27957f9721cbc3764736f6c63430008040033",
  "linkReferences": {},
  "deployedLinkReferences": {}
}