{
  "_format": "hh-sol-artifact-1",
  "contractName": "CashierContractV2",
  "sourceName": "contracts/CashierContractv2.sol",
  "abi": [
    {
      "anonymous": false,
      "inputs": [
        {
          "indexed": false,
          "internalType": "address",
          "name": "previousAdmin",
          "type": "address"
        },
        {
          "indexed": false,
          "internalType": "address",
          "name": "newAdmin",
          "type": "address"
        }
      ],
      "name": "AdminChanged",
      "type": "event"
    },
    {
      "anonymous": false,
      "inputs": [
        {
          "indexed": true,
          "internalType": "address",
          "name": "beacon",
          "type": "address"
        }
      ],
      "name": "BeaconUpgraded",
      "type": "event"
    },
    {
      "anonymous": false,
      "inputs": [
        {
          "indexed": true,
          "internalType": "address",
          "name": "from",
          "type": "address"
        },
        {
          "indexed": false,
          "internalType": "uint256",
          "name": "value",
          "type": "uint256"
        }
      ],
      "name": "Deposit",
      "type": "event"
    },
    {
      "anonymous": false,
      "inputs": [
        {
          "indexed": true,
          "internalType": "address",
          "name": "holder",
          "type": "address"
        },
        {
          "indexed": true,
          "internalType": "uint256",
          "name": "tokenId",
          "type": "uint256"
        },
        {
          "indexed": false,
          "internalType": "string",
          "name": "tokenURI",
          "type": "string"
        }
      ],
      "name": "NewTokenMinted",
      "type": "event"
    },
    {
      "anonymous": false,
      "inputs": [
        {
          "indexed": true,
          "internalType": "address",
          "name": "previousOwner",
          "type": "address"
        },
        {
          "indexed": true,
          "internalType": "address",
          "name": "newOwner",
          "type": "address"
        }
      ],
      "name": "OwnershipTransferred",
      "type": "event"
    },
    {
      "anonymous": false,
      "inputs": [
        {
          "indexed": false,
          "internalType": "address",
          "name": "payer",
          "type": "address"
        },
        {
          "indexed": true,
          "internalType": "address",
          "name": "receiver",
          "type": "address"
        },
        {
          "indexed": true,
          "internalType": "uint256",
          "name": "amount",
          "type": "uint256"
        },
        {
          "indexed": true,
          "internalType": "uint256",
          "name": "nonce",
          "type": "uint256"
        }
      ],
      "name": "Payment",
      "type": "event"
    },
    {
      "anonymous": false,
      "inputs": [
        {
          "indexed": true,
          "internalType": "address",
          "name": "from",
          "type": "address"
        },
        {
          "indexed": true,
          "internalType": "address",
          "name": "to",
          "type": "address"
        },
        {
          "indexed": false,
          "internalType": "uint256",
          "name": "value",
          "type": "uint256"
        }
      ],
      "name": "TransferCashier",
      "type": "event"
    },
    {
      "anonymous": false,
      "inputs": [
        {
          "indexed": true,
          "internalType": "address",
          "name": "implementation",
          "type": "address"
        }
      ],
      "name": "Upgraded",
      "type": "event"
    },
    {
      "anonymous": false,
      "inputs": [
        {
          "indexed": true,
          "internalType": "address",
          "name": "from",
          "type": "address"
        },
        {
          "indexed": false,
          "internalType": "uint256",
          "name": "value",
          "type": "uint256"
        }
      ],
      "name": "Withdraw",
      "type": "event"
    },
    {
      "inputs": [
        {
          "internalType": "address",
          "name": "add",
          "type": "address"
        }
      ],
      "name": "balanceOf",
      "outputs": [
        {
          "internalType": "uint256",
          "name": "",
          "type": "uint256"
        }
      ],
      "stateMutability": "view",
      "type": "function"
    },
    {
      "inputs": [],
      "name": "cashierPercentage",
      "outputs": [
        {
          "internalType": "uint256",
          "name": "",
          "type": "uint256"
        }
      ],
      "stateMutability": "view",
      "type": "function"
    },
    {
      "inputs": [
        {
          "internalType": "uint256",
          "name": "pow",
          "type": "uint256"
        },
        {
          "internalType": "address",
          "name": "customer",
          "type": "address"
        },
        {
          "internalType": "bytes",
          "name": "message",
          "type": "bytes"
        },
        {
          "internalType": "bytes",
          "name": "signature",
          "type": "bytes"
        }
      ],
      "name": "deposit",
      "outputs": [],
      "stateMutability": "nonpayable",
      "type": "function"
    },
    {
      "inputs": [],
      "name": "enginePercentage",
      "outputs": [
        {
          "internalType": "uint256",
          "name": "",
          "type": "uint256"
        }
      ],
      "stateMutability": "view",
      "type": "function"
    },
    {
      "inputs": [
        {
          "internalType": "address",
          "name": "add",
          "type": "address"
        }
      ],
      "name": "getLastNonce",
      "outputs": [
        {
          "internalType": "uint256",
          "name": "",
          "type": "uint256"
        }
      ],
      "stateMutability": "view",
      "type": "function"
    },
    {
      "inputs": [],
      "name": "getProofOfWork",
      "outputs": [
        {
          "internalType": "uint256",
          "name": "",
          "type": "uint256"
        }
      ],
      "stateMutability": "view",
      "type": "function"
    },
    {
      "inputs": [],
      "name": "initialize",
      "outputs": [],
      "stateMutability": "nonpayable",
      "type": "function"
    },
    {
      "inputs": [
        {
          "internalType": "address",
          "name": "",
          "type": "address"
        }
      ],
      "name": "lastNonce",
      "outputs": [
        {
          "internalType": "uint256",
          "name": "",
          "type": "uint256"
        }
      ],
      "stateMutability": "view",
      "type": "function"
    },
    {
      "inputs": [
        {
          "internalType": "uint256",
          "name": "nonce",
          "type": "uint256"
        },
        {
          "internalType": "address",
          "name": "customer",
          "type": "address"
        },
        {
          "internalType": "bytes",
          "name": "message",
          "type": "bytes"
        },
        {
          "internalType": "bytes",
          "name": "signature",
          "type": "bytes"
        }
      ],
      "name": "nftMint",
      "outputs": [],
      "stateMutability": "nonpayable",
      "type": "function"
    },
    {
      "inputs": [
        {
          "internalType": "uint256",
          "name": "pow",
          "type": "uint256"
        },
        {
          "internalType": "address",
          "name": "customer",
          "type": "address"
        },
        {
          "internalType": "bytes",
          "name": "message",
          "type": "bytes"
        },
        {
          "internalType": "bytes",
          "name": "signature",
          "type": "bytes"
        }
      ],
      "name": "nftTransfer",
      "outputs": [],
      "stateMutability": "nonpayable",
      "type": "function"
    },
    {
      "inputs": [],
      "name": "owner",
      "outputs": [
        {
          "internalType": "address",
          "name": "",
          "type": "address"
        }
      ],
      "stateMutability": "view",
      "type": "function"
    },
    {
      "inputs": [
        {
          "internalType": "uint256",
          "name": "pow",
          "type": "uint256"
        },
        {
          "internalType": "address",
          "name": "customer",
          "type": "address"
        },
        {
          "internalType": "bytes",
          "name": "message",
          "type": "bytes"
        },
        {
          "internalType": "bytes",
          "name": "signature",
          "type": "bytes"
        }
      ],
      "name": "payment",
      "outputs": [],
      "stateMutability": "nonpayable",
      "type": "function"
    },
    {
      "inputs": [],
      "name": "pmtnContract",
      "outputs": [
        {
          "internalType": "address",
          "name": "",
          "type": "address"
        }
      ],
      "stateMutability": "view",
      "type": "function"
    },
    {
      "inputs": [],
      "name": "pmtnDecimals",
      "outputs": [
        {
          "internalType": "uint256",
          "name": "",
          "type": "uint256"
        }
      ],
      "stateMutability": "view",
      "type": "function"
    },
    {
      "inputs": [
        {
          "internalType": "bytes32",
          "name": "ethSignedMessageHash",
          "type": "bytes32"
        },
        {
          "internalType": "bytes",
          "name": "signature",
          "type": "bytes"
        }
      ],
      "name": "recoverSigner",
      "outputs": [
        {
          "internalType": "address",
          "name": "",
          "type": "address"
        }
      ],
      "stateMutability": "pure",
      "type": "function"
    },
    {
      "inputs": [],
      "name": "renounceOwnership",
      "outputs": [],
      "stateMutability": "nonpayable",
      "type": "function"
    },
    {
      "inputs": [
        {
          "internalType": "uint256",
          "name": "amount",
          "type": "uint256"
        }
      ],
      "name": "setCashierPercentage",
      "outputs": [],
      "stateMutability": "nonpayable",
      "type": "function"
    },
    {
      "inputs": [
        {
          "internalType": "address",
          "name": "erc20_contract",
          "type": "address"
        }
      ],
      "name": "setERC20TokenAddress",
      "outputs": [],
      "stateMutability": "nonpayable",
      "type": "function"
    },
    {
      "inputs": [
        {
          "internalType": "uint256",
          "name": "amount",
          "type": "uint256"
        }
      ],
      "name": "setEnginePercentage",
      "outputs": [],
      "stateMutability": "nonpayable",
      "type": "function"
    },
    {
      "inputs": [
        {
          "internalType": "uint256",
          "name": "proof",
          "type": "uint256"
        }
      ],
      "name": "setLeadingZeros",
      "outputs": [],
      "stateMutability": "nonpayable",
      "type": "function"
    },
    {
      "inputs": [
        {
          "internalType": "uint256",
          "name": "decimals",
          "type": "uint256"
        }
      ],
      "name": "setPMTNDecimals",
      "outputs": [],
      "stateMutability": "nonpayable",
      "type": "function"
    },
    {
      "inputs": [
        {
          "internalType": "address",
          "name": "tt_contract",
          "type": "address"
        }
      ],
      "name": "setTrustTokenAddress",
      "outputs": [],
      "stateMutability": "nonpayable",
      "type": "function"
    },
    {
      "inputs": [
        {
          "internalType": "address",
          "name": "ap",
          "type": "address"
        },
        {
          "internalType": "bytes",
          "name": "attestationData",
          "type": "bytes"
        },
        {
          "internalType": "bytes",
          "name": "attestationDataSigned",
          "type": "bytes"
        }
      ],
      "name": "splitAttestationData",
      "outputs": [
        {
          "internalType": "bool",
          "name": "",
          "type": "bool"
        },
        {
          "internalType": "address",
          "name": "",
          "type": "address"
        }
      ],
      "stateMutability": "pure",
      "type": "function"
    },
    {
      "inputs": [
        {
          "internalType": "bytes",
          "name": "nftSettings",
          "type": "bytes"
        },
        {
          "internalType": "bytes",
          "name": "nftSettingsSigned",
          "type": "bytes"
        }
      ],
      "name": "splitNftSettings",
      "outputs": [
        {
          "internalType": "address",
          "name": "",
          "type": "address"
        },
        {
          "internalType": "uint256",
          "name": "",
          "type": "uint256"
        }
      ],
      "stateMutability": "view",
      "type": "function"
    },
    {
      "inputs": [
        {
          "internalType": "bytes",
          "name": "sig",
          "type": "bytes"
        }
      ],
      "name": "splitSignature",
      "outputs": [
        {
          "internalType": "uint8",
          "name": "v",
          "type": "uint8"
        },
        {
          "internalType": "bytes32",
          "name": "r",
          "type": "bytes32"
        },
        {
          "internalType": "bytes32",
          "name": "s",
          "type": "bytes32"
        }
      ],
      "stateMutability": "pure",
      "type": "function"
    },
    {
      "inputs": [
        {
          "internalType": "uint256",
          "name": "pow",
          "type": "uint256"
        },
        {
          "internalType": "address",
          "name": "customer",
          "type": "address"
        },
        {
          "internalType": "bytes",
          "name": "message",
          "type": "bytes"
        },
        {
          "internalType": "bytes",
          "name": "signature",
          "type": "bytes"
        }
      ],
      "name": "transfer",
      "outputs": [],
      "stateMutability": "nonpayable",
      "type": "function"
    },
    {
      "inputs": [
        {
          "internalType": "address",
          "name": "newOwner",
          "type": "address"
        }
      ],
      "name": "transferOwnership",
      "outputs": [],
      "stateMutability": "nonpayable",
      "type": "function"
    },
    {
      "inputs": [],
      "name": "trustContract",
      "outputs": [
        {
          "internalType": "address",
          "name": "",
          "type": "address"
        }
      ],
      "stateMutability": "view",
      "type": "function"
    },
    {
      "inputs": [
        {
          "internalType": "address",
          "name": "newImplementation",
          "type": "address"
        }
      ],
      "name": "upgradeTo",
      "outputs": [],
      "stateMutability": "nonpayable",
      "type": "function"
    },
    {
      "inputs": [
        {
          "internalType": "address",
          "name": "newImplementation",
          "type": "address"
        },
        {
          "internalType": "bytes",
          "name": "data",
          "type": "bytes"
        }
      ],
      "name": "upgradeToAndCall",
      "outputs": [],
      "stateMutability": "payable",
      "type": "function"
    },
    {
      "inputs": [
        {
          "internalType": "uint256",
          "name": "nonce",
          "type": "uint256"
        }
      ],
      "name": "verifyPoW",
      "outputs": [
        {
          "internalType": "bool",
          "name": "",
          "type": "bool"
        }
      ],
      "stateMutability": "view",
      "type": "function"
    },
    {
      "inputs": [
        {
          "internalType": "bytes",
          "name": "messageToHash",
          "type": "bytes"
        },
        {
          "internalType": "bytes",
          "name": "signature",
          "type": "bytes"
        },
        {
          "internalType": "address",
          "name": "signer",
          "type": "address"
        }
      ],
      "name": "verifySignature",
      "outputs": [
        {
          "internalType": "bool",
          "name": "",
          "type": "bool"
        }
      ],
      "stateMutability": "pure",
      "type": "function"
    },
    {
      "inputs": [
        {
          "internalType": "uint256",
          "name": "pow",
          "type": "uint256"
        },
        {
          "internalType": "address",
          "name": "customer",
          "type": "address"
        },
        {
          "internalType": "bytes",
          "name": "message",
          "type": "bytes"
        },
        {
          "internalType": "bytes",
          "name": "signature",
          "type": "bytes"
        }
      ],
      "name": "withdraw",
      "outputs": [],
      "stateMutability": "nonpayable",
      "type": "function"
    },
    {
      "stateMutability": "payable",
      "type": "receive"
    }
  ],
  "bytecode": "0x608060405234801561001057600080fd5b5061581980620000216000396000f3fe6080604052600436106101f25760003560e01c806395a853d41161010d578063c0fd43b4116100a0578063f2fde38b1161006f578063f2fde38b146106f6578063f52ced571461071f578063f98746281461074a578063fd99a36514610775578063ffd182bd1461079e576101f9565b8063c0fd43b41461063e578063c64eaa2d1461067b578063c9111bd7146106a4578063eae483c5146106cd576101f9565b8063a7bb5803116100dc578063a7bb58031461056e578063b009fdd5146105ad578063b0e6608f146105ea578063b67a71a114610615576101f9565b806395a853d41461049d57806397aba7f9146104c8578063a29260db14610505578063a58a2add14610543576101f9565b806370a0823111610185578063802bc8af11610154578063802bc8af146103f55780638129fc1c1461043257806386fdd597146104495780638da5cb5b14610472576101f9565b806370a082311461033b578063715018a614610378578063786568da1461038f57806378bc195c146103cc576101f9565b80634f1ef286116101c15780634f1ef286146102a2578063664edb80146102be57806369a71a81146102e75780636d1f8c3414610312576101f9565b806311731cb2146101fe5780633659cfe61461022757806336a223661461025057806337ffe62614610279576101f9565b366101f957005b600080fd5b34801561020a57600080fd5b50610225600480360381019061022091906141d2565b6107dc565b005b34801561023357600080fd5b5061024e60048036038101906102499190613c4f565b610a5f565b005b34801561025c57600080fd5b50610277600480360381019061027291906141d2565b610a86565b005b34801561028557600080fd5b506102a0600480360381019061029b91906141a9565b610e63565b005b6102bc60048036038101906102b79190613f2d565b610ee9565b005b3480156102ca57600080fd5b506102e560048036038101906102e091906141d2565b610f02565b005b3480156102f357600080fd5b506102fc6110e9565b6040516103099190614c20565b60405180910390f35b34801561031e57600080fd5b5061033960048036038101906103349190613c4f565b6110ef565b005b34801561034757600080fd5b50610362600480360381019061035d9190613c4f565b6111af565b60405161036f9190614c20565b60405180910390f35b34801561038457600080fd5b5061038d6111f8565b005b34801561039b57600080fd5b506103b660048036038101906103b1919061412a565b611280565b6040516103c39190614875565b60405180910390f35b3480156103d857600080fd5b506103f360048036038101906103ee91906141d2565b6112fb565b005b34801561040157600080fd5b5061041c600480360381019061041791906141a9565b611627565b6040516104299190614875565b60405180910390f35b34801561043e57600080fd5b50610447611703565b005b34801561045557600080fd5b50610470600480360381019061046b91906141a9565b6117ec565b005b34801561047e57600080fd5b50610487611872565b60405161049491906147b5565b60405180910390f35b3480156104a957600080fd5b506104b261189c565b6040516104bf91906147b5565b60405180910390f35b3480156104d457600080fd5b506104ef60048036038101906104ea9190614029565b6118c2565b6040516104fc91906147b5565b60405180910390f35b34801561051157600080fd5b5061052c60048036038101906105279190613f81565b611931565b60405161053a929190614890565b60405180910390f35b34801561054f57600080fd5b50610558611a51565b6040516105659190614c20565b60405180910390f35b34801561057a57600080fd5b506105956004803603810190610590919061407d565b611a5b565b6040516105a493929190614c3b565b60405180910390f35b3480156105b957600080fd5b506105d460048036038101906105cf9190613c4f565b611ac3565b6040516105e19190614c20565b60405180910390f35b3480156105f657600080fd5b506105ff611b0c565b60405161060c9190614c20565b60405180910390f35b34801561062157600080fd5b5061063c600480360381019061063791906141a9565b611b12565b005b34801561064a57600080fd5b5061066560048036038101906106609190613c4f565b611b98565b6040516106729190614c20565b60405180910390f35b34801561068757600080fd5b506106a2600480360381019061069d91906141d2565b611bb0565b005b3480156106b057600080fd5b506106cb60048036038101906106c691906141d2565b611d0d565b005b3480156106d957600080fd5b506106f460048036038101906106ef9190613c4f565b611f90565b005b34801561070257600080fd5b5061071d60048036038101906107189190613c4f565b612050565b005b34801561072b57600080fd5b50610734612148565b60405161074191906147b5565b60405180910390f35b34801561075657600080fd5b5061075f61216e565b60405161076c9190614c20565b60405180910390f35b34801561078157600080fd5b5061079c600480360381019061079791906141a9565b612174565b005b3480156107aa57600080fd5b506107c560048036038101906107c091906140be565b6121fa565b6040516107d392919061484c565b60405180910390f35b6107e584611627565b610824576040517f08c379a000000000000000000000000000000000000000000000000000000000815260040161081b906149a0565b60405180910390fd5b61082f828285611280565b61086e576040517f08c379a000000000000000000000000000000000000000000000000000000000815260040161086590614a80565b60405180910390fd5b60008060008480602001905181019061088791906142b9565b8093508194508295505050503073ffffffffffffffffffffffffffffffffffffffff168173ffffffffffffffffffffffffffffffffffffffff1614610901576040517f08c379a00000000000000000000000000000000000000000000000000000000081526004016108f890614960565b60405180910390fd5b60d060008773ffffffffffffffffffffffffffffffffffffffff1673ffffffffffffffffffffffffffffffffffffffff168152602001908152602001600020600083815260200190815260200160002060009054906101000a900460ff161561099f576040517f08c379a000000000000000000000000000000000000000000000000000000000815260040161099690614c00565b60405180910390fd5b600160d060008873ffffffffffffffffffffffffffffffffffffffff1673ffffffffffffffffffffffffffffffffffffffff168152602001908152602001600020600084815260200190815260200160002060006101000a81548160ff0219169083151502179055508160d160008873ffffffffffffffffffffffffffffffffffffffff1673ffffffffffffffffffffffffffffffffffffffff16815260200190815260200160002081905550610a5683876122c4565b50505050505050565b610a688161271d565b610a838160405180602001604052806000815250600061279c565b50565b610a8f84611627565b610ace576040517f08c379a0000000000000000000000000000000000000000000000000000000008152600401610ac5906149a0565b60405180910390fd5b610ad9828285611280565b610b18576040517f08c379a0000000000000000000000000000000000000000000000000000000008152600401610b0f90614a80565b60405180910390fd5b600080600080600086806020019051810190610b349190613eb6565b80955081965082975083985084995050505050503073ffffffffffffffffffffffffffffffffffffffff168173ffffffffffffffffffffffffffffffffffffffff1614610bb6576040517f08c379a0000000000000000000000000000000000000000000000000000000008152600401610bad90614960565b60405180910390fd5b60d060008973ffffffffffffffffffffffffffffffffffffffff1673ffffffffffffffffffffffffffffffffffffffff168152602001908152602001600020600083815260200190815260200160002060009054906101000a900460ff1615610c54576040517f08c379a0000000000000000000000000000000000000000000000000000000008152600401610c4b90614ba0565b60405180910390fd5b60d060008673ffffffffffffffffffffffffffffffffffffffff1673ffffffffffffffffffffffffffffffffffffffff168152602001908152602001600020600084815260200190815260200160002060009054906101000a900460ff1615610cf2576040517f08c379a0000000000000000000000000000000000000000000000000000000008152600401610ce990614980565b60405180910390fd5b600160d060008a73ffffffffffffffffffffffffffffffffffffffff1673ffffffffffffffffffffffffffffffffffffffff168152602001908152602001600020600084815260200190815260200160002060006101000a81548160ff021916908315150217905550600160d060008773ffffffffffffffffffffffffffffffffffffffff1673ffffffffffffffffffffffffffffffffffffffff168152602001908152602001600020600085815260200190815260200160002060006101000a81548160ff0219169083151502179055508160d160008a73ffffffffffffffffffffffffffffffffffffffff1673ffffffffffffffffffffffffffffffffffffffff168152602001908152602001600020819055508260d160008773ffffffffffffffffffffffffffffffffffffffff1673ffffffffffffffffffffffffffffffffffffffff16815260200190815260200160002081905550610e588886868661296d565b505050505050505050565b610e6b612bb7565b73ffffffffffffffffffffffffffffffffffffffff16610e89611872565b73ffffffffffffffffffffffffffffffffffffffff1614610edf576040517f08c379a0000000000000000000000000000000000000000000000000000000008152600401610ed690614b20565b60405180910390fd5b8060cf8190555050565b610ef28261271d565b610efe8282600161279c565b5050565b610f0b84611627565b610f4a576040517f08c379a0000000000000000000000000000000000000000000000000000000008152600401610f41906149a0565b60405180910390fd5b610f55828285611280565b610f94576040517f08c379a0000000000000000000000000000000000000000000000000000000008152600401610f8b90614b80565b60405180910390fd5b60008060608060608087806020019051810190610fb19190613d6a565b809650819750829850839950849a50859b5050505050505060d260003373ffffffffffffffffffffffffffffffffffffffff1673ffffffffffffffffffffffffffffffffffffffff168152602001908152602001600020600086815260200190815260200160002060009054906101000a900460ff1615611067576040517f08c379a000000000000000000000000000000000000000000000000000000000815260040161105e90614b40565b60405180910390fd5b600160d260003373ffffffffffffffffffffffffffffffffffffffff1673ffffffffffffffffffffffffffffffffffffffff168152602001908152602001600020600087815260200190815260200160002060006101000a81548160ff0219169083151502179055506110dd8685858585612bbf565b50505050505050505050565b60cc5481565b6110f7612bb7565b73ffffffffffffffffffffffffffffffffffffffff16611115611872565b73ffffffffffffffffffffffffffffffffffffffff161461116b576040517f08c379a000000000000000000000000000000000000000000000000000000000815260040161116290614b20565b60405180910390fd5b8060ca60006101000a81548173ffffffffffffffffffffffffffffffffffffffff021916908373ffffffffffffffffffffffffffffffffffffffff16021790555050565b600060c960008373ffffffffffffffffffffffffffffffffffffffff1673ffffffffffffffffffffffffffffffffffffffff168152602001908152602001600020549050919050565b611200612bb7565b73ffffffffffffffffffffffffffffffffffffffff1661121e611872565b73ffffffffffffffffffffffffffffffffffffffff1614611274576040517f08c379a000000000000000000000000000000000000000000000000000000000815260040161126b90614b20565b60405180910390fd5b61127e6000612d4e565b565b600080848051906020012090506000816040516020016112a0919061478f565b6040516020818303038152906040528051906020012090508373ffffffffffffffffffffffffffffffffffffffff166112d982876118c2565b73ffffffffffffffffffffffffffffffffffffffff1614925050509392505050565b61130484611627565b611343576040517f08c379a000000000000000000000000000000000000000000000000000000000815260040161133a906149a0565b60405180910390fd5b61134e828285611280565b61138d576040517f08c379a000000000000000000000000000000000000000000000000000000000815260040161138490614a80565b60405180910390fd5b600080600080858060200190518101906113a79190613e53565b809450819550829650839750505050503073ffffffffffffffffffffffffffffffffffffffff168173ffffffffffffffffffffffffffffffffffffffff1614611425576040517f08c379a000000000000000000000000000000000000000000000000000000000815260040161141c90614960565b60405180910390fd5b60d060008873ffffffffffffffffffffffffffffffffffffffff1673ffffffffffffffffffffffffffffffffffffffff168152602001908152602001600020600083815260200190815260200160002060009054906101000a900460ff16156114c3576040517f08c379a00000000000000000000000000000000000000000000000000000000081526004016114ba90614c00565b60405180910390fd5b600160d060008973ffffffffffffffffffffffffffffffffffffffff1673ffffffffffffffffffffffffffffffffffffffff168152602001908152602001600020600084815260200190815260200160002060006101000a81548160ff0219169083151502179055508160d160008973ffffffffffffffffffffffffffffffffffffffff1673ffffffffffffffffffffffffffffffffffffffff1681526020019081526020016000208190555060006115a1670de0b6b3a764000061159360cd5487612e1490919063ffffffff16565b612e2a90919063ffffffff16565b905060006115d4670de0b6b3a76400006115c660ce5488612e1490919063ffffffff16565b612e2a90919063ffffffff16565b90506116058987611600846115f2878b612e4090919063ffffffff16565b612e4090919063ffffffff16565b612e56565b611610893383612e56565b61161b893084612e56565b50505050505050505050565b600080338360405160200161163d92919061484c565b60405160208183030381529060405280519060200120905060008060009050600091505b60cf548210156116f4576000801b8383602081106116a8577f4e487b7100000000000000000000000000000000000000000000000000000000600052603260045260246000fd5b1a60f81b7effffffffffffffffffffffffffffffffffffffffffffffffffffffffffffff191614156116e35780806116df906150dd565b9150505b816116ed906150dd565b9150611661565b60cf5481149350505050919050565b600060019054906101000a900460ff1680611729575060008054906101000a900460ff16155b611768576040517f08c379a000000000000000000000000000000000000000000000000000000000815260040161175f90614aa0565b60405180910390fd5b60008060019054906101000a900460ff1615905080156117b8576001600060016101000a81548160ff02191690831515021790555060016000806101000a81548160ff0219169083151502179055505b6117c0613101565b6117c86131da565b80156117e95760008060016101000a81548160ff0219169083151502179055505b50565b6117f4612bb7565b73ffffffffffffffffffffffffffffffffffffffff16611812611872565b73ffffffffffffffffffffffffffffffffffffffff1614611868576040517f08c379a000000000000000000000000000000000000000000000000000000000815260040161185f90614b20565b60405180910390fd5b8060cd8190555050565b6000609760009054906101000a900473ffffffffffffffffffffffffffffffffffffffff16905090565b60ca60009054906101000a900473ffffffffffffffffffffffffffffffffffffffff1681565b6000806000806118d185611a5b565b925092509250600186848484604051600081526020016040526040516118fa94939291906148b9565b6020604051602081039080840390855afa15801561191c573d6000803e3d6000fd5b50505060206040510351935050505092915050565b6000806000808580602001905181019061194b9190613c78565b90915090505080925081935050508673ffffffffffffffffffffffffffffffffffffffff168273ffffffffffffffffffffffffffffffffffffffff16146119c7576040517f08c379a00000000000000000000000000000000000000000000000000000000081526004016119be90614a40565b60405180910390fd5b600073ffffffffffffffffffffffffffffffffffffffff168173ffffffffffffffffffffffffffffffffffffffff161415611a37576040517f08c379a0000000000000000000000000000000000000000000000000000000008152600401611a2e90614ae0565b60405180910390fd5b611a42868684611280565b81935093505050935093915050565b600060cf54905090565b60008060006041845114611aa4576040517f08c379a0000000000000000000000000000000000000000000000000000000008152600401611a9b90614bc0565b60405180910390fd5b6020840151915060408401519050606084015160001a92509193909250565b600060d160008373ffffffffffffffffffffffffffffffffffffffff1673ffffffffffffffffffffffffffffffffffffffff168152602001908152602001600020549050919050565b60ce5481565b611b1a612bb7565b73ffffffffffffffffffffffffffffffffffffffff16611b38611872565b73ffffffffffffffffffffffffffffffffffffffff1614611b8e576040517f08c379a0000000000000000000000000000000000000000000000000000000008152600401611b8590614b20565b60405180910390fd5b8060cc8190555050565b60d16020528060005260406000206000915090505481565b611bb984611627565b611bf8576040517f08c379a0000000000000000000000000000000000000000000000000000000008152600401611bef906149a0565b60405180910390fd5b611c03828285611280565b611c42576040517f08c379a0000000000000000000000000000000000000000000000000000000008152600401611c3990614a80565b60405180910390fd5b60008060008085806020019051810190611c5c9190613e53565b80945081955082965083975050505050600060ca60009054906101000a900473ffffffffffffffffffffffffffffffffffffffff1690508073ffffffffffffffffffffffffffffffffffffffff16633859a3fe8987876040518463ffffffff1660e01b8152600401611cd0939291906147d0565b600060405180830381600087803b158015611cea57600080fd5b505af1158015611cfe573d6000803e3d6000fd5b50505050505050505050505050565b611d1684611627565b611d55576040517f08c379a0000000000000000000000000000000000000000000000000000000008152600401611d4c906149a0565b60405180910390fd5b611d60828285611280565b611d9f576040517f08c379a0000000000000000000000000000000000000000000000000000000008152600401611d9690614a80565b60405180910390fd5b600080600084806020019051810190611db891906142b9565b8093508194508295505050503073ffffffffffffffffffffffffffffffffffffffff168173ffffffffffffffffffffffffffffffffffffffff1614611e32576040517f08c379a0000000000000000000000000000000000000000000000000000000008152600401611e2990614960565b60405180910390fd5b60d060008773ffffffffffffffffffffffffffffffffffffffff1673ffffffffffffffffffffffffffffffffffffffff168152602001908152602001600020600083815260200190815260200160002060009054906101000a900460ff1615611ed0576040517f08c379a0000000000000000000000000000000000000000000000000000000008152600401611ec790614c00565b60405180910390fd5b600160d060008873ffffffffffffffffffffffffffffffffffffffff1673ffffffffffffffffffffffffffffffffffffffff168152602001908152602001600020600084815260200190815260200160002060006101000a81548160ff0219169083151502179055508160d160008873ffffffffffffffffffffffffffffffffffffffff1673ffffffffffffffffffffffffffffffffffffffff16815260200190815260200160002081905550611f8783876132c3565b50505050505050565b611f98612bb7565b73ffffffffffffffffffffffffffffffffffffffff16611fb6611872565b73ffffffffffffffffffffffffffffffffffffffff161461200c576040517f08c379a000000000000000000000000000000000000000000000000000000000815260040161200390614b20565b60405180910390fd5b8060cb60006101000a81548173ffffffffffffffffffffffffffffffffffffffff021916908373ffffffffffffffffffffffffffffffffffffffff16021790555050565b612058612bb7565b73ffffffffffffffffffffffffffffffffffffffff16612076611872565b73ffffffffffffffffffffffffffffffffffffffff16146120cc576040517f08c379a00000000000000000000000000000000000000000000000000000000081526004016120c390614b20565b60405180910390fd5b600073ffffffffffffffffffffffffffffffffffffffff168173ffffffffffffffffffffffffffffffffffffffff16141561213c576040517f08c379a000000000000000000000000000000000000000000000000000000000815260040161213390614a00565b60405180910390fd5b61214581612d4e565b50565b60cb60009054906101000a900473ffffffffffffffffffffffffffffffffffffffff1681565b60cd5481565b61217c612bb7565b73ffffffffffffffffffffffffffffffffffffffff1661219a611872565b73ffffffffffffffffffffffffffffffffffffffff16146121f0576040517f08c379a00000000000000000000000000000000000000000000000000000000081526004016121e790614b20565b60405180910390fd5b8060ce8190555050565b600080600080600080878060200190518101906122179190613d07565b80945081955082965083975050505050428111612269576040517f08c379a000000000000000000000000000000000000000000000000000000000815260040161226090614be0565b60405180910390fd5b612274888886611280565b6122b3576040517f08c379a00000000000000000000000000000000000000000000000000000000081526004016122aa906149c0565b60405180910390fd5b838395509550505050509250929050565b60006122f5670de0b6b3a76400006122e760cd5486612e1490919063ffffffff16565b612e2a90919063ffffffff16565b90506000612328670de0b6b3a764000061231a60ce5487612e1490919063ffffffff16565b612e2a90919063ffffffff16565b9050600060cb60009054906101000a900473ffffffffffffffffffffffffffffffffffffffff16905060008173ffffffffffffffffffffffffffffffffffffffff166323b872dd8630896040518463ffffffff1660e01b8152600401612390939291906147d0565b602060405180830381600087803b1580156123aa57600080fd5b505af11580156123be573d6000803e3d6000fd5b505050506040513d601f19601f820116820180604052508101906123e29190614000565b905080612424576040517f08c379a000000000000000000000000000000000000000000000000000000000815260040161241b90614a20565b60405180910390fd5b6124768460c960003073ffffffffffffffffffffffffffffffffffffffff1673ffffffffffffffffffffffffffffffffffffffff1681526020019081526020016000205461373390919063ffffffff16565b60c960003073ffffffffffffffffffffffffffffffffffffffff1673ffffffffffffffffffffffffffffffffffffffff1681526020019081526020016000208190555061250b8360c960003373ffffffffffffffffffffffffffffffffffffffff1673ffffffffffffffffffffffffffffffffffffffff1681526020019081526020016000205461373390919063ffffffff16565b60c960003373ffffffffffffffffffffffffffffffffffffffff1673ffffffffffffffffffffffffffffffffffffffff168152602001908152602001600020819055506125c461257684612568878a612e4090919063ffffffff16565b612e4090919063ffffffff16565b60c960008873ffffffffffffffffffffffffffffffffffffffff1673ffffffffffffffffffffffffffffffffffffffff1681526020019081526020016000205461373390919063ffffffff16565b60c960008773ffffffffffffffffffffffffffffffffffffffff1673ffffffffffffffffffffffffffffffffffffffff168152602001908152602001600020819055508473ffffffffffffffffffffffffffffffffffffffff167fe1fffcc4923d04b559f4d29a8bfc6cda04eb5b0d3c460751c2402c5c5cc9109c61266485612656888b612e4090919063ffffffff16565b612e4090919063ffffffff16565b6040516126719190614c20565b60405180910390a23073ffffffffffffffffffffffffffffffffffffffff167fe1fffcc4923d04b559f4d29a8bfc6cda04eb5b0d3c460751c2402c5c5cc9109c856040516126bf9190614c20565b60405180910390a23373ffffffffffffffffffffffffffffffffffffffff167fe1fffcc4923d04b559f4d29a8bfc6cda04eb5b0d3c460751c2402c5c5cc9109c8460405161270d9190614c20565b60405180910390a2505050505050565b612725612bb7565b73ffffffffffffffffffffffffffffffffffffffff16612743611872565b73ffffffffffffffffffffffffffffffffffffffff1614612799576040517f08c379a000000000000000000000000000000000000000000000000000000000815260040161279090614b20565b60405180910390fd5b50565b60006127a6613749565b90506127b1846137a0565b6000835111806127be5750815b156127cf576127cd8484613859565b505b60006127fd7f4910fdfa16fed3260ed0e7147f7cc6da11a60208b5b9406d12a635614ffd914360001b61393d565b90508060000160009054906101000a900460ff166129665760018160000160006101000a81548160ff0219169083151502179055506128c9858360405160240161284791906147b5565b6040516020818303038152906040527f3659cfe6000000000000000000000000000000000000000000000000000000007bffffffffffffffffffffffffffffffffffffffffffffffffffffffff19166020820180517bffffffffffffffffffffffffffffffffffffffffffffffffffffffff8381831617835250505050613859565b5060008160000160006101000a81548160ff0219169083151502179055506128ef613749565b73ffffffffffffffffffffffffffffffffffffffff168273ffffffffffffffffffffffffffffffffffffffff161461295c576040517f08c379a0000000000000000000000000000000000000000000000000000000008152600401612953906149e0565b60405180910390fd5b61296585613947565b5b5050505050565b8160c960008673ffffffffffffffffffffffffffffffffffffffff1673ffffffffffffffffffffffffffffffffffffffff16815260200190815260200160002054116129ee576040517f08c379a00000000000000000000000000000000000000000000000000000000081526004016129e590614920565b60405180910390fd5b6000612a2560cc54600a612a029190614e21565b612a1760cd5486612e1490919063ffffffff16565b612e2a90919063ffffffff16565b90506000612a58670de0b6b3a7640000612a4a60ce5487612e1490919063ffffffff16565b612e2a90919063ffffffff16565b9050612a65863084612e56565b612a70863383612e56565b612a9f8686612a9a84612a8c878a612e4090919063ffffffff16565b612e4090919063ffffffff16565b612e56565b82612ac582612ab78588612e4090919063ffffffff16565b612e4090919063ffffffff16565b8673ffffffffffffffffffffffffffffffffffffffff167f10258bfd896826cf69e885380049b1d1be0424a813d5117744373ec9f51bc86c89604051612b0b91906147b5565b60405180910390a43373ffffffffffffffffffffffffffffffffffffffff167fe1fffcc4923d04b559f4d29a8bfc6cda04eb5b0d3c460751c2402c5c5cc9109c82604051612b599190614c20565b60405180910390a23073ffffffffffffffffffffffffffffffffffffffff167fe1fffcc4923d04b559f4d29a8bfc6cda04eb5b0d3c460751c2402c5c5cc9109c83604051612ba79190614c20565b60405180910390a2505050505050565b600033905090565b600080600080612bcf88886121fa565b8094508195505050612be2848787611931565b809250819350505081612c2a576040517f08c379a0000000000000000000000000000000000000000000000000000000008152600401612c2190614a60565b60405180910390fd5b600060ca60009054906101000a900473ffffffffffffffffffffffffffffffffffffffff169050600060608273ffffffffffffffffffffffffffffffffffffffff16633e08290b8d8d8c6040518463ffffffff1660e01b8152600401612c9293929190614807565b600060405180830381600087803b158015612cac57600080fd5b505af1158015612cc0573d6000803e3d6000fd5b505050506040513d6000823e3d601f19601f82011682018060405250810190612ce99190614265565b8092508193505050818c73ffffffffffffffffffffffffffffffffffffffff167f2d24f75bda933872c0f42ae2dac2587c338242ee6773228d6d07669a832067d083604051612d3891906148fe565b60405180910390a3505050505050505050505050565b6000609760009054906101000a900473ffffffffffffffffffffffffffffffffffffffff16905081609760006101000a81548173ffffffffffffffffffffffffffffffffffffffff021916908373ffffffffffffffffffffffffffffffffffffffff1602179055508173ffffffffffffffffffffffffffffffffffffffff168173ffffffffffffffffffffffffffffffffffffffff167f8be0079c531659141344cd1fd0a4f28419497f9722a3daafe3b4186f6b6457e060405160405180910390a35050565b60008183612e229190614f3f565b905092915050565b60008183612e389190614d9d565b905092915050565b60008183612e4e9190614f99565b905092915050565b600073ffffffffffffffffffffffffffffffffffffffff168373ffffffffffffffffffffffffffffffffffffffff161415612ec6576040517f08c379a0000000000000000000000000000000000000000000000000000000008152600401612ebd90614940565b60405180910390fd5b600073ffffffffffffffffffffffffffffffffffffffff168273ffffffffffffffffffffffffffffffffffffffff161415612f36576040517f08c379a0000000000000000000000000000000000000000000000000000000008152600401612f2d90614ac0565b60405180910390fd5b612fbf816040518060400160405280601f81526020017f7472616e7366657220616d6f756e7420657863656564732062616c616e63650081525060c960008773ffffffffffffffffffffffffffffffffffffffff1673ffffffffffffffffffffffffffffffffffffffff168152602001908152602001600020546139969092919063ffffffff16565b60c960008573ffffffffffffffffffffffffffffffffffffffff1673ffffffffffffffffffffffffffffffffffffffff168152602001908152602001600020819055506130548160c960008573ffffffffffffffffffffffffffffffffffffffff1673ffffffffffffffffffffffffffffffffffffffff1681526020019081526020016000205461373390919063ffffffff16565b60c960008473ffffffffffffffffffffffffffffffffffffffff1673ffffffffffffffffffffffffffffffffffffffff168152602001908152602001600020819055508173ffffffffffffffffffffffffffffffffffffffff168373ffffffffffffffffffffffffffffffffffffffff167f17bfc199658ee2e42b8e7cac3d9caff24e78dfd915fcfa0c640ad043e37ab278836040516130f49190614c20565b60405180910390a3505050565b600060019054906101000a900460ff1680613127575060008054906101000a900460ff16155b613166576040517f08c379a000000000000000000000000000000000000000000000000000000000815260040161315d90614aa0565b60405180910390fd5b60008060019054906101000a900460ff1615905080156131b6576001600060016101000a81548160ff02191690831515021790555060016000806101000a81548160ff0219169083151502179055505b80156131d75760008060016101000a81548160ff0219169083151502179055505b50565b600060019054906101000a900460ff1680613200575060008054906101000a900460ff16155b61323f576040517f08c379a000000000000000000000000000000000000000000000000000000000815260040161323690614aa0565b60405180910390fd5b60008060019054906101000a900460ff16159050801561328f576001600060016101000a81548160ff02191690831515021790555060016000806101000a81548160ff0219169083151502179055505b61329f61329a612bb7565b612d4e565b80156132c05760008060016101000a81548160ff0219169083151502179055505b50565b61334c826040518060400160405280601081526020017f6e6f7420656e6f7567682066756e64730000000000000000000000000000000081525060c960008573ffffffffffffffffffffffffffffffffffffffff1673ffffffffffffffffffffffffffffffffffffffff168152602001908152602001600020546139969092919063ffffffff16565b60c960008373ffffffffffffffffffffffffffffffffffffffff1673ffffffffffffffffffffffffffffffffffffffff1681526020019081526020016000208190555060006133c0670de0b6b3a76400006133b260cd5486612e1490919063ffffffff16565b612e2a90919063ffffffff16565b905060006133f3670de0b6b3a76400006133e560ce5487612e1490919063ffffffff16565b612e2a90919063ffffffff16565b9050600061341c8261340e8588612e4090919063ffffffff16565b612e4090919063ffffffff16565b90506134708360c960003073ffffffffffffffffffffffffffffffffffffffff1673ffffffffffffffffffffffffffffffffffffffff1681526020019081526020016000205461373390919063ffffffff16565b60c960003073ffffffffffffffffffffffffffffffffffffffff1673ffffffffffffffffffffffffffffffffffffffff168152602001908152602001600020819055506135058260c960003373ffffffffffffffffffffffffffffffffffffffff1673ffffffffffffffffffffffffffffffffffffffff1681526020019081526020016000205461373390919063ffffffff16565b60c960003373ffffffffffffffffffffffffffffffffffffffff1673ffffffffffffffffffffffffffffffffffffffff16815260200190815260200160002081905550600060cb60009054906101000a900473ffffffffffffffffffffffffffffffffffffffff16905060008173ffffffffffffffffffffffffffffffffffffffff1663a9059cbb87856040518363ffffffff1660e01b81526004016135ac92919061484c565b602060405180830381600087803b1580156135c657600080fd5b505af11580156135da573d6000803e3d6000fd5b505050506040513d601f19601f820116820180604052508101906135fe9190614000565b905080613640576040517f08c379a000000000000000000000000000000000000000000000000000000000815260040161363790614a20565b60405180910390fd5b3073ffffffffffffffffffffffffffffffffffffffff167fe1fffcc4923d04b559f4d29a8bfc6cda04eb5b0d3c460751c2402c5c5cc9109c866040516136869190614c20565b60405180910390a23373ffffffffffffffffffffffffffffffffffffffff167fe1fffcc4923d04b559f4d29a8bfc6cda04eb5b0d3c460751c2402c5c5cc9109c856040516136d49190614c20565b60405180910390a28573ffffffffffffffffffffffffffffffffffffffff167f884edad9ce6fa2440d8a54cc123490eb96d2768479d49ff9c7366125a9424364846040516137229190614c20565b60405180910390a250505050505050565b600081836137419190614d47565b905092915050565b60006137777f360894a13ba1a3210667c828492db98dca3e2076cc3735a920a3ca505d382bbc60001b6139eb565b60000160009054906101000a900473ffffffffffffffffffffffffffffffffffffffff16905090565b6137a9816139f5565b6137e8576040517f08c379a00000000000000000000000000000000000000000000000000000000081526004016137df90614b00565b60405180910390fd5b806138157f360894a13ba1a3210667c828492db98dca3e2076cc3735a920a3ca505d382bbc60001b6139eb565b60000160006101000a81548173ffffffffffffffffffffffffffffffffffffffff021916908373ffffffffffffffffffffffffffffffffffffffff16021790555050565b6060613864836139f5565b6138a3576040517f08c379a000000000000000000000000000000000000000000000000000000000815260040161389a90614b60565b60405180910390fd5b6000808473ffffffffffffffffffffffffffffffffffffffff16846040516138cb9190614778565b600060405180830381855af49150503d8060008114613906576040519150601f19603f3d011682016040523d82523d6000602084013e61390b565b606091505b509150915061393382826040518060600160405280602781526020016157bd60279139613a08565b9250505092915050565b6000819050919050565b613950816137a0565b8073ffffffffffffffffffffffffffffffffffffffff167fbc7cd75a20ee27fd9adebab32041f755214dbc6bffa90cc0225b39da2e5c2d3b60405160405180910390a250565b60008383111582906139de576040517f08c379a00000000000000000000000000000000000000000000000000000000081526004016139d591906148fe565b60405180910390fd5b5082840390509392505050565b6000819050919050565b600080823b905060008111915050919050565b60608315613a1857829050613a68565b600083511115613a2b5782518084602001fd5b816040517f08c379a0000000000000000000000000000000000000000000000000000000008152600401613a5f91906148fe565b60405180910390fd5b9392505050565b6000613a82613a7d84614c97565b614c72565b905082815260208101848484011115613a9a57600080fd5b613aa584828561506a565b509392505050565b6000613ac0613abb84614c97565b614c72565b905082815260208101848484011115613ad857600080fd5b613ae3848285615079565b509392505050565b6000613afe613af984614cc8565b614c72565b905082815260208101848484011115613b1657600080fd5b613b21848285615079565b509392505050565b600081359050613b3881615732565b92915050565b600081519050613b4d81615749565b92915050565b600081519050613b6281615760565b92915050565b600081519050613b7781615777565b92915050565b600081359050613b8c8161578e565b92915050565b600081519050613ba18161578e565b92915050565b600082601f830112613bb857600080fd5b8135613bc8848260208601613a6f565b91505092915050565b600082601f830112613be257600080fd5b8151613bf2848260208601613aad565b91505092915050565b600082601f830112613c0c57600080fd5b8151613c1c848260208601613aeb565b91505092915050565b600081359050613c34816157a5565b92915050565b600081519050613c49816157a5565b92915050565b600060208284031215613c6157600080fd5b6000613c6f84828501613b29565b91505092915050565b600080600080600060a08688031215613c9057600080fd5b6000613c9e88828901613b3e565b9550506020613caf88828901613b3e565b9450506040613cc088828901613b92565b935050606086015167ffffffffffffffff811115613cdd57600080fd5b613ce988828901613bfb565b9250506080613cfa88828901613b92565b9150509295509295909350565b60008060008060808587031215613d1d57600080fd5b6000613d2b87828801613b3e565b9450506020613d3c87828801613c3a565b9350506040613d4d87828801613b68565b9250506060613d5e87828801613c3a565b91505092959194509250565b60008060008060008060c08789031215613d8357600080fd5b6000613d9189828a01613b3e565b9650506020613da289828a01613c3a565b955050604087015167ffffffffffffffff811115613dbf57600080fd5b613dcb89828a01613bd1565b945050606087015167ffffffffffffffff811115613de857600080fd5b613df489828a01613bd1565b935050608087015167ffffffffffffffff811115613e1157600080fd5b613e1d89828a01613bd1565b92505060a087015167ffffffffffffffff811115613e3a57600080fd5b613e4689828a01613bd1565b9150509295509295509295565b60008060008060808587031215613e6957600080fd5b6000613e7787828801613b3e565b9450506020613e8887828801613c3a565b9350506040613e9987828801613c3a565b9250506060613eaa87828801613b3e565b91505092959194509250565b600080600080600060a08688031215613ece57600080fd5b6000613edc88828901613b3e565b9550506020613eed88828901613c3a565b9450506040613efe88828901613c3a565b9350506060613f0f88828901613c3a565b9250506080613f2088828901613b3e565b9150509295509295909350565b60008060408385031215613f4057600080fd5b6000613f4e85828601613b29565b925050602083013567ffffffffffffffff811115613f6b57600080fd5b613f7785828601613ba7565b9150509250929050565b600080600060608486031215613f9657600080fd5b6000613fa486828701613b29565b935050602084013567ffffffffffffffff811115613fc157600080fd5b613fcd86828701613ba7565b925050604084013567ffffffffffffffff811115613fea57600080fd5b613ff686828701613ba7565b9150509250925092565b60006020828403121561401257600080fd5b600061402084828501613b53565b91505092915050565b6000806040838503121561403c57600080fd5b600061404a85828601613b7d565b925050602083013567ffffffffffffffff81111561406757600080fd5b61407385828601613ba7565b9150509250929050565b60006020828403121561408f57600080fd5b600082013567ffffffffffffffff8111156140a957600080fd5b6140b584828501613ba7565b91505092915050565b600080604083850312156140d157600080fd5b600083013567ffffffffffffffff8111156140eb57600080fd5b6140f785828601613ba7565b925050602083013567ffffffffffffffff81111561411457600080fd5b61412085828601613ba7565b9150509250929050565b60008060006060848603121561413f57600080fd5b600084013567ffffffffffffffff81111561415957600080fd5b61416586828701613ba7565b935050602084013567ffffffffffffffff81111561418257600080fd5b61418e86828701613ba7565b925050604061419f86828701613b29565b9150509250925092565b6000602082840312156141bb57600080fd5b60006141c984828501613c25565b91505092915050565b600080600080608085870312156141e857600080fd5b60006141f687828801613c25565b945050602061420787828801613b29565b935050604085013567ffffffffffffffff81111561422457600080fd5b61423087828801613ba7565b925050606085013567ffffffffffffffff81111561424d57600080fd5b61425987828801613ba7565b91505092959194509250565b6000806040838503121561427857600080fd5b600061428685828601613c3a565b925050602083015167ffffffffffffffff8111156142a357600080fd5b6142af85828601613bfb565b9150509250929050565b6000806000606084860312156142ce57600080fd5b60006142dc86828701613c3a565b93505060206142ed86828701613c3a565b92505060406142fe86828701613b3e565b9150509250925092565b61431181614fcd565b82525050565b61432081614ff1565b82525050565b61432f81615029565b82525050565b61434661434182615029565b615126565b82525050565b600061435782614cf9565b6143618185614d0f565b9350614371818560208601615079565b61437a816151bd565b840191505092915050565b600061439082614cf9565b61439a8185614d20565b93506143aa818560208601615079565b80840191505092915050565b60006143c182614d04565b6143cb8185614d2b565b93506143db818560208601615079565b6143e4816151bd565b840191505092915050565b60006143fc602083614d2b565b9150614407826151db565b602082019050919050565b600061441f601a83614d2b565b915061442a82615204565b602082019050919050565b6000614442600f83614d2b565b915061444d8261522d565b602082019050919050565b6000614465601983614d2b565b915061447082615256565b602082019050919050565b6000614488601c83614d3c565b91506144938261527f565b601c82019050919050565b60006144ab600d83614d2b565b91506144b6826152a8565b602082019050919050565b60006144ce601083614d2b565b91506144d9826152d1565b602082019050919050565b60006144f1602f83614d2b565b91506144fc826152fa565b604082019050919050565b6000614514602683614d2b565b915061451f82615349565b604082019050919050565b6000614537602483614d2b565b915061454282615398565b604082019050919050565b600061455a602483614d2b565b9150614565826153e7565b604082019050919050565b600061457d601483614d2b565b915061458882615436565b602082019050919050565b60006145a0602483614d2b565b91506145ab8261545f565b604082019050919050565b60006145c3602e83614d2b565b91506145ce826154ae565b604082019050919050565b60006145e6601883614d2b565b91506145f1826154fd565b602082019050919050565b6000614609601a83614d2b565b915061461482615526565b602082019050919050565b600061462c602d83614d2b565b91506146378261554f565b604082019050919050565b600061464f602083614d2b565b915061465a8261559e565b602082019050919050565b6000614672601683614d2b565b915061467d826155c7565b602082019050919050565b6000614695602683614d2b565b91506146a0826155f0565b604082019050919050565b60006146b8602583614d2b565b91506146c38261563f565b604082019050919050565b60006146db601b83614d2b565b91506146e68261568e565b602082019050919050565b60006146fe601883614d2b565b9150614709826156b7565b602082019050919050565b6000614721601483614d2b565b915061472c826156e0565b602082019050919050565b6000614744601283614d2b565b915061474f82615709565b602082019050919050565b61476381615053565b82525050565b6147728161505d565b82525050565b60006147848284614385565b915081905092915050565b600061479a8261447b565b91506147a68284614335565b60208201915081905092915050565b60006020820190506147ca6000830184614308565b92915050565b60006060820190506147e56000830186614308565b6147f26020830185614308565b6147ff604083018461475a565b949350505050565b600060608201905061481c6000830186614308565b818103602083015261482e818561434c565b90508181036040830152614842818461434c565b9050949350505050565b60006040820190506148616000830185614308565b61486e602083018461475a565b9392505050565b600060208201905061488a6000830184614317565b92915050565b60006040820190506148a56000830185614317565b6148b26020830184614308565b9392505050565b60006080820190506148ce6000830187614326565b6148db6020830186614769565b6148e86040830185614326565b6148f56060830184614326565b95945050505050565b6000602082019050818103600083015261491881846143b6565b905092915050565b60006020820190508181036000830152614939816143ef565b9050919050565b6000602082019050818103600083015261495981614412565b9050919050565b6000602082019050818103600083015261497981614435565b9050919050565b6000602082019050818103600083015261499981614458565b9050919050565b600060208201905081810360008301526149b98161449e565b9050919050565b600060208201905081810360008301526149d9816144c1565b9050919050565b600060208201905081810360008301526149f9816144e4565b9050919050565b60006020820190508181036000830152614a1981614507565b9050919050565b60006020820190508181036000830152614a398161452a565b9050919050565b60006020820190508181036000830152614a598161454d565b9050919050565b60006020820190508181036000830152614a7981614570565b9050919050565b60006020820190508181036000830152614a9981614593565b9050919050565b60006020820190508181036000830152614ab9816145b6565b9050919050565b60006020820190508181036000830152614ad9816145d9565b9050919050565b60006020820190508181036000830152614af9816145fc565b9050919050565b60006020820190508181036000830152614b198161461f565b9050919050565b60006020820190508181036000830152614b3981614642565b9050919050565b60006020820190508181036000830152614b5981614665565b9050919050565b60006020820190508181036000830152614b7981614688565b9050919050565b60006020820190508181036000830152614b99816146ab565b9050919050565b60006020820190508181036000830152614bb9816146ce565b9050919050565b60006020820190508181036000830152614bd9816146f1565b9050919050565b60006020820190508181036000830152614bf981614714565b9050919050565b60006020820190508181036000830152614c1981614737565b9050919050565b6000602082019050614c35600083018461475a565b92915050565b6000606082019050614c506000830186614769565b614c5d6020830185614326565b614c6a6040830184614326565b949350505050565b6000614c7c614c8d565b9050614c8882826150ac565b919050565b6000604051905090565b600067ffffffffffffffff821115614cb257614cb161518e565b5b614cbb826151bd565b9050602081019050919050565b600067ffffffffffffffff821115614ce357614ce261518e565b5b614cec826151bd565b9050602081019050919050565b600081519050919050565b600081519050919050565b600082825260208201905092915050565b600081905092915050565b600082825260208201905092915050565b600081905092915050565b6000614d5282615053565b9150614d5d83615053565b9250827fffffffffffffffffffffffffffffffffffffffffffffffffffffffffffffffff03821115614d9257614d91615130565b5b828201905092915050565b6000614da882615053565b9150614db383615053565b925082614dc357614dc261515f565b5b828204905092915050565b6000808291508390505b6001851115614e1857808604811115614df457614df3615130565b5b6001851615614e035780820291505b8081029050614e11856151ce565b9450614dd8565b94509492505050565b6000614e2c82615053565b9150614e3783615053565b9250614e647fffffffffffffffffffffffffffffffffffffffffffffffffffffffffffffffff8484614e6c565b905092915050565b600082614e7c5760019050614f38565b81614e8a5760009050614f38565b8160018114614ea05760028114614eaa57614ed9565b6001915050614f38565b60ff841115614ebc57614ebb615130565b5b8360020a915084821115614ed357614ed2615130565b5b50614f38565b5060208310610133831016604e8410600b8410161715614f0e5782820a905083811115614f0957614f08615130565b5b614f38565b614f1b8484846001614dce565b92509050818404811115614f3257614f31615130565b5b81810290505b9392505050565b6000614f4a82615053565b9150614f5583615053565b9250817fffffffffffffffffffffffffffffffffffffffffffffffffffffffffffffffff0483118215151615614f8e57614f8d615130565b5b828202905092915050565b6000614fa482615053565b9150614faf83615053565b925082821015614fc257614fc1615130565b5b828203905092915050565b6000614fd882615033565b9050919050565b6000614fea82615033565b9050919050565b60008115159050919050565b60007fffff00000000000000000000000000000000000000000000000000000000000082169050919050565b6000819050919050565b600073ffffffffffffffffffffffffffffffffffffffff82169050919050565b6000819050919050565b600060ff82169050919050565b82818337600083830152505050565b60005b8381101561509757808201518184015260208101905061507c565b838111156150a6576000848401525b50505050565b6150b5826151bd565b810181811067ffffffffffffffff821117156150d4576150d361518e565b5b80604052505050565b60006150e882615053565b91507fffffffffffffffffffffffffffffffffffffffffffffffffffffffffffffffff82141561511b5761511a615130565b5b600182019050919050565b6000819050919050565b7f4e487b7100000000000000000000000000000000000000000000000000000000600052601160045260246000fd5b7f4e487b7100000000000000000000000000000000000000000000000000000000600052601260045260246000fd5b7f4e487b7100000000000000000000000000000000000000000000000000000000600052604160045260246000fd5b6000601f19601f8301169050919050565b60008160011c9050919050565b7f43616c6c657220646f65736e2774206861766520656e6f7567682066756e6473600082015250565b7f7472616e736665722066726f6d207a65726f2061646472657373000000000000600082015250565b7f496e76616c696420616464726573730000000000000000000000000000000000600082015250565b7f416c72656164792075736564207061796d656e744e6f6e636500000000000000600082015250565b7f19457468657265756d205369676e6564204d6573736167653a0a333200000000600082015250565b7f496e76616c6964206e6f6e636500000000000000000000000000000000000000600082015250565b7f426164204e46542053657474696e677300000000000000000000000000000000600082015250565b7f45524331393637557067726164653a207570677261646520627265616b73206660008201527f7572746865722075706772616465730000000000000000000000000000000000602082015250565b7f4f776e61626c653a206e6577206f776e657220697320746865207a65726f206160008201527f6464726573730000000000000000000000000000000000000000000000000000602082015250565b7f436f756c64206e6f74207472616e736665722045524332302066726f6d20636160008201527f6c6c657200000000000000000000000000000000000000000000000000000000602082015250565b7f496e76616c6964204174746573746174696f6e2050726f76696465722041646460008201527f7265737300000000000000000000000000000000000000000000000000000000602082015250565b7f426164204174746573746174696f6e2064617461000000000000000000000000600082015250565b7f496e76616c6964206d6573736167652c207369676e6174757265206f7220736960008201527f676e657200000000000000000000000000000000000000000000000000000000602082015250565b7f496e697469616c697a61626c653a20636f6e747261637420697320616c72656160008201527f647920696e697469616c697a6564000000000000000000000000000000000000602082015250565b7f7472616e7366657220746f207a65726f20616464726573730000000000000000600082015250565b7f496e76616c6964204174746573746174696f6e20456e67696e65000000000000600082015250565b7f455243313936373a206e657720696d706c656d656e746174696f6e206973206e60008201527f6f74206120636f6e747261637400000000000000000000000000000000000000602082015250565b7f4f776e61626c653a2063616c6c6572206973206e6f7420746865206f776e6572600082015250565b7f496e766f69636520616c7265616479206d696e74656400000000000000000000600082015250565b7f416464726573733a2064656c65676174652063616c6c20746f206e6f6e2d636f60008201527f6e74726163740000000000000000000000000000000000000000000000000000602082015250565b7f496e76616c696465206d6573736167652c207369676e6174757265206f72207360008201527f69676e6572000000000000000000000000000000000000000000000000000000602082015250565b7f416c7265616479207573656420637573746f6d6572206e6f6e63650000000000600082015250565b7f696e76616c6964207369676e6174757265206c656e6774680000000000000000600082015250565b7f45787069726564204e46542053657474696e6773000000000000000000000000600082015250565b7f416c72656164792075736564206e6f6e63650000000000000000000000000000600082015250565b61573b81614fcd565b811461574657600080fd5b50565b61575281614fdf565b811461575d57600080fd5b50565b61576981614ff1565b811461577457600080fd5b50565b61578081614ffd565b811461578b57600080fd5b50565b61579781615029565b81146157a257600080fd5b50565b6157ae81615053565b81146157b957600080fd5b5056fe416464726573733a206c6f772d6c6576656c2064656c65676174652063616c6c206661696c6564a2646970667358221220963a46bcc86554a08f49a8dc370d7d4402ba7083224ea20fd2948f2810a4f2b464736f6c63430008040033",
  "linkReferences": {},
  "deployedLinkReferences": {}
}