{
  "_format": "hh-sol-artifact-1",
  "contractName": "TrustContract",
  "sourceName": "contracts/TrustContract.sol",
  "abi": [
    {
      "anonymous": false,
      "inputs": [
        {
          "indexed": false,
          "internalType": "address",
          "name": "previousAdmin",
          "type": "address"
        },
        {
          "indexed": false,
          "internalType": "address",
          "name": "newAdmin",
          "type": "address"
        }
      ],
      "name": "AdminChanged",
      "type": "event"
    },
    {
      "anonymous": false,
      "inputs": [
        {
          "indexed": true,
          "internalType": "address",
          "name": "owner",
          "type": "address"
        },
        {
          "indexed": true,
          "internalType": "address",
          "name": "approved",
          "type": "address"
        },
        {
          "indexed": true,
          "internalType": "uint256",
          "name": "tokenId",
          "type": "uint256"
        }
      ],
      "name": "Approval",
      "type": "event"
    },
    {
      "anonymous": false,
      "inputs": [
        {
          "indexed": true,
          "internalType": "address",
          "name": "owner",
          "type": "address"
        },
        {
          "indexed": true,
          "internalType": "address",
          "name": "operator",
          "type": "address"
        },
        {
          "indexed": false,
          "internalType": "bool",
          "name": "approved",
          "type": "bool"
        }
      ],
      "name": "ApprovalForAll",
      "type": "event"
    },
    {
      "anonymous": false,
      "inputs": [
        {
          "indexed": false,
          "internalType": "address",
          "name": "authority",
          "type": "address"
        },
        {
          "indexed": false,
          "internalType": "address",
          "name": "sender",
          "type": "address"
        }
      ],
      "name": "AuthorityGranted",
      "type": "event"
    },
    {
      "anonymous": false,
      "inputs": [
        {
          "indexed": false,
          "internalType": "address",
          "name": "authority",
          "type": "address"
        },
        {
          "indexed": false,
          "internalType": "address",
          "name": "sender",
          "type": "address"
        }
      ],
      "name": "AuthorityRevoked",
      "type": "event"
    },
    {
      "anonymous": false,
      "inputs": [
        {
          "indexed": true,
          "internalType": "address",
          "name": "beacon",
          "type": "address"
        }
      ],
      "name": "BeaconUpgraded",
      "type": "event"
    },
    {
      "anonymous": false,
      "inputs": [
        {
          "indexed": true,
          "internalType": "address",
          "name": "previousOwner",
          "type": "address"
        },
        {
          "indexed": true,
          "internalType": "address",
          "name": "newOwner",
          "type": "address"
        }
      ],
      "name": "OwnershipTransferred",
      "type": "event"
    },
    {
      "anonymous": false,
      "inputs": [
        {
          "indexed": true,
          "internalType": "address",
          "name": "recipient",
          "type": "address"
        },
        {
          "indexed": true,
          "internalType": "uint256",
          "name": "tokenId",
          "type": "uint256"
        },
        {
          "indexed": true,
          "internalType": "string",
          "name": "tokenURI",
          "type": "string"
        }
      ],
      "name": "TokenMinted",
      "type": "event"
    },
    {
      "anonymous": false,
      "inputs": [
        {
          "indexed": true,
          "internalType": "address",
          "name": "from",
          "type": "address"
        },
        {
          "indexed": true,
          "internalType": "address",
          "name": "to",
          "type": "address"
        },
        {
          "indexed": true,
          "internalType": "uint256",
          "name": "tokenId",
          "type": "uint256"
        }
      ],
      "name": "Transfer",
      "type": "event"
    },
    {
      "anonymous": false,
      "inputs": [
        {
          "indexed": true,
          "internalType": "address",
          "name": "implementation",
          "type": "address"
        }
      ],
      "name": "Upgraded",
      "type": "event"
    },
    {
      "inputs": [
        {
          "internalType": "address",
          "name": "to",
          "type": "address"
        },
        {
          "internalType": "uint256",
          "name": "tokenId",
          "type": "uint256"
        }
      ],
      "name": "approve",
      "outputs": [],
      "stateMutability": "nonpayable",
      "type": "function"
    },
    {
      "inputs": [
        {
          "internalType": "address",
          "name": "owner",
          "type": "address"
        }
      ],
      "name": "balanceOf",
      "outputs": [
        {
          "internalType": "uint256",
          "name": "",
          "type": "uint256"
        }
      ],
      "stateMutability": "view",
      "type": "function"
    },
    {
      "inputs": [
        {
          "internalType": "uint256",
          "name": "tokenId",
          "type": "uint256"
        }
      ],
      "name": "burn",
      "outputs": [],
      "stateMutability": "nonpayable",
      "type": "function"
    },
    {
      "inputs": [],
      "name": "cashier_address",
      "outputs": [
        {
          "internalType": "address",
          "name": "",
          "type": "address"
        }
      ],
      "stateMutability": "view",
      "type": "function"
    },
    {
      "inputs": [
        {
          "internalType": "uint256",
          "name": "tokenId",
          "type": "uint256"
        }
      ],
      "name": "getApproved",
      "outputs": [
        {
          "internalType": "address",
          "name": "",
          "type": "address"
        }
      ],
      "stateMutability": "view",
      "type": "function"
    },
    {
      "inputs": [
        {
          "internalType": "uint256",
          "name": "tokenId",
          "type": "uint256"
        }
      ],
      "name": "getTokenData",
      "outputs": [
        {
          "internalType": "bytes32",
          "name": "keys",
          "type": "bytes32"
        },
        {
          "internalType": "bytes32",
          "name": "settings",
          "type": "bytes32"
        },
        {
          "internalType": "address",
          "name": "provider",
          "type": "address"
        },
        {
          "internalType": "bytes32",
          "name": "data",
          "type": "bytes32"
        }
      ],
      "stateMutability": "view",
      "type": "function"
    },
    {
      "inputs": [
        {
          "internalType": "address",
          "name": "cashierAddress",
          "type": "address"
        }
      ],
      "name": "initialize",
      "outputs": [],
      "stateMutability": "nonpayable",
      "type": "function"
    },
    {
      "inputs": [
        {
          "internalType": "address",
          "name": "owner",
          "type": "address"
        },
        {
          "internalType": "address",
          "name": "operator",
          "type": "address"
        }
      ],
      "name": "isApprovedForAll",
      "outputs": [
        {
          "internalType": "bool",
          "name": "",
          "type": "bool"
        }
      ],
      "stateMutability": "view",
      "type": "function"
    },
    {
      "inputs": [
        {
          "internalType": "address",
          "name": "nftOwner",
          "type": "address"
        },
        {
          "internalType": "bytes",
          "name": "nftSettings",
          "type": "bytes"
        },
        {
          "internalType": "bytes",
          "name": "attestationData",
          "type": "bytes"
        }
      ],
      "name": "mintToken",
      "outputs": [
        {
          "internalType": "uint256",
          "name": "",
          "type": "uint256"
        },
        {
          "internalType": "string",
          "name": "",
          "type": "string"
        }
      ],
      "stateMutability": "nonpayable",
      "type": "function"
    },
    {
      "inputs": [],
      "name": "name",
      "outputs": [
        {
          "internalType": "string",
          "name": "",
          "type": "string"
        }
      ],
      "stateMutability": "view",
      "type": "function"
    },
    {
      "inputs": [],
      "name": "owner",
      "outputs": [
        {
          "internalType": "address",
          "name": "",
          "type": "address"
        }
      ],
      "stateMutability": "view",
      "type": "function"
    },
    {
      "inputs": [
        {
          "internalType": "uint256",
          "name": "tokenId",
          "type": "uint256"
        }
      ],
      "name": "ownerOf",
      "outputs": [
        {
          "internalType": "address",
          "name": "",
          "type": "address"
        }
      ],
      "stateMutability": "view",
      "type": "function"
    },
    {
      "inputs": [],
      "name": "renounceOwnership",
      "outputs": [],
      "stateMutability": "nonpayable",
      "type": "function"
    },
    {
      "inputs": [
        {
          "internalType": "address",
          "name": "from",
          "type": "address"
        },
        {
          "internalType": "address",
          "name": "to",
          "type": "address"
        },
        {
          "internalType": "uint256",
          "name": "tokenId",
          "type": "uint256"
        }
      ],
      "name": "safeTransferFrom",
      "outputs": [],
      "stateMutability": "nonpayable",
      "type": "function"
    },
    {
      "inputs": [
        {
          "internalType": "address",
          "name": "from",
          "type": "address"
        },
        {
          "internalType": "address",
          "name": "to",
          "type": "address"
        },
        {
          "internalType": "uint256",
          "name": "tokenId",
          "type": "uint256"
        },
        {
          "internalType": "bytes",
          "name": "_data",
          "type": "bytes"
        }
      ],
      "name": "safeTransferFrom",
      "outputs": [],
      "stateMutability": "nonpayable",
      "type": "function"
    },
    {
      "inputs": [
        {
          "internalType": "address",
          "name": "operator",
          "type": "address"
        },
        {
          "internalType": "bool",
          "name": "approved",
          "type": "bool"
        }
      ],
      "name": "setApprovalForAll",
      "outputs": [],
      "stateMutability": "nonpayable",
      "type": "function"
    },
    {
      "inputs": [
        {
          "internalType": "bytes4",
          "name": "interfaceId",
          "type": "bytes4"
        }
      ],
      "name": "supportsInterface",
      "outputs": [
        {
          "internalType": "bool",
          "name": "",
          "type": "bool"
        }
      ],
      "stateMutability": "view",
      "type": "function"
    },
    {
      "inputs": [],
      "name": "symbol",
      "outputs": [
        {
          "internalType": "string",
          "name": "",
          "type": "string"
        }
      ],
      "stateMutability": "view",
      "type": "function"
    },
    {
      "inputs": [
        {
          "internalType": "uint256",
          "name": "tokenId",
          "type": "uint256"
        }
      ],
      "name": "tokenURI",
      "outputs": [
        {
          "internalType": "string",
          "name": "",
          "type": "string"
        }
      ],
      "stateMutability": "view",
      "type": "function"
    },
    {
      "inputs": [
        {
          "internalType": "address",
          "name": "from",
          "type": "address"
        },
        {
          "internalType": "address",
          "name": "to",
          "type": "address"
        },
        {
          "internalType": "uint256",
          "name": "tokenId",
          "type": "uint256"
        }
      ],
      "name": "transferFrom",
      "outputs": [],
      "stateMutability": "nonpayable",
      "type": "function"
    },
    {
      "inputs": [
        {
          "internalType": "address",
          "name": "from",
          "type": "address"
        },
        {
          "internalType": "address",
          "name": "to",
          "type": "address"
        },
        {
          "internalType": "uint256",
          "name": "tokenId",
          "type": "uint256"
        }
      ],
      "name": "transferFromAE",
      "outputs": [],
      "stateMutability": "nonpayable",
      "type": "function"
    },
    {
      "inputs": [
        {
          "internalType": "address",
          "name": "newOwner",
          "type": "address"
        }
      ],
      "name": "transferOwnership",
      "outputs": [],
      "stateMutability": "nonpayable",
      "type": "function"
    },
    {
      "inputs": [
        {
          "internalType": "address",
          "name": "newImplementation",
          "type": "address"
        }
      ],
      "name": "upgradeTo",
      "outputs": [],
      "stateMutability": "nonpayable",
      "type": "function"
    },
    {
      "inputs": [
        {
          "internalType": "address",
          "name": "newImplementation",
          "type": "address"
        },
        {
          "internalType": "bytes",
          "name": "data",
          "type": "bytes"
        }
      ],
      "name": "upgradeToAndCall",
      "outputs": [],
      "stateMutability": "payable",
      "type": "function"
    }
  ],
  "bytecode": "0x608060405234801561001057600080fd5b5061478e806100206000396000f3fe60806040526004361061014b5760003560e01c80636352211e116100b6578063b09afec11161006f578063b09afec114610480578063b88d4fde146104c0578063c4d66de8146104e9578063c87b56dd14610512578063e985e9c51461054f578063f2fde38b1461058c5761014b565b80636352211e1461037057806370a08231146103ad578063715018a6146103ea5780638da5cb5b1461040157806395d89b411461042c578063a22cb465146104575761014b565b80633859a3fe116101085780633859a3fe146102705780633b2607cd146102995780633e08290b146102c457806342842e0e1461030257806342966c681461032b5780634f1ef286146103545761014b565b806301ffc9a71461015057806306fdde031461018d578063081812fc146101b8578063095ea7b3146101f557806323b872dd1461021e5780633659cfe614610247575b600080fd5b34801561015c57600080fd5b50610177600480360381019061017291906132be565b6105b5565b604051610184919061384a565b60405180910390f35b34801561019957600080fd5b506101a2610697565b6040516101af91906138aa565b60405180910390f35b3480156101c457600080fd5b506101df60048036038101906101da9190613310565b610729565b6040516101ec91906137e3565b60405180910390f35b34801561020157600080fd5b5061021c60048036038101906102179190613282565b6107ae565b005b34801561022a57600080fd5b50610245600480360381019061024091906130a9565b6108c6565b005b34801561025357600080fd5b5061026e60048036038101906102699190612fb5565b6108cb565b005b34801561027c57600080fd5b50610297600480360381019061029291906130a9565b6108f2565b005b3480156102a557600080fd5b506102ae610993565b6040516102bb91906137e3565b60405180910390f35b3480156102d057600080fd5b506102eb60048036038101906102e69190613203565b6109ba565b6040516102f9929190613be7565b60405180910390f35b34801561030e57600080fd5b50610329600480360381019061032491906130a9565b610bbe565b005b34801561033757600080fd5b50610352600480360381019061034d9190613310565b610bc3565b005b61036e600480360381019061036991906131af565b610c45565b005b34801561037c57600080fd5b5061039760048036038101906103929190613310565b610c5e565b6040516103a491906137e3565b60405180910390f35b3480156103b957600080fd5b506103d460048036038101906103cf9190612fb5565b610d10565b6040516103e19190613bcc565b60405180910390f35b3480156103f657600080fd5b506103ff610dc8565b005b34801561040d57600080fd5b50610416610e50565b60405161042391906137e3565b60405180910390f35b34801561043857600080fd5b50610441610e7b565b60405161044e91906138aa565b60405180910390f35b34801561046357600080fd5b5061047e60048036038101906104799190613173565b610f0d565b005b34801561048c57600080fd5b506104a760048036038101906104a29190613310565b61108e565b6040516104b79493929190613865565b60405180910390f35b3480156104cc57600080fd5b506104e760048036038101906104e291906130f8565b611117565b005b3480156104f557600080fd5b50610510600480360381019061050b9190612fb5565b611179565b005b34801561051e57600080fd5b5061053960048036038101906105349190613310565b611311565b60405161054691906138aa565b60405180910390f35b34801561055b57600080fd5b506105766004803603810190610571919061306d565b611463565b604051610583919061384a565b60405180910390f35b34801561059857600080fd5b506105b360048036038101906105ae9190612fb5565b6114f7565b005b60007f80ac58cd000000000000000000000000000000000000000000000000000000007bffffffffffffffffffffffffffffffffffffffffffffffffffffffff1916827bffffffffffffffffffffffffffffffffffffffffffffffffffffffff1916148061068057507f5b5e139f000000000000000000000000000000000000000000000000000000007bffffffffffffffffffffffffffffffffffffffffffffffffffffffff1916827bffffffffffffffffffffffffffffffffffffffffffffffffffffffff1916145b80610690575061068f826115ef565b5b9050919050565b6060606580546106a690613e79565b80601f01602080910402602001604051908101604052809291908181526020018280546106d290613e79565b801561071f5780601f106106f45761010080835404028352916020019161071f565b820191906000526020600020905b81548152906001019060200180831161070257829003601f168201915b5050505050905090565b600061073482611659565b610773576040517f08c379a000000000000000000000000000000000000000000000000000000000815260040161076a90613a8c565b60405180910390fd5b6069600083815260200190815260200160002060009054906101000a900473ffffffffffffffffffffffffffffffffffffffff169050919050565b60006107b982610c5e565b90508073ffffffffffffffffffffffffffffffffffffffff168373ffffffffffffffffffffffffffffffffffffffff16141561082a576040517f08c379a000000000000000000000000000000000000000000000000000000000815260040161082190613b2c565b60405180910390fd5b8073ffffffffffffffffffffffffffffffffffffffff166108496116c5565b73ffffffffffffffffffffffffffffffffffffffff1614806108785750610877816108726116c5565b611463565b5b6108b7576040517f08c379a00000000000000000000000000000000000000000000000000000000081526004016108ae906139ac565b60405180910390fd5b6108c183836116cd565b505050565b505050565b6108d481611786565b6108ef81604051806020016040528060008152506000611805565b50565b3373ffffffffffffffffffffffffffffffffffffffff1661016060009054906101000a900473ffffffffffffffffffffffffffffffffffffffff1673ffffffffffffffffffffffffffffffffffffffff1614610983576040517f08c379a000000000000000000000000000000000000000000000000000000000815260040161097a90613bac565b60405180910390fd5b61098e8383836119d6565b505050565b61016060009054906101000a900473ffffffffffffffffffffffffffffffffffffffff1681565b600060603373ffffffffffffffffffffffffffffffffffffffff1661016060009054906101000a900473ffffffffffffffffffffffffffffffffffffffff1673ffffffffffffffffffffffffffffffffffffffff1614610a4f576040517f08c379a0000000000000000000000000000000000000000000000000000000008152600401610a4690613bac565b60405180910390fd5b610a5a61015f611c32565b6000610a6761015f611c48565b9050610a738682611c56565b6000806060600087806020019051810190610a8e9190612fde565b9091925080945081955082965083975050505050610aac8583611e24565b82610161600087815260200190815260200160002081905550888051906020012061016360008781526020019081526020016000208190555083610162600087815260200190815260200160002060006101000a81548173ffffffffffffffffffffffffffffffffffffffff021916908373ffffffffffffffffffffffffffffffffffffffff1602179055508061016460008781526020019081526020016000208190555081604051610b5f91906137a8565b6040518091039020858b73ffffffffffffffffffffffffffffffffffffffff167fdf92894dc4675a7333caa5903b69cf5d8e8ec0d3f361c88207b6688e525703bb60405160405180910390a48482965096505050505050935093915050565b505050565b3373ffffffffffffffffffffffffffffffffffffffff16610be382610c5e565b73ffffffffffffffffffffffffffffffffffffffff1614610c39576040517f08c379a0000000000000000000000000000000000000000000000000000000008152600401610c3090613b8c565b60405180910390fd5b610c4281611e98565b50565b610c4e82611786565b610c5a82826001611805565b5050565b6000806067600084815260200190815260200160002060009054906101000a900473ffffffffffffffffffffffffffffffffffffffff169050600073ffffffffffffffffffffffffffffffffffffffff168173ffffffffffffffffffffffffffffffffffffffff161415610d07576040517f08c379a0000000000000000000000000000000000000000000000000000000008152600401610cfe906139ec565b60405180910390fd5b80915050919050565b60008073ffffffffffffffffffffffffffffffffffffffff168273ffffffffffffffffffffffffffffffffffffffff161415610d81576040517f08c379a0000000000000000000000000000000000000000000000000000000008152600401610d78906139cc565b60405180910390fd5b606860008373ffffffffffffffffffffffffffffffffffffffff1673ffffffffffffffffffffffffffffffffffffffff168152602001908152602001600020549050919050565b610dd06116c5565b73ffffffffffffffffffffffffffffffffffffffff16610dee610e50565b73ffffffffffffffffffffffffffffffffffffffff1614610e44576040517f08c379a0000000000000000000000000000000000000000000000000000000008152600401610e3b90613acc565b60405180910390fd5b610e4e6000611eeb565b565b600061012d60009054906101000a900473ffffffffffffffffffffffffffffffffffffffff16905090565b606060668054610e8a90613e79565b80601f0160208091040260200160405190810160405280929190818152602001828054610eb690613e79565b8015610f035780601f10610ed857610100808354040283529160200191610f03565b820191906000526020600020905b815481529060010190602001808311610ee657829003601f168201915b5050505050905090565b610f156116c5565b73ffffffffffffffffffffffffffffffffffffffff168273ffffffffffffffffffffffffffffffffffffffff161415610f83576040517f08c379a0000000000000000000000000000000000000000000000000000000008152600401610f7a9061396c565b60405180910390fd5b80606a6000610f906116c5565b73ffffffffffffffffffffffffffffffffffffffff1673ffffffffffffffffffffffffffffffffffffffff16815260200190815260200160002060008473ffffffffffffffffffffffffffffffffffffffff1673ffffffffffffffffffffffffffffffffffffffff16815260200190815260200160002060006101000a81548160ff0219169083151502179055508173ffffffffffffffffffffffffffffffffffffffff1661103d6116c5565b73ffffffffffffffffffffffffffffffffffffffff167f17307eab39ab6107e8899845ad3d59bd9653f200f220920489ca2b5937696c3183604051611082919061384a565b60405180910390a35050565b600080600080610161600086815260200190815260200160002054610163600087815260200190815260200160002054610162600088815260200190815260200160002060009054906101000a900473ffffffffffffffffffffffffffffffffffffffff1661016460008981526020019081526020016000205493509350935093509193509193565b6111286111226116c5565b83611fb3565b611167576040517f08c379a000000000000000000000000000000000000000000000000000000000815260040161115e90613b6c565b60405180910390fd5b61117384848484612091565b50505050565b600060019054906101000a900460ff168061119f575060008054906101000a900460ff16155b6111de576040517f08c379a00000000000000000000000000000000000000000000000000000000081526004016111d590613a2c565b60405180910390fd5b60008060019054906101000a900460ff16159050801561122e576001600060016101000a81548160ff02191690831515021790555060016000806101000a81548160ff0219169083151502179055505b6112a26040518060400160405280600b81526020017f547275737420546f6b656e0000000000000000000000000000000000000000008152506040518060400160405280600281526020017f54540000000000000000000000000000000000000000000000000000000000008152506120ed565b6112aa6121e2565b8161016060006101000a81548173ffffffffffffffffffffffffffffffffffffffff021916908373ffffffffffffffffffffffffffffffffffffffff160217905550801561130d5760008060016101000a81548160ff0219169083151502179055505b5050565b606061131c82611659565b61135b576040517f08c379a000000000000000000000000000000000000000000000000000000000815260040161135290613a6c565b60405180910390fd5b600060976000848152602001908152602001600020805461137b90613e79565b80601f01602080910402602001604051908101604052809291908181526020018280546113a790613e79565b80156113f45780601f106113c9576101008083540402835291602001916113f4565b820191906000526020600020905b8154815290600101906020018083116113d757829003601f168201915b5050505050905060006114056122cb565b905060008151141561141b57819250505061145e565b6000825111156114505780826040516020016114389291906137bf565b6040516020818303038152906040529250505061145e565b611459846122e2565b925050505b919050565b6000606a60008473ffffffffffffffffffffffffffffffffffffffff1673ffffffffffffffffffffffffffffffffffffffff16815260200190815260200160002060008373ffffffffffffffffffffffffffffffffffffffff1673ffffffffffffffffffffffffffffffffffffffff16815260200190815260200160002060009054906101000a900460ff16905092915050565b6114ff6116c5565b73ffffffffffffffffffffffffffffffffffffffff1661151d610e50565b73ffffffffffffffffffffffffffffffffffffffff1614611573576040517f08c379a000000000000000000000000000000000000000000000000000000000815260040161156a90613acc565b60405180910390fd5b600073ffffffffffffffffffffffffffffffffffffffff168173ffffffffffffffffffffffffffffffffffffffff1614156115e3576040517f08c379a00000000000000000000000000000000000000000000000000000000081526004016115da9061390c565b60405180910390fd5b6115ec81611eeb565b50565b60007f01ffc9a7000000000000000000000000000000000000000000000000000000007bffffffffffffffffffffffffffffffffffffffffffffffffffffffff1916827bffffffffffffffffffffffffffffffffffffffffffffffffffffffff1916149050919050565b60008073ffffffffffffffffffffffffffffffffffffffff166067600084815260200190815260200160002060009054906101000a900473ffffffffffffffffffffffffffffffffffffffff1673ffffffffffffffffffffffffffffffffffffffff1614159050919050565b600033905090565b816069600083815260200190815260200160002060006101000a81548173ffffffffffffffffffffffffffffffffffffffff021916908373ffffffffffffffffffffffffffffffffffffffff160217905550808273ffffffffffffffffffffffffffffffffffffffff1661174083610c5e565b73ffffffffffffffffffffffffffffffffffffffff167f8c5be1e5ebec7d5bd14f71427d1e84f3dd0314c0f7b2291e5b200ac8c7c3b92560405160405180910390a45050565b61178e6116c5565b73ffffffffffffffffffffffffffffffffffffffff166117ac610e50565b73ffffffffffffffffffffffffffffffffffffffff1614611802576040517f08c379a00000000000000000000000000000000000000000000000000000000081526004016117f990613acc565b60405180910390fd5b50565b600061180f612389565b905061181a846123e0565b6000835111806118275750815b15611838576118368484612499565b505b60006118667f4910fdfa16fed3260ed0e7147f7cc6da11a60208b5b9406d12a635614ffd914360001b61257d565b90508060000160009054906101000a900460ff166119cf5760018160000160006101000a81548160ff02191690831515021790555061193285836040516024016118b091906137e3565b6040516020818303038152906040527f3659cfe6000000000000000000000000000000000000000000000000000000007bffffffffffffffffffffffffffffffffffffffffffffffffffffffff19166020820180517bffffffffffffffffffffffffffffffffffffffffffffffffffffffff8381831617835250505050612499565b5060008160000160006101000a81548160ff021916908315150217905550611958612389565b73ffffffffffffffffffffffffffffffffffffffff168273ffffffffffffffffffffffffffffffffffffffff16146119c5576040517f08c379a00000000000000000000000000000000000000000000000000000000081526004016119bc906138ec565b60405180910390fd5b6119ce85612587565b5b5050505050565b8273ffffffffffffffffffffffffffffffffffffffff166119f682610c5e565b73ffffffffffffffffffffffffffffffffffffffff1614611a4c576040517f08c379a0000000000000000000000000000000000000000000000000000000008152600401611a4390613aec565b60405180910390fd5b600073ffffffffffffffffffffffffffffffffffffffff168273ffffffffffffffffffffffffffffffffffffffff161415611abc576040517f08c379a0000000000000000000000000000000000000000000000000000000008152600401611ab39061394c565b60405180910390fd5b611ac78383836125d6565b611ad26000826116cd565b6001606860008573ffffffffffffffffffffffffffffffffffffffff1673ffffffffffffffffffffffffffffffffffffffff1681526020019081526020016000206000828254611b229190613d73565b925050819055506001606860008473ffffffffffffffffffffffffffffffffffffffff1673ffffffffffffffffffffffffffffffffffffffff1681526020019081526020016000206000828254611b799190613cec565b92505081905550816067600083815260200190815260200160002060006101000a81548173ffffffffffffffffffffffffffffffffffffffff021916908373ffffffffffffffffffffffffffffffffffffffff160217905550808273ffffffffffffffffffffffffffffffffffffffff168473ffffffffffffffffffffffffffffffffffffffff167fddf252ad1be2c89b69c2b068fc378daa952ba7f163c4a11628f55a4df523b3ef60405160405180910390a4505050565b6001816000016000828254019250508190555050565b600081600001549050919050565b600073ffffffffffffffffffffffffffffffffffffffff168273ffffffffffffffffffffffffffffffffffffffff161415611cc6576040517f08c379a0000000000000000000000000000000000000000000000000000000008152600401611cbd90613a4c565b60405180910390fd5b611ccf81611659565b15611d0f576040517f08c379a0000000000000000000000000000000000000000000000000000000008152600401611d069061392c565b60405180910390fd5b611d1b600083836125d6565b6001606860008473ffffffffffffffffffffffffffffffffffffffff1673ffffffffffffffffffffffffffffffffffffffff1681526020019081526020016000206000828254611d6b9190613cec565b92505081905550816067600083815260200190815260200160002060006101000a81548173ffffffffffffffffffffffffffffffffffffffff021916908373ffffffffffffffffffffffffffffffffffffffff160217905550808273ffffffffffffffffffffffffffffffffffffffff16600073ffffffffffffffffffffffffffffffffffffffff167fddf252ad1be2c89b69c2b068fc378daa952ba7f163c4a11628f55a4df523b3ef60405160405180910390a45050565b611e2d82611659565b611e6c576040517f08c379a0000000000000000000000000000000000000000000000000000000008152600401611e6390613a0c565b60405180910390fd5b80609760008481526020019081526020016000209080519060200190611e93929190612d6f565b505050565b611ea1816125db565b6000609760008381526020019081526020016000208054611ec190613e79565b905014611ee857609760008281526020019081526020016000206000611ee79190612df5565b5b50565b600061012d60009054906101000a900473ffffffffffffffffffffffffffffffffffffffff1690508161012d60006101000a81548173ffffffffffffffffffffffffffffffffffffffff021916908373ffffffffffffffffffffffffffffffffffffffff1602179055508173ffffffffffffffffffffffffffffffffffffffff168173ffffffffffffffffffffffffffffffffffffffff167f8be0079c531659141344cd1fd0a4f28419497f9722a3daafe3b4186f6b6457e060405160405180910390a35050565b6000611fbe82611659565b611ffd576040517f08c379a0000000000000000000000000000000000000000000000000000000008152600401611ff49061398c565b60405180910390fd5b600061200883610c5e565b90508073ffffffffffffffffffffffffffffffffffffffff168473ffffffffffffffffffffffffffffffffffffffff16148061207757508373ffffffffffffffffffffffffffffffffffffffff1661205f84610729565b73ffffffffffffffffffffffffffffffffffffffff16145b8061208857506120878185611463565b5b91505092915050565b61209c8484846119d6565b6120a8848484846126ec565b6120e7576040517f08c379a00000000000000000000000000000000000000000000000000000000081526004016120de906138cc565b60405180910390fd5b50505050565b600060019054906101000a900460ff1680612113575060008054906101000a900460ff16155b612152576040517f08c379a000000000000000000000000000000000000000000000000000000000815260040161214990613a2c565b60405180910390fd5b60008060019054906101000a900460ff1615905080156121a2576001600060016101000a81548160ff02191690831515021790555060016000806101000a81548160ff0219169083151502179055505b6121aa612883565b6121b261295c565b6121bc8383612a35565b80156121dd5760008060016101000a81548160ff0219169083151502179055505b505050565b600060019054906101000a900460ff1680612208575060008054906101000a900460ff16155b612247576040517f08c379a000000000000000000000000000000000000000000000000000000000815260040161223e90613a2c565b60405180910390fd5b60008060019054906101000a900460ff161590508015612297576001600060016101000a81548160ff02191690831515021790555060016000806101000a81548160ff0219169083151502179055505b6122a76122a26116c5565b611eeb565b80156122c85760008060016101000a81548160ff0219169083151502179055505b50565b606060405180602001604052806000815250905090565b60606122ed82611659565b61232c576040517f08c379a000000000000000000000000000000000000000000000000000000000815260040161232390613b0c565b60405180910390fd5b60006123366122cb565b905060008151116123565760405180602001604052806000815250612381565b8061236084612b3e565b6040516020016123719291906137bf565b6040516020818303038152906040525b915050919050565b60006123b77f360894a13ba1a3210667c828492db98dca3e2076cc3735a920a3ca505d382bbc60001b612ceb565b60000160009054906101000a900473ffffffffffffffffffffffffffffffffffffffff16905090565b6123e981612cf5565b612428576040517f08c379a000000000000000000000000000000000000000000000000000000000815260040161241f90613aac565b60405180910390fd5b806124557f360894a13ba1a3210667c828492db98dca3e2076cc3735a920a3ca505d382bbc60001b612ceb565b60000160006101000a81548173ffffffffffffffffffffffffffffffffffffffff021916908373ffffffffffffffffffffffffffffffffffffffff16021790555050565b60606124a483612cf5565b6124e3576040517f08c379a00000000000000000000000000000000000000000000000000000000081526004016124da90613b4c565b60405180910390fd5b6000808473ffffffffffffffffffffffffffffffffffffffff168460405161250b9190613791565b600060405180830381855af49150503d8060008114612546576040519150601f19603f3d011682016040523d82523d6000602084013e61254b565b606091505b5091509150612573828260405180606001604052806027815260200161473260279139612d08565b9250505092915050565b6000819050919050565b612590816123e0565b8073ffffffffffffffffffffffffffffffffffffffff167fbc7cd75a20ee27fd9adebab32041f755214dbc6bffa90cc0225b39da2e5c2d3b60405160405180910390a250565b505050565b60006125e682610c5e565b90506125f4816000846125d6565b6125ff6000836116cd565b6001606860008373ffffffffffffffffffffffffffffffffffffffff1673ffffffffffffffffffffffffffffffffffffffff168152602001908152602001600020600082825461264f9190613d73565b925050819055506067600083815260200190815260200160002060006101000a81549073ffffffffffffffffffffffffffffffffffffffff021916905581600073ffffffffffffffffffffffffffffffffffffffff168273ffffffffffffffffffffffffffffffffffffffff167fddf252ad1be2c89b69c2b068fc378daa952ba7f163c4a11628f55a4df523b3ef60405160405180910390a45050565b600061270d8473ffffffffffffffffffffffffffffffffffffffff16612cf5565b15612876578373ffffffffffffffffffffffffffffffffffffffff1663150b7a026127366116c5565b8786866040518563ffffffff1660e01b815260040161275894939291906137fe565b602060405180830381600087803b15801561277257600080fd5b505af19250505080156127a357506040513d601f19601f820116820180604052508101906127a091906132e7565b60015b612826573d80600081146127d3576040519150601f19603f3d011682016040523d82523d6000602084013e6127d8565b606091505b5060008151141561281e576040517f08c379a0000000000000000000000000000000000000000000000000000000008152600401612815906138cc565b60405180910390fd5b805181602001fd5b63150b7a0260e01b7bffffffffffffffffffffffffffffffffffffffffffffffffffffffff1916817bffffffffffffffffffffffffffffffffffffffffffffffffffffffff19161491505061287b565b600190505b949350505050565b600060019054906101000a900460ff16806128a9575060008054906101000a900460ff16155b6128e8576040517f08c379a00000000000000000000000000000000000000000000000000000000081526004016128df90613a2c565b60405180910390fd5b60008060019054906101000a900460ff161590508015612938576001600060016101000a81548160ff02191690831515021790555060016000806101000a81548160ff0219169083151502179055505b80156129595760008060016101000a81548160ff0219169083151502179055505b50565b600060019054906101000a900460ff1680612982575060008054906101000a900460ff16155b6129c1576040517f08c379a00000000000000000000000000000000000000000000000000000000081526004016129b890613a2c565b60405180910390fd5b60008060019054906101000a900460ff161590508015612a11576001600060016101000a81548160ff02191690831515021790555060016000806101000a81548160ff0219169083151502179055505b8015612a325760008060016101000a81548160ff0219169083151502179055505b50565b600060019054906101000a900460ff1680612a5b575060008054906101000a900460ff16155b612a9a576040517f08c379a0000000000000000000000000000000000000000000000000000000008152600401612a9190613a2c565b60405180910390fd5b60008060019054906101000a900460ff161590508015612aea576001600060016101000a81548160ff02191690831515021790555060016000806101000a81548160ff0219169083151502179055505b8260659080519060200190612b00929190612d6f565b508160669080519060200190612b17929190612d6f565b508015612b395760008060016101000a81548160ff0219169083151502179055505b505050565b60606000821415612b86576040518060400160405280600181526020017f30000000000000000000000000000000000000000000000000000000000000008152509050612ce6565b600082905060005b60008214612bb8578080612ba190613edc565b915050600a82612bb19190613d42565b9150612b8e565b60008167ffffffffffffffff811115612bfa577f4e487b7100000000000000000000000000000000000000000000000000000000600052604160045260246000fd5b6040519080825280601f01601f191660200182016040528015612c2c5781602001600182028036833780820191505090505b5090505b60008514612cdf57600182612c459190613d73565b9150600a85612c549190613f25565b6030612c609190613cec565b60f81b818381518110612c9c577f4e487b7100000000000000000000000000000000000000000000000000000000600052603260045260246000fd5b60200101907effffffffffffffffffffffffffffffffffffffffffffffffffffffffffffff1916908160001a905350600a85612cd89190613d42565b9450612c30565b8093505050505b919050565b6000819050919050565b600080823b905060008111915050919050565b60608315612d1857829050612d68565b600083511115612d2b5782518084602001fd5b816040517f08c379a0000000000000000000000000000000000000000000000000000000008152600401612d5f91906138aa565b60405180910390fd5b9392505050565b828054612d7b90613e79565b90600052602060002090601f016020900481019282612d9d5760008555612de4565b82601f10612db657805160ff1916838001178555612de4565b82800160010185558215612de4579182015b82811115612de3578251825591602001919060010190612dc8565b5b509050612df19190612e35565b5090565b508054612e0190613e79565b6000825580601f10612e135750612e32565b601f016020900490600052602060002090810190612e319190612e35565b5b50565b5b80821115612e4e576000816000905550600101612e36565b5090565b6000612e65612e6084613c3c565b613c17565b905082815260208101848484011115612e7d57600080fd5b612e88848285613e37565b509392505050565b6000612ea3612e9e84613c6d565b613c17565b905082815260208101848484011115612ebb57600080fd5b612ec6848285613e46565b509392505050565b600081359050612edd816146a7565b92915050565b600081519050612ef2816146be565b92915050565b600081359050612f07816146d5565b92915050565b600081519050612f1c816146ec565b92915050565b600081359050612f3181614703565b92915050565b600081519050612f4681614703565b92915050565b600082601f830112612f5d57600080fd5b8135612f6d848260208601612e52565b91505092915050565b600082601f830112612f8757600080fd5b8151612f97848260208601612e90565b91505092915050565b600081359050612faf8161471a565b92915050565b600060208284031215612fc757600080fd5b6000612fd584828501612ece565b91505092915050565b600080600080600060a08688031215612ff657600080fd5b600061300488828901612ee3565b955050602061301588828901612ee3565b945050604061302688828901612f0d565b935050606086015167ffffffffffffffff81111561304357600080fd5b61304f88828901612f76565b925050608061306088828901612f0d565b9150509295509295909350565b6000806040838503121561308057600080fd5b600061308e85828601612ece565b925050602061309f85828601612ece565b9150509250929050565b6000806000606084860312156130be57600080fd5b60006130cc86828701612ece565b93505060206130dd86828701612ece565b92505060406130ee86828701612fa0565b9150509250925092565b6000806000806080858703121561310e57600080fd5b600061311c87828801612ece565b945050602061312d87828801612ece565b935050604061313e87828801612fa0565b925050606085013567ffffffffffffffff81111561315b57600080fd5b61316787828801612f4c565b91505092959194509250565b6000806040838503121561318657600080fd5b600061319485828601612ece565b92505060206131a585828601612ef8565b9150509250929050565b600080604083850312156131c257600080fd5b60006131d085828601612ece565b925050602083013567ffffffffffffffff8111156131ed57600080fd5b6131f985828601612f4c565b9150509250929050565b60008060006060848603121561321857600080fd5b600061322686828701612ece565b935050602084013567ffffffffffffffff81111561324357600080fd5b61324f86828701612f4c565b925050604084013567ffffffffffffffff81111561326c57600080fd5b61327886828701612f4c565b9150509250925092565b6000806040838503121561329557600080fd5b60006132a385828601612ece565b92505060206132b485828601612fa0565b9150509250929050565b6000602082840312156132d057600080fd5b60006132de84828501612f22565b91505092915050565b6000602082840312156132f957600080fd5b600061330784828501612f37565b91505092915050565b60006020828403121561332257600080fd5b600061333084828501612fa0565b91505092915050565b61334281613da7565b82525050565b61335181613dcb565b82525050565b61336081613dd7565b82525050565b600061337182613c9e565b61337b8185613cb4565b935061338b818560208601613e46565b61339481614012565b840191505092915050565b60006133aa82613c9e565b6133b48185613cc5565b93506133c4818560208601613e46565b80840191505092915050565b60006133db82613ca9565b6133e58185613cd0565b93506133f5818560208601613e46565b6133fe81614012565b840191505092915050565b600061341482613ca9565b61341e8185613ce1565b935061342e818560208601613e46565b80840191505092915050565b6000613447603283613cd0565b915061345282614023565b604082019050919050565b600061346a602f83613cd0565b915061347582614072565b604082019050919050565b600061348d602683613cd0565b9150613498826140c1565b604082019050919050565b60006134b0601c83613cd0565b91506134bb82614110565b602082019050919050565b60006134d3602483613cd0565b91506134de82614139565b604082019050919050565b60006134f6601983613cd0565b915061350182614188565b602082019050919050565b6000613519602c83613cd0565b9150613524826141b1565b604082019050919050565b600061353c603883613cd0565b915061354782614200565b604082019050919050565b600061355f602a83613cd0565b915061356a8261424f565b604082019050919050565b6000613582602983613cd0565b915061358d8261429e565b604082019050919050565b60006135a5602e83613cd0565b91506135b0826142ed565b604082019050919050565b60006135c8602e83613cd0565b91506135d38261433c565b604082019050919050565b60006135eb602083613cd0565b91506135f68261438b565b602082019050919050565b600061360e603183613cd0565b9150613619826143b4565b604082019050919050565b6000613631602c83613cd0565b915061363c82614403565b604082019050919050565b6000613654602d83613cd0565b915061365f82614452565b604082019050919050565b6000613677602083613cd0565b9150613682826144a1565b602082019050919050565b600061369a602983613cd0565b91506136a5826144ca565b604082019050919050565b60006136bd602f83613cd0565b91506136c882614519565b604082019050919050565b60006136e0602183613cd0565b91506136eb82614568565b604082019050919050565b6000613703602683613cd0565b915061370e826145b7565b604082019050919050565b6000613726603183613cd0565b915061373182614606565b604082019050919050565b6000613749601683613cd0565b915061375482614655565b602082019050919050565b600061376c601b83613cd0565b91506137778261467e565b602082019050919050565b61378b81613e2d565b82525050565b600061379d828461339f565b915081905092915050565b60006137b48284613409565b915081905092915050565b60006137cb8285613409565b91506137d78284613409565b91508190509392505050565b60006020820190506137f86000830184613339565b92915050565b60006080820190506138136000830187613339565b6138206020830186613339565b61382d6040830185613782565b818103606083015261383f8184613366565b905095945050505050565b600060208201905061385f6000830184613348565b92915050565b600060808201905061387a6000830187613357565b6138876020830186613357565b6138946040830185613339565b6138a16060830184613357565b95945050505050565b600060208201905081810360008301526138c481846133d0565b905092915050565b600060208201905081810360008301526138e58161343a565b9050919050565b600060208201905081810360008301526139058161345d565b9050919050565b6000602082019050818103600083015261392581613480565b9050919050565b60006020820190508181036000830152613945816134a3565b9050919050565b60006020820190508181036000830152613965816134c6565b9050919050565b60006020820190508181036000830152613985816134e9565b9050919050565b600060208201905081810360008301526139a58161350c565b9050919050565b600060208201905081810360008301526139c58161352f565b9050919050565b600060208201905081810360008301526139e581613552565b9050919050565b60006020820190508181036000830152613a0581613575565b9050919050565b60006020820190508181036000830152613a2581613598565b9050919050565b60006020820190508181036000830152613a45816135bb565b9050919050565b60006020820190508181036000830152613a65816135de565b9050919050565b60006020820190508181036000830152613a8581613601565b9050919050565b60006020820190508181036000830152613aa581613624565b9050919050565b60006020820190508181036000830152613ac581613647565b9050919050565b60006020820190508181036000830152613ae58161366a565b9050919050565b60006020820190508181036000830152613b058161368d565b9050919050565b60006020820190508181036000830152613b25816136b0565b9050919050565b60006020820190508181036000830152613b45816136d3565b9050919050565b60006020820190508181036000830152613b65816136f6565b9050919050565b60006020820190508181036000830152613b8581613719565b9050919050565b60006020820190508181036000830152613ba58161373c565b9050919050565b60006020820190508181036000830152613bc58161375f565b9050919050565b6000602082019050613be16000830184613782565b92915050565b6000604082019050613bfc6000830185613782565b8181036020830152613c0e81846133d0565b90509392505050565b6000613c21613c32565b9050613c2d8282613eab565b919050565b6000604051905090565b600067ffffffffffffffff821115613c5757613c56613fe3565b5b613c6082614012565b9050602081019050919050565b600067ffffffffffffffff821115613c8857613c87613fe3565b5b613c9182614012565b9050602081019050919050565b600081519050919050565b600081519050919050565b600082825260208201905092915050565b600081905092915050565b600082825260208201905092915050565b600081905092915050565b6000613cf782613e2d565b9150613d0283613e2d565b9250827fffffffffffffffffffffffffffffffffffffffffffffffffffffffffffffffff03821115613d3757613d36613f56565b5b828201905092915050565b6000613d4d82613e2d565b9150613d5883613e2d565b925082613d6857613d67613f85565b5b828204905092915050565b6000613d7e82613e2d565b9150613d8983613e2d565b925082821015613d9c57613d9b613f56565b5b828203905092915050565b6000613db282613e0d565b9050919050565b6000613dc482613e0d565b9050919050565b60008115159050919050565b6000819050919050565b60007fffffffff0000000000000000000000000000000000000000000000000000000082169050919050565b600073ffffffffffffffffffffffffffffffffffffffff82169050919050565b6000819050919050565b82818337600083830152505050565b60005b83811015613e64578082015181840152602081019050613e49565b83811115613e73576000848401525b50505050565b60006002820490506001821680613e9157607f821691505b60208210811415613ea557613ea4613fb4565b5b50919050565b613eb482614012565b810181811067ffffffffffffffff82111715613ed357613ed2613fe3565b5b80604052505050565b6000613ee782613e2d565b91507fffffffffffffffffffffffffffffffffffffffffffffffffffffffffffffffff821415613f1a57613f19613f56565b5b600182019050919050565b6000613f3082613e2d565b9150613f3b83613e2d565b925082613f4b57613f4a613f85565b5b828206905092915050565b7f4e487b7100000000000000000000000000000000000000000000000000000000600052601160045260246000fd5b7f4e487b7100000000000000000000000000000000000000000000000000000000600052601260045260246000fd5b7f4e487b7100000000000000000000000000000000000000000000000000000000600052602260045260246000fd5b7f4e487b7100000000000000000000000000000000000000000000000000000000600052604160045260246000fd5b6000601f19601f8301169050919050565b7f4552433732313a207472616e7366657220746f206e6f6e20455243373231526560008201527f63656976657220696d706c656d656e7465720000000000000000000000000000602082015250565b7f45524331393637557067726164653a207570677261646520627265616b73206660008201527f7572746865722075706772616465730000000000000000000000000000000000602082015250565b7f4f776e61626c653a206e6577206f776e657220697320746865207a65726f206160008201527f6464726573730000000000000000000000000000000000000000000000000000602082015250565b7f4552433732313a20746f6b656e20616c7265616479206d696e74656400000000600082015250565b7f4552433732313a207472616e7366657220746f20746865207a65726f2061646460008201527f7265737300000000000000000000000000000000000000000000000000000000602082015250565b7f4552433732313a20617070726f766520746f2063616c6c657200000000000000600082015250565b7f4552433732313a206f70657261746f7220717565727920666f72206e6f6e657860008201527f697374656e7420746f6b656e0000000000000000000000000000000000000000602082015250565b7f4552433732313a20617070726f76652063616c6c6572206973206e6f74206f7760008201527f6e6572206e6f7220617070726f76656420666f7220616c6c0000000000000000602082015250565b7f4552433732313a2062616c616e636520717565727920666f7220746865207a6560008201527f726f206164647265737300000000000000000000000000000000000000000000602082015250565b7f4552433732313a206f776e657220717565727920666f72206e6f6e657869737460008201527f656e7420746f6b656e0000000000000000000000000000000000000000000000602082015250565b7f45524337323155524953746f726167653a2055524920736574206f66206e6f6e60008201527f6578697374656e7420746f6b656e000000000000000000000000000000000000602082015250565b7f496e697469616c697a61626c653a20636f6e747261637420697320616c72656160008201527f647920696e697469616c697a6564000000000000000000000000000000000000602082015250565b7f4552433732313a206d696e7420746f20746865207a65726f2061646472657373600082015250565b7f45524337323155524953746f726167653a2055524920717565727920666f722060008201527f6e6f6e6578697374656e7420746f6b656e000000000000000000000000000000602082015250565b7f4552433732313a20617070726f76656420717565727920666f72206e6f6e657860008201527f697374656e7420746f6b656e0000000000000000000000000000000000000000602082015250565b7f455243313936373a206e657720696d706c656d656e746174696f6e206973206e60008201527f6f74206120636f6e747261637400000000000000000000000000000000000000602082015250565b7f4f776e61626c653a2063616c6c6572206973206e6f7420746865206f776e6572600082015250565b7f4552433732313a207472616e73666572206f6620746f6b656e2074686174206960008201527f73206e6f74206f776e0000000000000000000000000000000000000000000000602082015250565b7f4552433732314d657461646174613a2055524920717565727920666f72206e6f60008201527f6e6578697374656e7420746f6b656e0000000000000000000000000000000000602082015250565b7f4552433732313a20617070726f76616c20746f2063757272656e74206f776e6560008201527f7200000000000000000000000000000000000000000000000000000000000000602082015250565b7f416464726573733a2064656c65676174652063616c6c20746f206e6f6e2d636f60008201527f6e74726163740000000000000000000000000000000000000000000000000000602082015250565b7f4552433732313a207472616e736665722063616c6c6572206973206e6f74206f60008201527f776e6572206e6f7220617070726f766564000000000000000000000000000000602082015250565b7f43616e2774206275726e207468697320746f6b656e2e00000000000000000000600082015250565b7f556e617574686f72697a65642066756e6374696f6e2063616c6c2e0000000000600082015250565b6146b081613da7565b81146146bb57600080fd5b50565b6146c781613db9565b81146146d257600080fd5b50565b6146de81613dcb565b81146146e957600080fd5b50565b6146f581613dd7565b811461470057600080fd5b50565b61470c81613de1565b811461471757600080fd5b50565b61472381613e2d565b811461472e57600080fd5b5056fe416464726573733a206c6f772d6c6576656c2064656c65676174652063616c6c206661696c6564a26469706673582212205c28737d6c2818ceb80073a9062b632326ed360b7d513bd9a6b37dc043725abc64736f6c63430008040033",
  "linkReferences": {},
  "deployedLinkReferences": {}
}