{
  "_format": "hh-sol-artifact-1",
  "contractName": "TrustContract",
  "sourceName": "contracts/TrustContract.sol",
  "abi": [
    {
      "anonymous": false,
      "inputs": [
        {
          "indexed": false,
          "internalType": "address",
          "name": "previousAdmin",
          "type": "address"
        },
        {
          "indexed": false,
          "internalType": "address",
          "name": "newAdmin",
          "type": "address"
        }
      ],
      "name": "AdminChanged",
      "type": "event"
    },
    {
      "anonymous": false,
      "inputs": [
        {
          "indexed": true,
          "internalType": "address",
          "name": "owner",
          "type": "address"
        },
        {
          "indexed": true,
          "internalType": "address",
          "name": "approved",
          "type": "address"
        },
        {
          "indexed": true,
          "internalType": "uint256",
          "name": "tokenId",
          "type": "uint256"
        }
      ],
      "name": "Approval",
      "type": "event"
    },
    {
      "anonymous": false,
      "inputs": [
        {
          "indexed": true,
          "internalType": "address",
          "name": "owner",
          "type": "address"
        },
        {
          "indexed": true,
          "internalType": "address",
          "name": "operator",
          "type": "address"
        },
        {
          "indexed": false,
          "internalType": "bool",
          "name": "approved",
          "type": "bool"
        }
      ],
      "name": "ApprovalForAll",
      "type": "event"
    },
    {
      "anonymous": false,
      "inputs": [
        {
          "indexed": false,
          "internalType": "address",
          "name": "authority",
          "type": "address"
        },
        {
          "indexed": false,
          "internalType": "address",
          "name": "sender",
          "type": "address"
        }
      ],
      "name": "AuthorityGranted",
      "type": "event"
    },
    {
      "anonymous": false,
      "inputs": [
        {
          "indexed": false,
          "internalType": "address",
          "name": "authority",
          "type": "address"
        },
        {
          "indexed": false,
          "internalType": "address",
          "name": "sender",
          "type": "address"
        }
      ],
      "name": "AuthorityRevoked",
      "type": "event"
    },
    {
      "anonymous": false,
      "inputs": [
        {
          "indexed": true,
          "internalType": "address",
          "name": "beacon",
          "type": "address"
        }
      ],
      "name": "BeaconUpgraded",
      "type": "event"
    },
    {
      "anonymous": false,
      "inputs": [
        {
          "indexed": true,
          "internalType": "address",
          "name": "previousOwner",
          "type": "address"
        },
        {
          "indexed": true,
          "internalType": "address",
          "name": "newOwner",
          "type": "address"
        }
      ],
      "name": "OwnershipTransferred",
      "type": "event"
    },
    {
      "anonymous": false,
      "inputs": [
        {
          "indexed": true,
          "internalType": "address",
          "name": "recipient",
          "type": "address"
        },
        {
          "indexed": true,
          "internalType": "uint256",
          "name": "tokenId",
          "type": "uint256"
        },
        {
          "indexed": false,
          "internalType": "string",
          "name": "tokenURI",
          "type": "string"
        }
      ],
      "name": "TokenMinted",
      "type": "event"
    },
    {
      "anonymous": false,
      "inputs": [
        {
          "indexed": true,
          "internalType": "address",
          "name": "from",
          "type": "address"
        },
        {
          "indexed": true,
          "internalType": "address",
          "name": "to",
          "type": "address"
        },
        {
          "indexed": true,
          "internalType": "uint256",
          "name": "tokenId",
          "type": "uint256"
        }
      ],
      "name": "Transfer",
      "type": "event"
    },
    {
      "anonymous": false,
      "inputs": [
        {
          "indexed": true,
          "internalType": "address",
          "name": "implementation",
          "type": "address"
        }
      ],
      "name": "Upgraded",
      "type": "event"
    },
    {
      "inputs": [
        {
          "internalType": "address",
          "name": "to",
          "type": "address"
        },
        {
          "internalType": "uint256",
          "name": "tokenId",
          "type": "uint256"
        }
      ],
      "name": "approve",
      "outputs": [],
      "stateMutability": "nonpayable",
      "type": "function"
    },
    {
      "inputs": [
        {
          "internalType": "address",
          "name": "owner",
          "type": "address"
        }
      ],
      "name": "balanceOf",
      "outputs": [
        {
          "internalType": "uint256",
          "name": "",
          "type": "uint256"
        }
      ],
      "stateMutability": "view",
      "type": "function"
    },
    {
      "inputs": [
        {
          "internalType": "uint256",
          "name": "tokenId",
          "type": "uint256"
        }
      ],
      "name": "burn",
      "outputs": [],
      "stateMutability": "nonpayable",
      "type": "function"
    },
    {
      "inputs": [],
      "name": "cashier_address",
      "outputs": [
        {
          "internalType": "address",
          "name": "",
          "type": "address"
        }
      ],
      "stateMutability": "view",
      "type": "function"
    },
    {
      "inputs": [
        {
          "internalType": "uint256",
          "name": "tokenId",
          "type": "uint256"
        }
      ],
      "name": "getApproved",
      "outputs": [
        {
          "internalType": "address",
          "name": "",
          "type": "address"
        }
      ],
      "stateMutability": "view",
      "type": "function"
    },
    {
      "inputs": [
        {
          "internalType": "uint256",
          "name": "tokenId",
          "type": "uint256"
        }
      ],
      "name": "getTokenData",
      "outputs": [
        {
          "internalType": "bytes32",
          "name": "keys",
          "type": "bytes32"
        },
        {
          "internalType": "bytes32",
          "name": "settings",
          "type": "bytes32"
        },
        {
          "internalType": "address",
          "name": "provider",
          "type": "address"
        },
        {
          "internalType": "bytes32",
          "name": "data",
          "type": "bytes32"
        }
      ],
      "stateMutability": "view",
      "type": "function"
    },
    {
      "inputs": [
        {
          "internalType": "address",
          "name": "cashierAddress",
          "type": "address"
        }
      ],
      "name": "initialize",
      "outputs": [],
      "stateMutability": "nonpayable",
      "type": "function"
    },
    {
      "inputs": [
        {
          "internalType": "address",
          "name": "owner",
          "type": "address"
        },
        {
          "internalType": "address",
          "name": "operator",
          "type": "address"
        }
      ],
      "name": "isApprovedForAll",
      "outputs": [
        {
          "internalType": "bool",
          "name": "",
          "type": "bool"
        }
      ],
      "stateMutability": "view",
      "type": "function"
    },
    {
      "inputs": [
        {
          "internalType": "address",
          "name": "nftOwner",
          "type": "address"
        },
        {
          "internalType": "bytes",
          "name": "nftSettings",
          "type": "bytes"
        },
        {
          "internalType": "bytes",
          "name": "attestationData",
          "type": "bytes"
        }
      ],
      "name": "mintToken",
      "outputs": [
        {
          "internalType": "uint256",
          "name": "",
          "type": "uint256"
        },
        {
          "internalType": "string",
          "name": "",
          "type": "string"
        }
      ],
      "stateMutability": "nonpayable",
      "type": "function"
    },
    {
      "inputs": [],
      "name": "name",
      "outputs": [
        {
          "internalType": "string",
          "name": "",
          "type": "string"
        }
      ],
      "stateMutability": "view",
      "type": "function"
    },
    {
      "inputs": [],
      "name": "owner",
      "outputs": [
        {
          "internalType": "address",
          "name": "",
          "type": "address"
        }
      ],
      "stateMutability": "view",
      "type": "function"
    },
    {
      "inputs": [
        {
          "internalType": "uint256",
          "name": "tokenId",
          "type": "uint256"
        }
      ],
      "name": "ownerOf",
      "outputs": [
        {
          "internalType": "address",
          "name": "",
          "type": "address"
        }
      ],
      "stateMutability": "view",
      "type": "function"
    },
    {
      "inputs": [],
      "name": "renounceOwnership",
      "outputs": [],
      "stateMutability": "nonpayable",
      "type": "function"
    },
    {
      "inputs": [
        {
          "internalType": "address",
          "name": "from",
          "type": "address"
        },
        {
          "internalType": "address",
          "name": "to",
          "type": "address"
        },
        {
          "internalType": "uint256",
          "name": "tokenId",
          "type": "uint256"
        }
      ],
      "name": "safeTransferFrom",
      "outputs": [],
      "stateMutability": "nonpayable",
      "type": "function"
    },
    {
      "inputs": [
        {
          "internalType": "address",
          "name": "from",
          "type": "address"
        },
        {
          "internalType": "address",
          "name": "to",
          "type": "address"
        },
        {
          "internalType": "uint256",
          "name": "tokenId",
          "type": "uint256"
        },
        {
          "internalType": "bytes",
          "name": "_data",
          "type": "bytes"
        }
      ],
      "name": "safeTransferFrom",
      "outputs": [],
      "stateMutability": "nonpayable",
      "type": "function"
    },
    {
      "inputs": [
        {
          "internalType": "address",
          "name": "operator",
          "type": "address"
        },
        {
          "internalType": "bool",
          "name": "approved",
          "type": "bool"
        }
      ],
      "name": "setApprovalForAll",
      "outputs": [],
      "stateMutability": "nonpayable",
      "type": "function"
    },
    {
      "inputs": [
        {
          "internalType": "bytes4",
          "name": "interfaceId",
          "type": "bytes4"
        }
      ],
      "name": "supportsInterface",
      "outputs": [
        {
          "internalType": "bool",
          "name": "",
          "type": "bool"
        }
      ],
      "stateMutability": "view",
      "type": "function"
    },
    {
      "inputs": [],
      "name": "symbol",
      "outputs": [
        {
          "internalType": "string",
          "name": "",
          "type": "string"
        }
      ],
      "stateMutability": "view",
      "type": "function"
    },
    {
      "inputs": [
        {
          "internalType": "uint256",
          "name": "tokenId",
          "type": "uint256"
        }
      ],
      "name": "tokenURI",
      "outputs": [
        {
          "internalType": "string",
          "name": "",
          "type": "string"
        }
      ],
      "stateMutability": "view",
      "type": "function"
    },
    {
      "inputs": [
        {
          "internalType": "address",
          "name": "from",
          "type": "address"
        },
        {
          "internalType": "address",
          "name": "to",
          "type": "address"
        },
        {
          "internalType": "uint256",
          "name": "tokenId",
          "type": "uint256"
        }
      ],
      "name": "transferFrom",
      "outputs": [],
      "stateMutability": "nonpayable",
      "type": "function"
    },
    {
      "inputs": [
        {
          "internalType": "address",
          "name": "from",
          "type": "address"
        },
        {
          "internalType": "address",
          "name": "to",
          "type": "address"
        },
        {
          "internalType": "uint256",
          "name": "tokenId",
          "type": "uint256"
        }
      ],
      "name": "transferFromAE",
      "outputs": [],
      "stateMutability": "nonpayable",
      "type": "function"
    },
    {
      "inputs": [
        {
          "internalType": "address",
          "name": "newOwner",
          "type": "address"
        }
      ],
      "name": "transferOwnership",
      "outputs": [],
      "stateMutability": "nonpayable",
      "type": "function"
    },
    {
      "inputs": [
        {
          "internalType": "address",
          "name": "newImplementation",
          "type": "address"
        }
      ],
      "name": "upgradeTo",
      "outputs": [],
      "stateMutability": "nonpayable",
      "type": "function"
    },
    {
      "inputs": [
        {
          "internalType": "address",
          "name": "newImplementation",
          "type": "address"
        },
        {
          "internalType": "bytes",
          "name": "data",
          "type": "bytes"
        }
      ],
      "name": "upgradeToAndCall",
      "outputs": [],
      "stateMutability": "payable",
      "type": "function"
    }
  ],
  "bytecode": "0x608060405234801561001057600080fd5b5061476c806100206000396000f3fe60806040526004361061014b5760003560e01c80636352211e116100b6578063b09afec11161006f578063b09afec114610480578063b88d4fde146104c0578063c4d66de8146104e9578063c87b56dd14610512578063e985e9c51461054f578063f2fde38b1461058c5761014b565b80636352211e1461037057806370a08231146103ad578063715018a6146103ea5780638da5cb5b1461040157806395d89b411461042c578063a22cb465146104575761014b565b80633859a3fe116101085780633859a3fe146102705780633b2607cd146102995780633e08290b146102c457806342842e0e1461030257806342966c681461032b5780634f1ef286146103545761014b565b806301ffc9a71461015057806306fdde031461018d578063081812fc146101b8578063095ea7b3146101f557806323b872dd1461021e5780633659cfe614610247575b600080fd5b34801561015c57600080fd5b50610177600480360381019061017291906132b3565b6105b5565b6040516101849190613828565b60405180910390f35b34801561019957600080fd5b506101a2610697565b6040516101af9190613888565b60405180910390f35b3480156101c457600080fd5b506101df60048036038101906101da9190613305565b610729565b6040516101ec91906137c1565b60405180910390f35b34801561020157600080fd5b5061021c60048036038101906102179190613277565b6107ae565b005b34801561022a57600080fd5b506102456004803603810190610240919061309e565b6108c6565b005b34801561025357600080fd5b5061026e60048036038101906102699190612faa565b6108cb565b005b34801561027c57600080fd5b506102976004803603810190610292919061309e565b6108f2565b005b3480156102a557600080fd5b506102ae610993565b6040516102bb91906137c1565b60405180910390f35b3480156102d057600080fd5b506102eb60048036038101906102e691906131f8565b6109ba565b6040516102f9929190613bc5565b60405180910390f35b34801561030e57600080fd5b506103296004803603810190610324919061309e565b610bb3565b005b34801561033757600080fd5b50610352600480360381019061034d9190613305565b610bb8565b005b61036e600480360381019061036991906131a4565b610c3a565b005b34801561037c57600080fd5b5061039760048036038101906103929190613305565b610c53565b6040516103a491906137c1565b60405180910390f35b3480156103b957600080fd5b506103d460048036038101906103cf9190612faa565b610d05565b6040516103e19190613baa565b60405180910390f35b3480156103f657600080fd5b506103ff610dbd565b005b34801561040d57600080fd5b50610416610e45565b60405161042391906137c1565b60405180910390f35b34801561043857600080fd5b50610441610e70565b60405161044e9190613888565b60405180910390f35b34801561046357600080fd5b5061047e60048036038101906104799190613168565b610f02565b005b34801561048c57600080fd5b506104a760048036038101906104a29190613305565b611083565b6040516104b79493929190613843565b60405180910390f35b3480156104cc57600080fd5b506104e760048036038101906104e291906130ed565b61110c565b005b3480156104f557600080fd5b50610510600480360381019061050b9190612faa565b61116e565b005b34801561051e57600080fd5b5061053960048036038101906105349190613305565b611306565b6040516105469190613888565b60405180910390f35b34801561055b57600080fd5b5061057660048036038101906105719190613062565b611458565b6040516105839190613828565b60405180910390f35b34801561059857600080fd5b506105b360048036038101906105ae9190612faa565b6114ec565b005b60007f80ac58cd000000000000000000000000000000000000000000000000000000007bffffffffffffffffffffffffffffffffffffffffffffffffffffffff1916827bffffffffffffffffffffffffffffffffffffffffffffffffffffffff1916148061068057507f5b5e139f000000000000000000000000000000000000000000000000000000007bffffffffffffffffffffffffffffffffffffffffffffffffffffffff1916827bffffffffffffffffffffffffffffffffffffffffffffffffffffffff1916145b80610690575061068f826115e4565b5b9050919050565b6060606580546106a690613e57565b80601f01602080910402602001604051908101604052809291908181526020018280546106d290613e57565b801561071f5780601f106106f45761010080835404028352916020019161071f565b820191906000526020600020905b81548152906001019060200180831161070257829003601f168201915b5050505050905090565b60006107348261164e565b610773576040517f08c379a000000000000000000000000000000000000000000000000000000000815260040161076a90613a6a565b60405180910390fd5b6069600083815260200190815260200160002060009054906101000a900473ffffffffffffffffffffffffffffffffffffffff169050919050565b60006107b982610c53565b90508073ffffffffffffffffffffffffffffffffffffffff168373ffffffffffffffffffffffffffffffffffffffff16141561082a576040517f08c379a000000000000000000000000000000000000000000000000000000000815260040161082190613b0a565b60405180910390fd5b8073ffffffffffffffffffffffffffffffffffffffff166108496116ba565b73ffffffffffffffffffffffffffffffffffffffff1614806108785750610877816108726116ba565b611458565b5b6108b7576040517f08c379a00000000000000000000000000000000000000000000000000000000081526004016108ae9061398a565b60405180910390fd5b6108c183836116c2565b505050565b505050565b6108d48161177b565b6108ef816040518060200160405280600081525060006117fa565b50565b3373ffffffffffffffffffffffffffffffffffffffff1661016060009054906101000a900473ffffffffffffffffffffffffffffffffffffffff1673ffffffffffffffffffffffffffffffffffffffff1614610983576040517f08c379a000000000000000000000000000000000000000000000000000000000815260040161097a90613b8a565b60405180910390fd5b61098e8383836119cb565b505050565b61016060009054906101000a900473ffffffffffffffffffffffffffffffffffffffff1681565b600060603373ffffffffffffffffffffffffffffffffffffffff1661016060009054906101000a900473ffffffffffffffffffffffffffffffffffffffff1673ffffffffffffffffffffffffffffffffffffffff1614610a4f576040517f08c379a0000000000000000000000000000000000000000000000000000000008152600401610a4690613b8a565b60405180910390fd5b610a5a61015f611c27565b6000610a6761015f611c3d565b9050610a738682611c4b565b6000806060600087806020019051810190610a8e9190612fd3565b9091925080945081955082965083975050505050610aac8583611e19565b82610161600087815260200190815260200160002081905550888051906020012061016360008781526020019081526020016000208190555083610162600087815260200190815260200160002060006101000a81548173ffffffffffffffffffffffffffffffffffffffff021916908373ffffffffffffffffffffffffffffffffffffffff16021790555080610164600087815260200190815260200160002081905550848a73ffffffffffffffffffffffffffffffffffffffff167fdf92894dc4675a7333caa5903b69cf5d8e8ec0d3f361c88207b6688e525703bb84604051610b989190613888565b60405180910390a38482965096505050505050935093915050565b505050565b3373ffffffffffffffffffffffffffffffffffffffff16610bd882610c53565b73ffffffffffffffffffffffffffffffffffffffff1614610c2e576040517f08c379a0000000000000000000000000000000000000000000000000000000008152600401610c2590613b6a565b60405180910390fd5b610c3781611e8d565b50565b610c438261177b565b610c4f828260016117fa565b5050565b6000806067600084815260200190815260200160002060009054906101000a900473ffffffffffffffffffffffffffffffffffffffff169050600073ffffffffffffffffffffffffffffffffffffffff168173ffffffffffffffffffffffffffffffffffffffff161415610cfc576040517f08c379a0000000000000000000000000000000000000000000000000000000008152600401610cf3906139ca565b60405180910390fd5b80915050919050565b60008073ffffffffffffffffffffffffffffffffffffffff168273ffffffffffffffffffffffffffffffffffffffff161415610d76576040517f08c379a0000000000000000000000000000000000000000000000000000000008152600401610d6d906139aa565b60405180910390fd5b606860008373ffffffffffffffffffffffffffffffffffffffff1673ffffffffffffffffffffffffffffffffffffffff168152602001908152602001600020549050919050565b610dc56116ba565b73ffffffffffffffffffffffffffffffffffffffff16610de3610e45565b73ffffffffffffffffffffffffffffffffffffffff1614610e39576040517f08c379a0000000000000000000000000000000000000000000000000000000008152600401610e3090613aaa565b60405180910390fd5b610e436000611ee0565b565b600061012d60009054906101000a900473ffffffffffffffffffffffffffffffffffffffff16905090565b606060668054610e7f90613e57565b80601f0160208091040260200160405190810160405280929190818152602001828054610eab90613e57565b8015610ef85780601f10610ecd57610100808354040283529160200191610ef8565b820191906000526020600020905b815481529060010190602001808311610edb57829003601f168201915b5050505050905090565b610f0a6116ba565b73ffffffffffffffffffffffffffffffffffffffff168273ffffffffffffffffffffffffffffffffffffffff161415610f78576040517f08c379a0000000000000000000000000000000000000000000000000000000008152600401610f6f9061394a565b60405180910390fd5b80606a6000610f856116ba565b73ffffffffffffffffffffffffffffffffffffffff1673ffffffffffffffffffffffffffffffffffffffff16815260200190815260200160002060008473ffffffffffffffffffffffffffffffffffffffff1673ffffffffffffffffffffffffffffffffffffffff16815260200190815260200160002060006101000a81548160ff0219169083151502179055508173ffffffffffffffffffffffffffffffffffffffff166110326116ba565b73ffffffffffffffffffffffffffffffffffffffff167f17307eab39ab6107e8899845ad3d59bd9653f200f220920489ca2b5937696c31836040516110779190613828565b60405180910390a35050565b600080600080610161600086815260200190815260200160002054610163600087815260200190815260200160002054610162600088815260200190815260200160002060009054906101000a900473ffffffffffffffffffffffffffffffffffffffff1661016460008981526020019081526020016000205493509350935093509193509193565b61111d6111176116ba565b83611fa8565b61115c576040517f08c379a000000000000000000000000000000000000000000000000000000000815260040161115390613b4a565b60405180910390fd5b61116884848484612086565b50505050565b600060019054906101000a900460ff1680611194575060008054906101000a900460ff16155b6111d3576040517f08c379a00000000000000000000000000000000000000000000000000000000081526004016111ca90613a0a565b60405180910390fd5b60008060019054906101000a900460ff161590508015611223576001600060016101000a81548160ff02191690831515021790555060016000806101000a81548160ff0219169083151502179055505b6112976040518060400160405280600b81526020017f547275737420546f6b656e0000000000000000000000000000000000000000008152506040518060400160405280600281526020017f54540000000000000000000000000000000000000000000000000000000000008152506120e2565b61129f6121d7565b8161016060006101000a81548173ffffffffffffffffffffffffffffffffffffffff021916908373ffffffffffffffffffffffffffffffffffffffff16021790555080156113025760008060016101000a81548160ff0219169083151502179055505b5050565b60606113118261164e565b611350576040517f08c379a000000000000000000000000000000000000000000000000000000000815260040161134790613a4a565b60405180910390fd5b600060976000848152602001908152602001600020805461137090613e57565b80601f016020809104026020016040519081016040528092919081815260200182805461139c90613e57565b80156113e95780601f106113be576101008083540402835291602001916113e9565b820191906000526020600020905b8154815290600101906020018083116113cc57829003601f168201915b5050505050905060006113fa6122c0565b9050600081511415611410578192505050611453565b60008251111561144557808260405160200161142d92919061379d565b60405160208183030381529060405292505050611453565b61144e846122d7565b925050505b919050565b6000606a60008473ffffffffffffffffffffffffffffffffffffffff1673ffffffffffffffffffffffffffffffffffffffff16815260200190815260200160002060008373ffffffffffffffffffffffffffffffffffffffff1673ffffffffffffffffffffffffffffffffffffffff16815260200190815260200160002060009054906101000a900460ff16905092915050565b6114f46116ba565b73ffffffffffffffffffffffffffffffffffffffff16611512610e45565b73ffffffffffffffffffffffffffffffffffffffff1614611568576040517f08c379a000000000000000000000000000000000000000000000000000000000815260040161155f90613aaa565b60405180910390fd5b600073ffffffffffffffffffffffffffffffffffffffff168173ffffffffffffffffffffffffffffffffffffffff1614156115d8576040517f08c379a00000000000000000000000000000000000000000000000000000000081526004016115cf906138ea565b60405180910390fd5b6115e181611ee0565b50565b60007f01ffc9a7000000000000000000000000000000000000000000000000000000007bffffffffffffffffffffffffffffffffffffffffffffffffffffffff1916827bffffffffffffffffffffffffffffffffffffffffffffffffffffffff1916149050919050565b60008073ffffffffffffffffffffffffffffffffffffffff166067600084815260200190815260200160002060009054906101000a900473ffffffffffffffffffffffffffffffffffffffff1673ffffffffffffffffffffffffffffffffffffffff1614159050919050565b600033905090565b816069600083815260200190815260200160002060006101000a81548173ffffffffffffffffffffffffffffffffffffffff021916908373ffffffffffffffffffffffffffffffffffffffff160217905550808273ffffffffffffffffffffffffffffffffffffffff1661173583610c53565b73ffffffffffffffffffffffffffffffffffffffff167f8c5be1e5ebec7d5bd14f71427d1e84f3dd0314c0f7b2291e5b200ac8c7c3b92560405160405180910390a45050565b6117836116ba565b73ffffffffffffffffffffffffffffffffffffffff166117a1610e45565b73ffffffffffffffffffffffffffffffffffffffff16146117f7576040517f08c379a00000000000000000000000000000000000000000000000000000000081526004016117ee90613aaa565b60405180910390fd5b50565b600061180461237e565b905061180f846123d5565b60008351118061181c5750815b1561182d5761182b848461248e565b505b600061185b7f4910fdfa16fed3260ed0e7147f7cc6da11a60208b5b9406d12a635614ffd914360001b612572565b90508060000160009054906101000a900460ff166119c45760018160000160006101000a81548160ff02191690831515021790555061192785836040516024016118a591906137c1565b6040516020818303038152906040527f3659cfe6000000000000000000000000000000000000000000000000000000007bffffffffffffffffffffffffffffffffffffffffffffffffffffffff19166020820180517bffffffffffffffffffffffffffffffffffffffffffffffffffffffff838183161783525050505061248e565b5060008160000160006101000a81548160ff02191690831515021790555061194d61237e565b73ffffffffffffffffffffffffffffffffffffffff168273ffffffffffffffffffffffffffffffffffffffff16146119ba576040517f08c379a00000000000000000000000000000000000000000000000000000000081526004016119b1906138ca565b60405180910390fd5b6119c38561257c565b5b5050505050565b8273ffffffffffffffffffffffffffffffffffffffff166119eb82610c53565b73ffffffffffffffffffffffffffffffffffffffff1614611a41576040517f08c379a0000000000000000000000000000000000000000000000000000000008152600401611a3890613aca565b60405180910390fd5b600073ffffffffffffffffffffffffffffffffffffffff168273ffffffffffffffffffffffffffffffffffffffff161415611ab1576040517f08c379a0000000000000000000000000000000000000000000000000000000008152600401611aa89061392a565b60405180910390fd5b611abc8383836125cb565b611ac76000826116c2565b6001606860008573ffffffffffffffffffffffffffffffffffffffff1673ffffffffffffffffffffffffffffffffffffffff1681526020019081526020016000206000828254611b179190613d51565b925050819055506001606860008473ffffffffffffffffffffffffffffffffffffffff1673ffffffffffffffffffffffffffffffffffffffff1681526020019081526020016000206000828254611b6e9190613cca565b92505081905550816067600083815260200190815260200160002060006101000a81548173ffffffffffffffffffffffffffffffffffffffff021916908373ffffffffffffffffffffffffffffffffffffffff160217905550808273ffffffffffffffffffffffffffffffffffffffff168473ffffffffffffffffffffffffffffffffffffffff167fddf252ad1be2c89b69c2b068fc378daa952ba7f163c4a11628f55a4df523b3ef60405160405180910390a4505050565b6001816000016000828254019250508190555050565b600081600001549050919050565b600073ffffffffffffffffffffffffffffffffffffffff168273ffffffffffffffffffffffffffffffffffffffff161415611cbb576040517f08c379a0000000000000000000000000000000000000000000000000000000008152600401611cb290613a2a565b60405180910390fd5b611cc48161164e565b15611d04576040517f08c379a0000000000000000000000000000000000000000000000000000000008152600401611cfb9061390a565b60405180910390fd5b611d10600083836125cb565b6001606860008473ffffffffffffffffffffffffffffffffffffffff1673ffffffffffffffffffffffffffffffffffffffff1681526020019081526020016000206000828254611d609190613cca565b92505081905550816067600083815260200190815260200160002060006101000a81548173ffffffffffffffffffffffffffffffffffffffff021916908373ffffffffffffffffffffffffffffffffffffffff160217905550808273ffffffffffffffffffffffffffffffffffffffff16600073ffffffffffffffffffffffffffffffffffffffff167fddf252ad1be2c89b69c2b068fc378daa952ba7f163c4a11628f55a4df523b3ef60405160405180910390a45050565b611e228261164e565b611e61576040517f08c379a0000000000000000000000000000000000000000000000000000000008152600401611e58906139ea565b60405180910390fd5b80609760008481526020019081526020016000209080519060200190611e88929190612d64565b505050565b611e96816125d0565b6000609760008381526020019081526020016000208054611eb690613e57565b905014611edd57609760008281526020019081526020016000206000611edc9190612dea565b5b50565b600061012d60009054906101000a900473ffffffffffffffffffffffffffffffffffffffff1690508161012d60006101000a81548173ffffffffffffffffffffffffffffffffffffffff021916908373ffffffffffffffffffffffffffffffffffffffff1602179055508173ffffffffffffffffffffffffffffffffffffffff168173ffffffffffffffffffffffffffffffffffffffff167f8be0079c531659141344cd1fd0a4f28419497f9722a3daafe3b4186f6b6457e060405160405180910390a35050565b6000611fb38261164e565b611ff2576040517f08c379a0000000000000000000000000000000000000000000000000000000008152600401611fe99061396a565b60405180910390fd5b6000611ffd83610c53565b90508073ffffffffffffffffffffffffffffffffffffffff168473ffffffffffffffffffffffffffffffffffffffff16148061206c57508373ffffffffffffffffffffffffffffffffffffffff1661205484610729565b73ffffffffffffffffffffffffffffffffffffffff16145b8061207d575061207c8185611458565b5b91505092915050565b6120918484846119cb565b61209d848484846126e1565b6120dc576040517f08c379a00000000000000000000000000000000000000000000000000000000081526004016120d3906138aa565b60405180910390fd5b50505050565b600060019054906101000a900460ff1680612108575060008054906101000a900460ff16155b612147576040517f08c379a000000000000000000000000000000000000000000000000000000000815260040161213e90613a0a565b60405180910390fd5b60008060019054906101000a900460ff161590508015612197576001600060016101000a81548160ff02191690831515021790555060016000806101000a81548160ff0219169083151502179055505b61219f612878565b6121a7612951565b6121b18383612a2a565b80156121d25760008060016101000a81548160ff0219169083151502179055505b505050565b600060019054906101000a900460ff16806121fd575060008054906101000a900460ff16155b61223c576040517f08c379a000000000000000000000000000000000000000000000000000000000815260040161223390613a0a565b60405180910390fd5b60008060019054906101000a900460ff16159050801561228c576001600060016101000a81548160ff02191690831515021790555060016000806101000a81548160ff0219169083151502179055505b61229c6122976116ba565b611ee0565b80156122bd5760008060016101000a81548160ff0219169083151502179055505b50565b606060405180602001604052806000815250905090565b60606122e28261164e565b612321576040517f08c379a000000000000000000000000000000000000000000000000000000000815260040161231890613aea565b60405180910390fd5b600061232b6122c0565b9050600081511161234b5760405180602001604052806000815250612376565b8061235584612b33565b60405160200161236692919061379d565b6040516020818303038152906040525b915050919050565b60006123ac7f360894a13ba1a3210667c828492db98dca3e2076cc3735a920a3ca505d382bbc60001b612ce0565b60000160009054906101000a900473ffffffffffffffffffffffffffffffffffffffff16905090565b6123de81612cea565b61241d576040517f08c379a000000000000000000000000000000000000000000000000000000000815260040161241490613a8a565b60405180910390fd5b8061244a7f360894a13ba1a3210667c828492db98dca3e2076cc3735a920a3ca505d382bbc60001b612ce0565b60000160006101000a81548173ffffffffffffffffffffffffffffffffffffffff021916908373ffffffffffffffffffffffffffffffffffffffff16021790555050565b606061249983612cea565b6124d8576040517f08c379a00000000000000000000000000000000000000000000000000000000081526004016124cf90613b2a565b60405180910390fd5b6000808473ffffffffffffffffffffffffffffffffffffffff16846040516125009190613786565b600060405180830381855af49150503d806000811461253b576040519150601f19603f3d011682016040523d82523d6000602084013e612540565b606091505b5091509150612568828260405180606001604052806027815260200161471060279139612cfd565b9250505092915050565b6000819050919050565b612585816123d5565b8073ffffffffffffffffffffffffffffffffffffffff167fbc7cd75a20ee27fd9adebab32041f755214dbc6bffa90cc0225b39da2e5c2d3b60405160405180910390a250565b505050565b60006125db82610c53565b90506125e9816000846125cb565b6125f46000836116c2565b6001606860008373ffffffffffffffffffffffffffffffffffffffff1673ffffffffffffffffffffffffffffffffffffffff16815260200190815260200160002060008282546126449190613d51565b925050819055506067600083815260200190815260200160002060006101000a81549073ffffffffffffffffffffffffffffffffffffffff021916905581600073ffffffffffffffffffffffffffffffffffffffff168273ffffffffffffffffffffffffffffffffffffffff167fddf252ad1be2c89b69c2b068fc378daa952ba7f163c4a11628f55a4df523b3ef60405160405180910390a45050565b60006127028473ffffffffffffffffffffffffffffffffffffffff16612cea565b1561286b578373ffffffffffffffffffffffffffffffffffffffff1663150b7a0261272b6116ba565b8786866040518563ffffffff1660e01b815260040161274d94939291906137dc565b602060405180830381600087803b15801561276757600080fd5b505af192505050801561279857506040513d601f19601f8201168201806040525081019061279591906132dc565b60015b61281b573d80600081146127c8576040519150601f19603f3d011682016040523d82523d6000602084013e6127cd565b606091505b50600081511415612813576040517f08c379a000000000000000000000000000000000000000000000000000000000815260040161280a906138aa565b60405180910390fd5b805181602001fd5b63150b7a0260e01b7bffffffffffffffffffffffffffffffffffffffffffffffffffffffff1916817bffffffffffffffffffffffffffffffffffffffffffffffffffffffff191614915050612870565b600190505b949350505050565b600060019054906101000a900460ff168061289e575060008054906101000a900460ff16155b6128dd576040517f08c379a00000000000000000000000000000000000000000000000000000000081526004016128d490613a0a565b60405180910390fd5b60008060019054906101000a900460ff16159050801561292d576001600060016101000a81548160ff02191690831515021790555060016000806101000a81548160ff0219169083151502179055505b801561294e5760008060016101000a81548160ff0219169083151502179055505b50565b600060019054906101000a900460ff1680612977575060008054906101000a900460ff16155b6129b6576040517f08c379a00000000000000000000000000000000000000000000000000000000081526004016129ad90613a0a565b60405180910390fd5b60008060019054906101000a900460ff161590508015612a06576001600060016101000a81548160ff02191690831515021790555060016000806101000a81548160ff0219169083151502179055505b8015612a275760008060016101000a81548160ff0219169083151502179055505b50565b600060019054906101000a900460ff1680612a50575060008054906101000a900460ff16155b612a8f576040517f08c379a0000000000000000000000000000000000000000000000000000000008152600401612a8690613a0a565b60405180910390fd5b60008060019054906101000a900460ff161590508015612adf576001600060016101000a81548160ff02191690831515021790555060016000806101000a81548160ff0219169083151502179055505b8260659080519060200190612af5929190612d64565b508160669080519060200190612b0c929190612d64565b508015612b2e5760008060016101000a81548160ff0219169083151502179055505b505050565b60606000821415612b7b576040518060400160405280600181526020017f30000000000000000000000000000000000000000000000000000000000000008152509050612cdb565b600082905060005b60008214612bad578080612b9690613eba565b915050600a82612ba69190613d20565b9150612b83565b60008167ffffffffffffffff811115612bef577f4e487b7100000000000000000000000000000000000000000000000000000000600052604160045260246000fd5b6040519080825280601f01601f191660200182016040528015612c215781602001600182028036833780820191505090505b5090505b60008514612cd457600182612c3a9190613d51565b9150600a85612c499190613f03565b6030612c559190613cca565b60f81b818381518110612c91577f4e487b7100000000000000000000000000000000000000000000000000000000600052603260045260246000fd5b60200101907effffffffffffffffffffffffffffffffffffffffffffffffffffffffffffff1916908160001a905350600a85612ccd9190613d20565b9450612c25565b8093505050505b919050565b6000819050919050565b600080823b905060008111915050919050565b60608315612d0d57829050612d5d565b600083511115612d205782518084602001fd5b816040517f08c379a0000000000000000000000000000000000000000000000000000000008152600401612d549190613888565b60405180910390fd5b9392505050565b828054612d7090613e57565b90600052602060002090601f016020900481019282612d925760008555612dd9565b82601f10612dab57805160ff1916838001178555612dd9565b82800160010185558215612dd9579182015b82811115612dd8578251825591602001919060010190612dbd565b5b509050612de69190612e2a565b5090565b508054612df690613e57565b6000825580601f10612e085750612e27565b601f016020900490600052602060002090810190612e269190612e2a565b5b50565b5b80821115612e43576000816000905550600101612e2b565b5090565b6000612e5a612e5584613c1a565b613bf5565b905082815260208101848484011115612e7257600080fd5b612e7d848285613e15565b509392505050565b6000612e98612e9384613c4b565b613bf5565b905082815260208101848484011115612eb057600080fd5b612ebb848285613e24565b509392505050565b600081359050612ed281614685565b92915050565b600081519050612ee78161469c565b92915050565b600081359050612efc816146b3565b92915050565b600081519050612f11816146ca565b92915050565b600081359050612f26816146e1565b92915050565b600081519050612f3b816146e1565b92915050565b600082601f830112612f5257600080fd5b8135612f62848260208601612e47565b91505092915050565b600082601f830112612f7c57600080fd5b8151612f8c848260208601612e85565b91505092915050565b600081359050612fa4816146f8565b92915050565b600060208284031215612fbc57600080fd5b6000612fca84828501612ec3565b91505092915050565b600080600080600060a08688031215612feb57600080fd5b6000612ff988828901612ed8565b955050602061300a88828901612ed8565b945050604061301b88828901612f02565b935050606086015167ffffffffffffffff81111561303857600080fd5b61304488828901612f6b565b925050608061305588828901612f02565b9150509295509295909350565b6000806040838503121561307557600080fd5b600061308385828601612ec3565b925050602061309485828601612ec3565b9150509250929050565b6000806000606084860312156130b357600080fd5b60006130c186828701612ec3565b93505060206130d286828701612ec3565b92505060406130e386828701612f95565b9150509250925092565b6000806000806080858703121561310357600080fd5b600061311187828801612ec3565b945050602061312287828801612ec3565b935050604061313387828801612f95565b925050606085013567ffffffffffffffff81111561315057600080fd5b61315c87828801612f41565b91505092959194509250565b6000806040838503121561317b57600080fd5b600061318985828601612ec3565b925050602061319a85828601612eed565b9150509250929050565b600080604083850312156131b757600080fd5b60006131c585828601612ec3565b925050602083013567ffffffffffffffff8111156131e257600080fd5b6131ee85828601612f41565b9150509250929050565b60008060006060848603121561320d57600080fd5b600061321b86828701612ec3565b935050602084013567ffffffffffffffff81111561323857600080fd5b61324486828701612f41565b925050604084013567ffffffffffffffff81111561326157600080fd5b61326d86828701612f41565b9150509250925092565b6000806040838503121561328a57600080fd5b600061329885828601612ec3565b92505060206132a985828601612f95565b9150509250929050565b6000602082840312156132c557600080fd5b60006132d384828501612f17565b91505092915050565b6000602082840312156132ee57600080fd5b60006132fc84828501612f2c565b91505092915050565b60006020828403121561331757600080fd5b600061332584828501612f95565b91505092915050565b61333781613d85565b82525050565b61334681613da9565b82525050565b61335581613db5565b82525050565b600061336682613c7c565b6133708185613c92565b9350613380818560208601613e24565b61338981613ff0565b840191505092915050565b600061339f82613c7c565b6133a98185613ca3565b93506133b9818560208601613e24565b80840191505092915050565b60006133d082613c87565b6133da8185613cae565b93506133ea818560208601613e24565b6133f381613ff0565b840191505092915050565b600061340982613c87565b6134138185613cbf565b9350613423818560208601613e24565b80840191505092915050565b600061343c603283613cae565b915061344782614001565b604082019050919050565b600061345f602f83613cae565b915061346a82614050565b604082019050919050565b6000613482602683613cae565b915061348d8261409f565b604082019050919050565b60006134a5601c83613cae565b91506134b0826140ee565b602082019050919050565b60006134c8602483613cae565b91506134d382614117565b604082019050919050565b60006134eb601983613cae565b91506134f682614166565b602082019050919050565b600061350e602c83613cae565b91506135198261418f565b604082019050919050565b6000613531603883613cae565b915061353c826141de565b604082019050919050565b6000613554602a83613cae565b915061355f8261422d565b604082019050919050565b6000613577602983613cae565b91506135828261427c565b604082019050919050565b600061359a602e83613cae565b91506135a5826142cb565b604082019050919050565b60006135bd602e83613cae565b91506135c88261431a565b604082019050919050565b60006135e0602083613cae565b91506135eb82614369565b602082019050919050565b6000613603603183613cae565b915061360e82614392565b604082019050919050565b6000613626602c83613cae565b9150613631826143e1565b604082019050919050565b6000613649602d83613cae565b915061365482614430565b604082019050919050565b600061366c602083613cae565b91506136778261447f565b602082019050919050565b600061368f602983613cae565b915061369a826144a8565b604082019050919050565b60006136b2602f83613cae565b91506136bd826144f7565b604082019050919050565b60006136d5602183613cae565b91506136e082614546565b604082019050919050565b60006136f8602683613cae565b915061370382614595565b604082019050919050565b600061371b603183613cae565b9150613726826145e4565b604082019050919050565b600061373e601683613cae565b915061374982614633565b602082019050919050565b6000613761601b83613cae565b915061376c8261465c565b602082019050919050565b61378081613e0b565b82525050565b60006137928284613394565b915081905092915050565b60006137a982856133fe565b91506137b582846133fe565b91508190509392505050565b60006020820190506137d6600083018461332e565b92915050565b60006080820190506137f1600083018761332e565b6137fe602083018661332e565b61380b6040830185613777565b818103606083015261381d818461335b565b905095945050505050565b600060208201905061383d600083018461333d565b92915050565b6000608082019050613858600083018761334c565b613865602083018661334c565b613872604083018561332e565b61387f606083018461334c565b95945050505050565b600060208201905081810360008301526138a281846133c5565b905092915050565b600060208201905081810360008301526138c38161342f565b9050919050565b600060208201905081810360008301526138e381613452565b9050919050565b6000602082019050818103600083015261390381613475565b9050919050565b6000602082019050818103600083015261392381613498565b9050919050565b60006020820190508181036000830152613943816134bb565b9050919050565b60006020820190508181036000830152613963816134de565b9050919050565b6000602082019050818103600083015261398381613501565b9050919050565b600060208201905081810360008301526139a381613524565b9050919050565b600060208201905081810360008301526139c381613547565b9050919050565b600060208201905081810360008301526139e38161356a565b9050919050565b60006020820190508181036000830152613a038161358d565b9050919050565b60006020820190508181036000830152613a23816135b0565b9050919050565b60006020820190508181036000830152613a43816135d3565b9050919050565b60006020820190508181036000830152613a63816135f6565b9050919050565b60006020820190508181036000830152613a8381613619565b9050919050565b60006020820190508181036000830152613aa38161363c565b9050919050565b60006020820190508181036000830152613ac38161365f565b9050919050565b60006020820190508181036000830152613ae381613682565b9050919050565b60006020820190508181036000830152613b03816136a5565b9050919050565b60006020820190508181036000830152613b23816136c8565b9050919050565b60006020820190508181036000830152613b43816136eb565b9050919050565b60006020820190508181036000830152613b638161370e565b9050919050565b60006020820190508181036000830152613b8381613731565b9050919050565b60006020820190508181036000830152613ba381613754565b9050919050565b6000602082019050613bbf6000830184613777565b92915050565b6000604082019050613bda6000830185613777565b8181036020830152613bec81846133c5565b90509392505050565b6000613bff613c10565b9050613c0b8282613e89565b919050565b6000604051905090565b600067ffffffffffffffff821115613c3557613c34613fc1565b5b613c3e82613ff0565b9050602081019050919050565b600067ffffffffffffffff821115613c6657613c65613fc1565b5b613c6f82613ff0565b9050602081019050919050565b600081519050919050565b600081519050919050565b600082825260208201905092915050565b600081905092915050565b600082825260208201905092915050565b600081905092915050565b6000613cd582613e0b565b9150613ce083613e0b565b9250827fffffffffffffffffffffffffffffffffffffffffffffffffffffffffffffffff03821115613d1557613d14613f34565b5b828201905092915050565b6000613d2b82613e0b565b9150613d3683613e0b565b925082613d4657613d45613f63565b5b828204905092915050565b6000613d5c82613e0b565b9150613d6783613e0b565b925082821015613d7a57613d79613f34565b5b828203905092915050565b6000613d9082613deb565b9050919050565b6000613da282613deb565b9050919050565b60008115159050919050565b6000819050919050565b60007fffffffff0000000000000000000000000000000000000000000000000000000082169050919050565b600073ffffffffffffffffffffffffffffffffffffffff82169050919050565b6000819050919050565b82818337600083830152505050565b60005b83811015613e42578082015181840152602081019050613e27565b83811115613e51576000848401525b50505050565b60006002820490506001821680613e6f57607f821691505b60208210811415613e8357613e82613f92565b5b50919050565b613e9282613ff0565b810181811067ffffffffffffffff82111715613eb157613eb0613fc1565b5b80604052505050565b6000613ec582613e0b565b91507fffffffffffffffffffffffffffffffffffffffffffffffffffffffffffffffff821415613ef857613ef7613f34565b5b600182019050919050565b6000613f0e82613e0b565b9150613f1983613e0b565b925082613f2957613f28613f63565b5b828206905092915050565b7f4e487b7100000000000000000000000000000000000000000000000000000000600052601160045260246000fd5b7f4e487b7100000000000000000000000000000000000000000000000000000000600052601260045260246000fd5b7f4e487b7100000000000000000000000000000000000000000000000000000000600052602260045260246000fd5b7f4e487b7100000000000000000000000000000000000000000000000000000000600052604160045260246000fd5b6000601f19601f8301169050919050565b7f4552433732313a207472616e7366657220746f206e6f6e20455243373231526560008201527f63656976657220696d706c656d656e7465720000000000000000000000000000602082015250565b7f45524331393637557067726164653a207570677261646520627265616b73206660008201527f7572746865722075706772616465730000000000000000000000000000000000602082015250565b7f4f776e61626c653a206e6577206f776e657220697320746865207a65726f206160008201527f6464726573730000000000000000000000000000000000000000000000000000602082015250565b7f4552433732313a20746f6b656e20616c7265616479206d696e74656400000000600082015250565b7f4552433732313a207472616e7366657220746f20746865207a65726f2061646460008201527f7265737300000000000000000000000000000000000000000000000000000000602082015250565b7f4552433732313a20617070726f766520746f2063616c6c657200000000000000600082015250565b7f4552433732313a206f70657261746f7220717565727920666f72206e6f6e657860008201527f697374656e7420746f6b656e0000000000000000000000000000000000000000602082015250565b7f4552433732313a20617070726f76652063616c6c6572206973206e6f74206f7760008201527f6e6572206e6f7220617070726f76656420666f7220616c6c0000000000000000602082015250565b7f4552433732313a2062616c616e636520717565727920666f7220746865207a6560008201527f726f206164647265737300000000000000000000000000000000000000000000602082015250565b7f4552433732313a206f776e657220717565727920666f72206e6f6e657869737460008201527f656e7420746f6b656e0000000000000000000000000000000000000000000000602082015250565b7f45524337323155524953746f726167653a2055524920736574206f66206e6f6e60008201527f6578697374656e7420746f6b656e000000000000000000000000000000000000602082015250565b7f496e697469616c697a61626c653a20636f6e747261637420697320616c72656160008201527f647920696e697469616c697a6564000000000000000000000000000000000000602082015250565b7f4552433732313a206d696e7420746f20746865207a65726f2061646472657373600082015250565b7f45524337323155524953746f726167653a2055524920717565727920666f722060008201527f6e6f6e6578697374656e7420746f6b656e000000000000000000000000000000602082015250565b7f4552433732313a20617070726f76656420717565727920666f72206e6f6e657860008201527f697374656e7420746f6b656e0000000000000000000000000000000000000000602082015250565b7f455243313936373a206e657720696d706c656d656e746174696f6e206973206e60008201527f6f74206120636f6e747261637400000000000000000000000000000000000000602082015250565b7f4f776e61626c653a2063616c6c6572206973206e6f7420746865206f776e6572600082015250565b7f4552433732313a207472616e73666572206f6620746f6b656e2074686174206960008201527f73206e6f74206f776e0000000000000000000000000000000000000000000000602082015250565b7f4552433732314d657461646174613a2055524920717565727920666f72206e6f60008201527f6e6578697374656e7420746f6b656e0000000000000000000000000000000000602082015250565b7f4552433732313a20617070726f76616c20746f2063757272656e74206f776e6560008201527f7200000000000000000000000000000000000000000000000000000000000000602082015250565b7f416464726573733a2064656c65676174652063616c6c20746f206e6f6e2d636f60008201527f6e74726163740000000000000000000000000000000000000000000000000000602082015250565b7f4552433732313a207472616e736665722063616c6c6572206973206e6f74206f60008201527f776e6572206e6f7220617070726f766564000000000000000000000000000000602082015250565b7f43616e2774206275726e207468697320746f6b656e2e00000000000000000000600082015250565b7f556e617574686f72697a65642066756e6374696f6e2063616c6c2e0000000000600082015250565b61468e81613d85565b811461469957600080fd5b50565b6146a581613d97565b81146146b057600080fd5b50565b6146bc81613da9565b81146146c757600080fd5b50565b6146d381613db5565b81146146de57600080fd5b50565b6146ea81613dbf565b81146146f557600080fd5b50565b61470181613e0b565b811461470c57600080fd5b5056fe416464726573733a206c6f772d6c6576656c2064656c65676174652063616c6c206661696c6564a26469706673582212209566b3e43daa083a623302e6435356f761e79686824690fd2f72bf2322a0ccdb64736f6c63430008040033",
  "linkReferences": {},
  "deployedLinkReferences": {}
}